:100000000C949A020C94B7020C94B7020C94B702A9
:100010000C94B7020C94B7020C94B7020C94B7027C
:100020000C94B7020C94B7020C94CD190C94071AD7
:100030000C94B7020C94B7020C94B7020C94B7025C
:100040000C94B7020C94B7020C94B7020C94B7024C
:100050000C94280A0C94B7020C94B7020C94F9097A
:100060000C94B7020C94D91B0C94AE1B0C94B702E1
:100070000C94B7020C94B7020C94B7020C94B7021C
:100080000C94B7020C94B7020C94B7020C94B7020C
:100090000C94B7020C94B7020C94B7020C94B702FC
:1000A0000C94B7020C94B7020C94B702740983093C
:1000B0009209A109B109C009CE096E196A19661918
:1000C00062195E195A19561952194E194A194619C8
:1000D00042193E193A19361932192E192A192619B8
:1000E00022191E191A19161912190E190A190619A8
:1000F0000219FE18FA18F618F218EE18EA18E6189F
:10010000E218DE18DA18D618D218CE18CA18C6188F
:10011000C218BE18BA18B618B218AE18AA18A6187F
:10012000A2189E189A18961892188E188A1886186F
:1001300082187E187A18761872186E18084AD73BFB
:100140003BCE016E84BCBFFDC12F3D6C74319ABDA6
:1001500056833DDA3D00C77F11BED9E4BB4C3E91CA
:100160006BAAAABE000000803F05A84CCDB2D44EB9
:10017000B93836A9020C50B9918688083CA6AAAABB
:100180002ABE000000803F006E616E00696E66004E
:1001900000407A10F35A00A0724E18090010A5D43E
:1001A000E80000E87648170000E40B54020000CA9B
:1001B0009A3B000000E1F5050000809698000000E1
:1001C00040420F000000A086010000001027000040
:1001D0000000E803000000006400000000000A00C6
:1001E000000000000100000000002C76D888DC67C9
:1001F0004F0823DFC1DFAE59E1B1B796E5E3E45321
:10020000C63AE651997696E8E6C28426EB898C9B3D
:1002100062ED407C6FFCEFBC9C9F40F2BAA56FA5DD
:10022000F490055A2AF75C936B6CF9676DC11BFC5F
:10023000E0E40D47FEF520E6B500D0ED902E03007A
:10024000943577050080841E080000204E0A0000C7
:1002500000C80C333333330F986E12831141EF8D86
:100260002114893BE65516CFFEE6DB18D1844B38C6
:100270001BF77C1D901DA4BBE424203284725E22F7
:100280008100C9F124ECA1E53D27000100003703FE
:100290001200020000F4024300030000F002040117
:1002A000030904DA021402030904C2021603030953
:1002B00004B4020C0C03310032003300340035006A
:1002C0000000160355005300420020005300650053
:1002D0007200690061006C000000140359006F0097
:1002E0007500720020004E0061006D006500000086
:1002F0000403090409024300020100C0320904009A
:100300000001020201000524001001052401010181
:10031000042402060524060001070582031000409C
:1003200009040100020A0000000705030240000062
:10033000070584024000001201000202000010C004
:10034000167A040001010203010001C11201803686
:10035000018136000000000000005F00000007007F
:100360000700147F147F14242A7F2A1223130864A1
:100370006236495522500005030000001C2241004E
:100380000041221C0014083E081408083E0808001A
:1003900050300000080808080800606000002010C5
:1003A0000804023E5149453E00427F4000426151EF
:1003B00049462141454B311814127F1027454545C8
:1003C000393C4A49493001710905033649494936E2
:1003D000064949291E00363600000056360000083E
:1003E00014224100141414141400412214080201B0
:1003F000510906324979413E7E1111117E7F4949EA
:1004000049363E414141227F4141221C7F494949B1
:10041000417F090909013E4149497A7F0808087F5F
:1004200000417F41002040413F017F081422417F6D
:10043000404040407F020C027F7F0408107F3E4115
:1004400041413E7F090909063E4151215E7F09195C
:100450002946464949493101017F01013F40404059
:100460003F1F2040201F3F4038403F631408146363
:1004700007087008076151494543007F4141000268
:10048000040810200041417F0004020102044040A2
:10049000404040000102040020545454787F4844F6
:1004A00044383844444420384444487F38545454F1
:1004B00018087E0901020C5252523E7F080404784B
:1004C00000447D40002040443D007F10284400004F
:1004D000417F40007C041804787C08040478384488
:1004E0004444387C14141408081414187C7C080440
:1004F00004084854545420043F4440203C404020C9
:100500007C1C2040201C3C4030403C4428102844A7
:100510000C5050503C4464544C4400083641000098
:10052000007F0000004136080010080810087846D7
:100530004146780011241FBECFEFDAE0DEBFCDBF09
:1005400011E0A0E0B1E0E6E1F1E502C005900D9216
:10055000A23BB107D9F724E0A2EBB1E001C01D92A4
:10056000A632B207E1F70E9444170C9489280C9434
:100570000000FC0180819181860F971FBA010E94C3
:100580008125918380830895BF92CF92DF92EF926D
:10059000FF920F931F93CF93DF93CDB7DEB7C45570
:1005A000D1090FB6F894DEBF0FBECDBF082FE62EDF
:1005B000B22E5F934F938BE391E09F938F931F92A3
:1005C00084E58F93CE0101966C019F938F930E94D7
:1005D0008E270E2C000CFF08002E000C110B21E0C2
:1005E0004EE351E0B701C8010E94F81D2B2DA60172
:1005F000B701C8010E94F81D0FB6F894DEBF0FBE08
:10060000CDBFCC5ADF4F0FB6F894DEBF0FBECDBFC3
:10061000DF91CF911F910F91FF90EF90DF90CF90DE
:10062000BF900895CF93DF93CDB7DEB7E2970FB6B3
:10063000F894DEBF0FBECDBF9E01235C3F4F4BAD94
:100640005CAD62E370E0CE0101960E94BE2721E01E
:10065000AE014F5F5F4F69AD7AAD8FA998AD0E9433
:10066000F81DE2960FB6F894DEBF0FBECDBFDF9146
:10067000CF9108956A3098F050E070E020E330E0C8
:10068000241B350B6217730754F4682F70E024E5C0
:1006900030E0241B350B81E0621773070CF080E01B
:1006A00008958F929F92AF92BF92CF92DF92EF9276
:1006B000FF920F931F93CF93DF936C01EB01DC014B
:1006C0001296ED90FC901397C7010A9726E230E04E
:1006D000B9010E948125FC013A960A811B81C8015B
:1006E0000A97B9010E9481259C01265F3F4FD601E0
:1006F0008D909C90888199818815990524F0CC244F
:10070000C394D12C03C0CC24CA94DC2C54E5A52E70
:10071000B12CB5010E948125EC01C401B5010E94F4
:100720008125C81BD90BCC9DC001CD9D900DDC9DB2
:10073000900D11240E151F051CF0A1E0B0E002C0C1
:10074000AFEFBFEFB9016E1B7F0B6A9F90016B9FEC
:10075000300D7A9F300D1124483731F0493719F0A8
:10076000820F931F01C0C901DF91CF911F910F919B
:10077000FF90EF90DF90CF90BF90AF909F908F90C1
:1007800008952F923F924F925F926F927F928F9235
:100790009F92AF92BF92CF92DF92EF92FF920F9310
:1007A0001F93CF93DF93CDB7DEB7C557D1090FB6EF
:1007B000F894DEBF0FBECDBFE0969FAF8EAFE0973F
:1007C000FB01008111814280538064807580268006
:1007D0003780FE013196CE018F599F4FDF01A81758
:1007E000B90749F011961C921E9213961C921E9204
:1007F00012971496F4CF06151705D1F5C80164E5D4
:1008000070E00E9481256C01920101E010E066E237
:10081000E62EF12CC8010197A4969FAF8EAFA49746
:1008200042145304A4F4221633060CF4A5C1D18259
:10083000C082C9010A97B7010E9481250A96938355
:1008400082832F5F3F4F0F5F1F4F3496E3CF2215F8
:1008500033050CF491C1D182C082C9010A97B70156
:100860000E9481250A969383828321503109EBCF20
:1008700042145304E1F5C2010A9766E270E00E9457
:1008800081255C01AAE0AA0EB11C9801EE24E39434
:10089000F12C54E5C52ED12CC7010197A4969FAF2A
:1008A0008EAFA497061517059CF4621673060CF418
:1008B00063C1C901B6010E94812591838083B382FF
:1008C000A2822F5F3F4FBFEFEB1AFB0A3496E4CFB3
:1008D000261537050CF450C1C901B6010E948125C7
:1008E00091838083B382A28221503109ECCF6016BC
:1008F000710654F4942D852D2101292E382E902F28
:10090000812F8301692E782EB301601B710B072E96
:10091000000C880B990B0E945523AE966CAF7DAFEF
:100920008EAF9FAFAE97B10164197509072E000C09
:10093000880B990B0E9455234B015C01AE962CADA0
:100940003DAD4EAD5FADAE970E94AB22AA966CAFA7
:100950007DAF8EAF9FAFAA9720E030E0A9010E9443
:10096000C32487FF0DC0AA968CAD9DADAEADBFADC3
:10097000AA97B058AA968CAF9DAFAEAFBFAFAA975B
:10098000C12CD12C7601A4961FAE1EAEA49720E0F8
:1009900030E0A901AE966CAD7DAD8EAD9FADAE974A
:1009A0000E94C32418160CF0E3C0601671060CF404
:1009B000E3C0C80164E570E00E948125E2969FAF24
:1009C0008EAFE297A4968EAD9FADA497880F991F26
:1009D000880F991FA1E0B0E0AC0FBD1FA80FB91F91
:1009E000A696BFAFAEAFA697E296EEADFFADE2978B
:1009F000ED93FC93C2010A9766E270E00E948125A4
:100A00000A96A696AEADBFADA69713969C938E930D
:100A10001297A496EEADFFADA4973196A496FFAFC2
:100A2000EEAFA497AA962CAD3DAD4EAD5FADAA97A3
:100A3000C701B6010E9406226B017C0120E030E074
:100A400040E05FE3C701B6010E94C32487FF11C0E5
:100A500020E030E0A901AE966CAD7DAD8EAD9FADCE
:100A6000AE970E94C32418160CF07FC00F5F1F4F73
:100A70008ECF20E030E0A901C501B4010E94C3245B
:100A800018160CF06DC02414350414F3E296EEAD84
:100A9000FFADE297A696AEADBFADA6971596FC93B7
:100AA000EE931497C2010A9766E270E00E948125D6
:100AB0000A96A696AEADBFADA69717969C938E9359
:100AC0001697A496EEADFFADA4973196A496FFAF0E
:100AD000EEAFA49721E030E0E4963FAF2EAFE4976D
:100AE00020E030E0A901C501B4010E94C32418161A
:100AF00024F0E4961FAE1EAEE49781E090E0E69607
:100B00009FAF8EAFE69720E030E0A901C501B401A8
:100B10000E94A12287FD04C0E6961FAE1EAEE69796
:100B2000E4968EAD9FADE497E696AEADBFADE69789
:100B30008A1B9B0B480E591E20E030E040E85FE323
:100B4000C701B6010E9405226B017C01A696EEAD9D
:100B5000FFADA6973496A696FFAFEEAFA6976ECFE1
:100B6000421453040CF092CF73CF015011090FCFF0
:100B7000061517050CF01DCFA396FFADA397A296FF
:100B8000FFAFA29781E6FE013196E096AEADBFAD14
:100B9000E09701900D928A95E1F7E0968EAD9FADBA
:100BA000E097CB58DF4F0FB6F894DEBF0FBECDBF36
:100BB000DF91CF911F910F91FF90EF90DF90CF9039
:100BC000BF90AF909F908F907F906F905F904F906D
:100BD0003F902F900895EF92FF920F931F93CF9322
:100BE000DF93CDB7DEB7C556D1090FB6F894DEBF97
:100BF0000FBECDBFA6964CAF5DAF6EAF7FAFA697D1
:100C00008C017C018EE4E80EF11CF80180858823BC
:100C1000E9F141E6B801CE018E599F4F0E94510380
:100C20000C9758F041E6B8016C5F7F4FCE018E59AA
:100C30009F4F0E9451030C9748F5B801CE010196D1
:100C40000E94C103A2968FADA29790E0A4964EADEC
:100C50005FADA497A6966EAD7FADA697FE013196C7
:100C600020E030E0281739078CF4A081B181A41767
:100C7000B50741F4A281B381A617B70719F481E043
:100C800090E00CC02F5F3F4F3496ECCF035F1F4FB7
:100C90000E151F0509F0B9CF80E090E0CB59DF4F6A
:100CA0000FB6F894DEBF0FBECDBFDF91CF911F917D
:100CB0000F91FF90EF9008952F923F924F925F9285
:100CC0006F927F928F929F92AF92BF92CF92DF925C
:100CD000EF92FF920F931F93CF93DF93CDB7DEB7C1
:100CE0002E970FB6F894DEBF0FBECDBFF90121E0FD
:100CF000E432F20709F495C040805180628023817C
:100D000020FB772470F821FF8FC025E030E0FC87BE
:100D1000EB871B019E878D8781E090E0BC01621B01
:100D2000730B7A8369836A01C61AD70ACA010197CD
:100D300098878F83A12CB12C812C912CF1013197B4
:100D4000FA87E987710189819A81E81AF90A40FED8
:100D50003AC06D857E85672B71F40115110511F47C
:100D600040E004C00130110571F541E0B601C70152
:100D70000E941B1C28C00115110591F4FC82EB8216
:100D8000DE82CD824B815C816D817E818D859E85E9
:100D90000E94EB05892BB9F088248394912C13C011
:100DA0000130110581F4F501EE0FFF1FEE0FFF1F5B
:100DB0008D859E85E80FF91FF182E082D382C28281
:100DC0009FEFA91AB90A7694679457944794E1E083
:100DD000EE1AF10869857A856E157F0509F0B7CF9F
:100DE000EB85FC85838181FD07C032E076946794B2
:100DF000579447943A95D1F7F1E0CF1AD1086F8113
:100E000078856C157D0509F09DCFED85FE853097C1
:100E1000A9F00130110591F4EC59FF4FB182A08285
:100E20000DC0812C912C0AC026E0769467945794CB
:100E300047942A95D1F723E030E069CFC4012E967C
:100E40000FB6F894DEBF0FBECDBFDF91CF911F91DB
:100E50000F91FF90EF90DF90CF90BF90AF909F9059
:100E60008F907F906F905F904F903F902F9008955C
:100E7000AF92BF92CF92DF92EF92FF920F931F93A8
:100E8000CF93DF93FC016B01EA01DB0113968C9198
:100E900081FD02C043E001C045E0E280A380F08014
:100EA000B1809E016E2D8F2D0E943A03282F88233A
:100EB00071F000E010E096014E2D5A2D6F2D7B2D24
:100EC000CE010E945C0621E0892B09F020E0822FF0
:100ED000DF91CF911F910F91FF90EF90DF90CF9016
:100EE000BF90AF900895CF92DF92EF92FF920F9351
:100EF0001F93CF93DF93FC01EC59FF4F00811181C9
:100F0000FC0120E030E0EB01CC59DF4F2017310726
:100F100011F148815981DB0180E090E08417950749
:100F2000A1F0C080D180ED90FC901197CE14DF0429
:100F300049F4C280D3801296ED90FC901397CE14A2
:100F4000DF0439F001961496E9CF2F5F3F4F3496B6
:100F5000DDCF81E001C080E0DF91CF911F910F9143
:100F6000FF90EF90DF90CF9008950F931F93CF9352
:100F7000DF93CDB7DEB7C656D1090FB6F894DEBF02
:100F80000FBECDBFFE01319626E6DF011D922A95E8
:100F9000E9F7DC010D911D912D913C9109831A8394
:100FA0002B833C8381E090E0A7969FAF8EAFA797FD
:100FB000CF010E947307CA59DF4F0FB6F894DEBF06
:100FC0000FBECDBFDF91CF911F910F910895EF928A
:100FD000FF920F931F93CF93DF93CDB7DEB7CC5C17
:100FE000D1090FB6F894DEBF0FBECDBF8C017B01D7
:100FF0006F5F7F4F41E601960E9451030B9770F59A
:10100000F8019081892F817090FF29C0F7019081AC
:10101000892F817090FF23C0F8012581368143819B
:1010200054816181728101E010E0CE0189599F4FA6
:101030000E945C06F70125813681438154816181DC
:101040007281CE0101960E945C06BE016F5F7F4FE8
:10105000CE0189599F4F0E94730701C080E0C4539D
:10106000DF4F0FB6F894DEBF0FBECDBFDF91CF913B
:101070001F910F91FF90EF900895EF92FF920F93C1
:101080001F93CF93DF93CDB7DEB7CC5CD1090FB6FA
:10109000F894DEBF0FBECDBF8C017B0141E60E94FC
:1010A00051030B9710F5F80124813581428153815A
:1010B0006081718101E010E0CE0189599F4F0E944B
:1010C0005C06F70124813581428153816081718101
:1010D000CE0101960E945C06BE016F5F7F4FCE017C
:1010E00089599F4F0E94730701C080E0C453DF4FAE
:1010F0000FB6F894DEBF0FBECDBFDF91CF911F9129
:101100000F91FF90EF900895EF92FF920F931F932E
:10111000CF93DF93CDB7DEB7CC5CD1090FB6F8948F
:10112000DEBF0FBECDBF8C01FB019081892F817086
:1011300090FF2CC07B016F5F7F4F41E6C8010E948A
:1011400051030B9710F5F8012481358142815381B9
:101150006081718101E010E0CE0189599F4F0E94AA
:101160005C06F7012581368143815481618172815A
:10117000CE0101960E945C06BE016F5F7F4FCE01DB
:1011800089599F4F0E94730701C080E0C453DF4F0D
:101190000FB6F894DEBF0FBECDBFDF91CF911F9188
:1011A0000F91FF90EF900895CF92DF92EF92FF9210
:1011B0000F931F93CF93DF937C01EB018B01025BB5
:1011C0001F4F6B0181E7C80ED11C81E090E00C1528
:1011D0001D05D1F0892B19F480E090E012C0B80110
:1011E0006D5D7F4FC7010E94E7078111F5CFB80100
:1011F000C7010E94E70731E020E0811130E0832F32
:10120000922F095F1F4FE3CF009751F0BE01685046
:101210007F4FC7010E94E70731E0811130E0832F43
:10122000DF91CF911F910F91FF90EF90DF90CF90C2
:1012300008952098219827985098519886988598D5
:10124000229A239A0895E1E6F0E080E8808381E025
:1012500080838FE30E943F1E0E946F1E85B5877FAB
:1012600085BD85B5846085BD85B58D7F85BD85B51A
:101270008E7F85BDEEE6F0E0808181608083E1E8CD
:10128000F0E08081877F808380818F7E8083808172
:101290008B7F808380818D7F80838081816080834C
:1012A000EFE6F0E08081816080837894479A0C9427
:1012B0001909FC01DC01A95DBD4F9C91990F292FF3
:1012C0002E739C91907C922B9C938C91982F9F7164
:1012D0008C91807C892B8C93E730F10508F06BC0F2
:1012E000EA5AFF4F0C94B725809127029FB195FBD6
:1012F000992790F98E73982B80912702807C892BF7
:101300008093270258C0809128029FB196FB9927AD
:1013100090F98E73982B80912802807C892B809382
:10132000280249C02091290299B196959170822F87
:101330008E73982B80912902807C892B80932902BF
:101340003AC090912A0223B19E73822F881F88276A
:10135000881F982B80912A02807C892B80932A02F7
:101360002AC020912B0293B196959170822F8E7393
:10137000982B80912B02807C892B80932B021BC0A1
:1013800090912C0229B19E73822F8170982B8091AD
:101390002C02807C892B80932C020DC090912D0211
:1013A00023B19E73822F8170982B80912D02807CB7
:1013B000892B80932D028C918F738F3119F48C912E
:1013C00080648C938C918F7319F48C918F7B8C93A8
:1013D000089580E090E0FC01E95DFD4F208126FD4D
:1013E00003C020812F77208301968730910599F7DC
:1013F00008951F920F920FB60F9211242F933F93CF
:101400004F935F936F937F938F939F93AF93BF930C
:10141000CF93DF93EF93FF93C0E0D0E0CE010E9423
:1014200059092196C730D105C9F7FF91EF91DF9196
:10143000CF91BF91AF919F918F917F916F915F916C
:101440004F913F912F910F900FBE0F901F901895C5
:101450001F920F920FB60F9211242F938F939F9389
:101460008091B301982F991F9927991F8091B401FA
:101470008F73880F892B8F5F8F779091B30180FBDB
:1014800097F99093B30186959091B401907C892B44
:101490008093B4018091B40180688093B4018091FD
:1014A000B301982F991F9927991F8091B4018F73C9
:1014B000880F892B8A3731F58091B2012091B301D1
:1014C000922F9F7701969F778093B2019F778091AB
:1014D000B3018078892B8093B3018FE794E0019763
:1014E000F1F700C000008091B3018F778093B301C2
:1014F0008091B401807C8093B4018091B4018064B8
:101500008093B4019F918F912F910F900FBE0F90F8
:101510001F901895CF93DF93EC010E94542668E644
:1015200071E00E948125BC01990F880B990B0E94E4
:1015300055236093100170931101809312019093D1
:1015400013010E94542664E070E00E948125BC01D2
:101550006D5F7F4F072E000C880B990B0E9455235F
:101560006F83788789879A87DF91CF910895CF928B
:10157000DF92EF92FF920F931F93CF93DF9300D0F0
:1015800000D0CDB7DEB769837A838B839C83342FF9
:101590006801A701311102C0222389F0F601808180
:1015A0009181830F911D37FD9A959A83898382815A
:1015B0009381820F911D27FD9A959C838B83F60161
:1015C00064817581CE0101960E9438078823B9F0A5
:1015D000F60124813581428153816081718100E06F
:1015E00010E080E090E00E945C0689819A81AB81E6
:1015F000BC81F60180839183A283B38381E00F9045
:101600000F900F900F90DF91CF911F910F91FF904E
:10161000EF90DF90CF9008954F925F926F927F92FC
:101620008F929F92AF92BF92CF92DF92EF92FF92F2
:101630000F931F93CF93DF9300D000D0CDB7DEB7C9
:1016400069837A838B839C8349015A0167017801FE
:10165000CA01B9010E94A6220E943D252B013C012E
:10166000C501B4010E9461250E943D250E941D23F1
:10167000072E000C880B990B0E945523A701960199
:101680000E94D0244B015C012B813C81B901330FB6
:10169000880B990B0E9455239B01AC01C501B40135
:1016A0000E9406220E941D234B015C01C301B2016E
:1016B0000E941D23072E000C880B990B0E945523B6
:1016C000A70196010E94D0246B017C0129813A81F7
:1016D000B901330F880B990B0E9455239B01AC0174
:1016E000C701B6010E9406220E941D236B017C01E6
:1016F000B601C4010F900F900F900F90DF91CF9122
:101700001F910F91FF90EF90DF90CF90BF90AF901F
:101710009F908F907F906F905F904F900895EF9281
:10172000FF920F931F93CF93DF93DC01EA01EB81CC
:10173000FC81EA3010F480E028C0FF27BF97DCF777
:1017400049815A81552743355105ACF7C9018B01B1
:101750007D0149815A816B817C810E94EB05892B37
:1017600051F76B817C8140E089819A810E941B1C2A
:10177000A981BA81AE0DBF1DBA83A9836B817C811B
:10178000060F171F1C830B8381E0DF91CF911F9100
:101790000F91FF90EF9008958837D1F4DB011196F7
:1017A000ED91FC911297DA018D919C91E817F90760
:1017B00034F4AB0160E070E081E090E024C08E176B
:1017C0009F071CF5AB0160E070E08FEF9FEF1BC03F
:1017D0008937D9F4DB011396ED91FC911497DA0166
:1017E00012968D919C911397E817F90724F4AB0199
:1017F00061E070E006C08E179F073CF4AB016FEF0D
:101800007FEF80E090E00C948F0B80E008958F9242
:101810009F92BF92CF92DF92EF92FF920F931F930E
:10182000CF93DF9300D000D0CDB7DEB76C018091AD
:101830000A0190910B0101969A83898380910C0192
:1018400090910D0101969C838B8386010B561F4F4F
:10185000E12CF12C85E0B82EBE9CF001BF9CF00D70
:101860001124EC0DFD1DEC56FF4F808180FF35C02B
:101870000E945426980121503109490180FF08C077
:1018800049E7B801CE0101960E945103892B79F4F2
:1018900048E7B801CE0101960E945103892B39F027
:1018A0009601AE014F5F5F4FB40188E706C0960115
:1018B000AE014F5F5F4FB40189E70E94CC0BBE9C25
:1018C000F001BF9CF00D1124EC0DFD1DEC56FF4FF7
:1018D000908180FB90F9908308C0F8016281738148
:1018E00040E0808191810E941B1CFFEFEF1AFF0AEC
:1018F0000B5F1F4F24E1E216F10409F0ADCF0F900A
:101900000F900F900F90DF91CF911F910F91FF904B
:10191000EF90DF90CF90BF909F908F90089521E03F
:101920008030920781F4FB01EF5FFE4F8081282F0A
:101930002F7730E0881F8827881F319690819F710C
:10194000990F892B16C08A509140B1F4FB01E150E8
:10195000FF4F2081922F969596959695319680818E
:10196000282F23702295220F207E292B30E0869588
:101970008695482F50E004C040E050E020E030E081
:10198000B901CA0108952F923F924F925F926F92D0
:101990007F928F929F92AF92BF92CF92DF92EF92FF
:1019A000FF920F931F93CF93DF9300D000D000D00E
:1019B000CDB7DEB77C016B010E948F0C2B013C017F
:1019C0001B017E826D82F7012481358100E010E0E9
:1019D000A301C6010E945C06892B29F55A8249821F
:1019E0007C826B82F70164817581A601CE0101962C
:1019F0000E9438078823B9F0F7012481358142819C
:101A000053816081718180E090E00E945C06898151
:101A10009A81AB81BC81F70180839183A283B383D8
:101A200001E010E002C000E010E0530143010115A5
:101A3000110509F0CEC02BE0821691040CF456C0BB
:101A40003A8229829C828B82F70164817581A6018A
:101A5000CE0101960E9438078823C1F0F701248146
:101A60003581428153816081718100E010E080E026
:101A700090E00E945C0689819A81AB81BC81F7016C
:101A800080839183A283B38301E010E0F1E08F1A99
:101A90009108CDCF3A822982BC82AB82F701648162
:101AA0007581A601CE0101960E943807882319F19D
:101AB000F70124813581428153816081718100E089
:101AC00010E080E090E00E945C0689819A81AB8101
:101AD000BC81F70180839183A283B38381E090E08E
:101AE000FFEFAF1ABF0A892B09F073C020E3A216DB
:101AF000B10484F203C080E090E0F2CF520124E50B
:101B0000421651040CF05EC05A8249828D819E813A
:101B10009C838B83F70164817581A601CE010196B8
:101B20000E9438078823C9F0F7012481358142815A
:101B300053816081718100E010E080E090E00E94BC
:101B40005C0689819A81AB81BC81F7018083918396
:101B5000A283B38381E090E002C080E090E0FFEFD9
:101B60004F1A5F0A892B59F234C0BA82A9828D813B
:101B70009E819C838B83F70164817581A601CE01D0
:101B800001960E943807882309F1F70124813581E5
:101B9000428153816081718100E010E080E090E03B
:101BA0000E945C0689819A81AB81BC81F7018083A8
:101BB0009183A283B38381E090E0F1E0AF1AB10892
:101BC000892B39F41A141B0484F203C080E090E0DE
:101BD000F4CF26960FB6F894DEBF0FBECDBFDF91CF
:101BE000CF911F910F91FF90EF90DF90CF90BF901A
:101BF000AF909F908F907F906F905F904F903F90AD
:101C00002F900895AF92BF92CF92DF92EF92FF9202
:101C10000F931F93CF93DF9300D000D0CDB7DEB7E3
:101C20006C015B0120911001309111014091120172
:101C30005091130160910A0170910B0180910C0188
:101C400090910D01E12CF12C00E81FE30E940C0B98
:101C500069837A838B839C8360910E0170910F015D
:101C6000A601CE0101960E943807811104C0C5016A
:101C70000E948A0AF1CF20910E0130910F0140910C
:101C80000C0150910D0160910A0170910B0100E06F
:101C900010E080E090E00E945C0689819A81AB812F
:101CA000BC8180930A0190930B01A0930C01B09327
:101CB0000D010F900F900F900F90DF91CF911F911A
:101CC0000F91FF90EF90DF90CF90BF90AF9008956D
:101CD0002F923F924F925F926F927F928F929F923C
:101CE000AF92BF92CF92DF92EF92FF920F931F932A
:101CF000CF93DF93CDB7DEB7C156D1090FB6F894B5
:101D0000DEBF0FBECDBF3C012B016C01812C912C9D
:101D100084E5282E312CD60118968C9118978823AB
:101D200009F48DC08D919C9111971496ED91FC91C1
:101D3000159716962D913C911797009759F012968A
:101D40004D915C911397452B29F0309719F021158F
:101D50003105B1F4B1010E948125D6018D939C9388
:101D6000CF01B1010E948125F60195838483C901C9
:101D70000A9766E270E00E9481250A969383828327
:101D8000B601CE0101960E94C103CE0101965C010D
:101D900000E010E0A2968FADA29790E00817190717
:101DA0009CF4D50112966D917C9113976A30710560
:101DB0002CF040E08D919C910E941B1C0F5F1F4FE7
:101DC000B4E0AB0EB11CE6CFF201E380F4800581F4
:101DD0001681FDE0F89D5001F99DB00C1124A60C70
:101DE000B71CD60119962D913D914D915C911C9790
:101DF000F50160817181828193810E940C0BD50174
:101E00006D937D938D939C931397F201E380F480FF
:101E100005811681D60119962D913D914D915C91C8
:101E20001C97F50164817581868197810E940C0B56
:101E3000D50114966D937D938D939C931797BFEF67
:101E40008B1A9B0AEDE0CE0ED11CF6E08F169104A2
:101E500009F061CFCF59DF4F0FB6F894DEBF0FBE48
:101E6000CDBFDF91CF911F910F91FF90EF90DF9049
:101E7000CF90BF90AF909F908F907F906F905F902A
:101E80004F903F902F900895CF93DF93FB012181D6
:101E9000233040F140E050E065E0649F9001659F91
:101EA000300D1124280F391FF901EC56FF4F7081B6
:101EB00070FD13C0E901CB56DF4F80910001909176
:101EC0000101A0910201B091030188839983AA8343
:101ED000BB8380818160808305C04F5F5F4F443149
:101EE0005105D9F6DF91CF910895CF92DF92EF920D
:101EF000FF920F931F93CF93DF93EC016B018091BF
:101F00002B0286FF0FC060910A0170910B01809136
:101F10000C0190910D017E0100E011E020E04FEFF7
:101F20000E94B70A80912C0286FF0FC060910A01BF
:101F300070910B0180910C0190910D017E0100E0E8
:101F400011E020E041E00E94B70A8091290286FF5B
:101F50000FC060910A0170910B0180910C0190916A
:101F60000D017E0100E011E02FEF40E00E94B70A72
:101F700080912A0286FF0FC060910A0170910B01C7
:101F800080910C0190910D017E0100E011E021E0B3
:101F900040E00E94B70A80912D0286FF0DC080911B
:101FA0002D0287FD09C0B601CE010E94440F809129
:101FB0002D02806880932D028091280286FF0EC03A
:101FC0008091280287FD0AC0C150DF4F8B8180625B
:101FD0008B83809128028068809328028091270259
:101FE00086FF1DC08091270287FD19C08091B30133
:101FF000982F991F9927991F8091B4018F73880F8B
:10200000892B90E003975CF090916F0081E0892725
:1020100080936F0080912702806880932702DF9170
:10202000CF911F910F91FF90EF90DF90CF90089587
:102030005F926F927F928F929F92AF92BF92CF9258
:10204000DF92EF92FF920F931F93CF93DF93CDB761
:10205000DEB7C656D1090FB6F894DEBF0FBECDBFAE
:102060007C015B0160E071E08AE091E00E943D0844
:10207000882391F0B70180E091E00E94C30CB70182
:102080008AE091E00E94C30CF501828197E0980FED
:102090009770887F892B8283B70168507F4F80E0DB
:1020A00091E00E948408882331F0F701E150FF4F4E
:1020B0008381806283836701FEE4CF0ED11C812C73
:1020C000912C37018FEF680E711C97E0592EB601E5
:1020D00080E091E00E948408882369F1F501818104
:1020E0008F5F8183F3012081822F8770482F50E01A
:1020F000453051053CF48F5F982F9770822F887F71
:10210000892B8083589CF001599CF00D1124EE0D11
:10211000FF1DE25BFF4F80818E7F8083F60125816A
:102120003681438154816181728100E010E080E05A
:1021300090E00E945C06B6016D5D7F4F80E091E00B
:102140000E948408882309F1F501828197E0980FA5
:102150009770887F892B8283589CF001599CF00DE1
:102160001124EE0DFF1DEF58FF4F80818E7F80837D
:10217000F60120A531A546A157A164A175A100E0F3
:1021800010E080E090E00E945C06FFEF8F1A9F0A4B
:1021900087E0C80ED11C95E08916910409F097CF0D
:1021A00020910401309105014091020150910301F9
:1021B000609100017091010100E010E0C7010E94F0
:1021C0005C06892B29F0B70180E091E00E94C30CE6
:1021D00020910E0130910F0140910C0150910D01A1
:1021E00060910A0170910B0101E010E0CE010196AF
:1021F0000E945C063701E5E96E0E711C812C912C62
:1022000015E0189D6001199DD00C1124CE0CDF1C27
:10221000F4E9CF0ED11CF601808180FF15C0BE010C
:102220006F5F7F4FC3010E94B507882369F0B70134
:102230008AE091E00E94C30CF60180818E7F80834A
:10224000F50181818F5F8183FFEF8F1A9F0A85E0FF
:10225000680E711C94E18916910499F6C12CD12C59
:10226000A7968EAD9FADA797C816D906F0F4F601D4
:10227000EE0FFF1FEE0FFF1F81E090E08C0F9D1F00
:10228000E80FF91F4081518162817381C7010E946B
:10229000EB05892B31F0B7018AE091E00E94C30C75
:1022A00004C09FEFC91AD90ADBCFCA59DF4F0FB656
:1022B000F894DEBF0FBECDBFDF91CF911F910F917C
:1022C000FF90EF90DF90CF90BF90AF909F908F9056
:1022D0007F906F905F900895CF92DF92EF92FF9280
:1022E0000E94131C21E041E451E060E070E080E0D6
:1022F00090E00E94F81D21E047E451E06AE070E0C0
:1023000080E090E00E94F81D21E041E551E064E1A9
:1023100070E080E090E00E94F81D0E94001C80ECBC
:10232000C82E8EE3D82E89EDE82E85E0F82E809118
:10233000270286FD08C00E94E9098FEFC81AD80A53
:10234000E80AF80AF4CF8091270287FDF4CF80686D
:1023500080932702C601FF90EF90DF90CF900C94FE
:1023600059260E94131C21E044E551E060E070E032
:1023700080E090E00E94F81D21E04FE551E06AE026
:1023800070E080E090E00E94F81D21E049E651E015
:1023900064E170E080E090E00E94F81D0E94001C63
:1023A0008091270286FD03C00E94E909F9CF809140
:1023B000270287FDF9CF8068809327020895CF9385
:1023C000DF93EB010E94131C21E045E751E060E040
:1023D00070E080E090E00E94F81D21E047E851E0C5
:1023E0006AE070E080E090E00E94F81D0E94001C0E
:1023F0008091270286FD03C00E94E909F9CF8091F0
:10240000270287FDF9CF0E946C1781369105A1F351
:10241000809127028068809327028B8581608B875B
:10242000DF91CF910895CF93DF93CDB7DEB72E978D
:102430000FB6F894DEBF0FBECDBFFE01389627E081
:10244000DF011D922A95E9F79E878D8787E0DE01DF
:10245000119601900D928A95E1F729813A814B817D
:102460005C816D817E818F8190E02E960FB6F8940D
:10247000DEBF0FBECDBFDF91CF910895BF92CF9247
:10248000DF92EF92FF920F931F93CF93DF938C0114
:10249000EB01FB01E150FF4F83818F7D83838081BE
:1024A000887F808318861D8A1AA21FA61CAEDB01B6
:1024B000A75BBF4F1C92D8018C918F77F82EB1E0AB
:1024C0008B1349C080E882838381807E856083830B
:1024D00080818770886780838EE98183C8010E942C
:1024E0008A0A82E190E0998388838FE090E09B8361
:1024F0008A838DE090E09D838C8389E190E09F83C7
:102500008E83F8869E878D8723E230E0388B2F8775
:102510009A8B898B2DE230E03C8B2B8BFD8A3B8F95
:102520002A8F2AE030E03D8F2C8F4CE350E05F8F04
:102530004E8F39A328A3FAA22AE330E038A72FA3AD
:102540009AA789A788E490E09CA78BA78EE190E0EA
:102550009EA78DA7FFA6F80180818F77823031F486
:102560000E945017B801CE010E94DF118E017E013A
:10257000FEE4EF0EF11CCC24CA94DC2C0E151F05D2
:1025800059F1D80116966D917C91179712968D91FD
:102590009C911397681B790BC6010E948125CB0182
:1025A000F8012481358140815181B901641B750B8B
:1025B0000E948125072E000C880B990B0E94552341
:1025C0000E947222D80119966D937D938D939C93EE
:1025D0001C97035F1F4FD2CFBE0180E091E00E94A5
:1025E000C30CBE018AE091E00E94C30CC12CD12C27
:1025F00087E0B82EBC9C8001BD9C100D11240C0FEF
:102600001D1F7801BEE4EB0EF11C80E291E00E94F8
:102610001312F701208331834283538364837583CC
:1026200086830F581F4F88E191E00E941312D80152
:102630002C9311963C93119712964C9312971396E4
:102640005C93139714966C93149715967C93159737
:1026500016968C93BFEFCB1ADB0AE5E0CE16D104B9
:1026600049F680E090E035E0389FF001399FF00DA9
:102670001124EC0FFD1FEC56FF4F20812E7F20838D
:1026800001968431910581F7C850DF4F8CE191E0CC
:102690000E941312288339834A835B836C837D8372
:1026A0008E83DF91CF911F910F91FF90EF90DF907C
:1026B000CF90BF900C94131C9F92AF92BF92CF9279
:1026C000DF92EF92FF920F931F93CF93DF9300D08F
:1026D00000D0CDB7DEB77C018B01DB011596ED9103
:1026E000FC911697838181FD03C033E0932E02C0D5
:1026F00025E0922E0E94542664E570E00E94812518
:102700009A8389830E94542666E270E00E948125A4
:102710000A969C838B8384E5C82ED12C96E2A92E41
:10272000B12C9701492D6B8189810E943A03811157
:1027300010C00E945426B6010E9481259A83898385
:102740000E945426B5010E9481250A969C838B83A2
:10275000E8CFF80165817681A701CE0101960E943C
:102760003807882331F3B701C8010E94D4088823B1
:1027700001F341E66AE071E0CE0101960E94510347
:102780000A97B8F289819A81AB81BC81F801818373
:102790009283A383B4838081816080830F900F90A4
:1027A0000F900F90DF91CF911F910F91FF90EF90BD
:1027B000DF90CF90BF90AF909F90089520E030E0E1
:1027C00047E0429FB001439F700D1124FC01E60FCA
:1027D000F71FE25BFF4F508150FD06C0625B7F4FE9
:1027E000680F791F0C945C132F5F3F4F2530310524
:1027F00041F70895EF92FF920F931F93CF93DF93CA
:10280000CDB7DEB727970FB6F894DEBF0FBECDBFAA
:1028100020E030E047E0429F8001439F100D1124EB
:10282000080F191F780151E7E50EF11CF7015081DF
:1028300050FD2EC0BC0189818160898380910A018D
:1028400090910B01A0910C01B0910D018A839B83A3
:10285000AC83BD8388E191E09F838E83CE01019696
:102860000E94D4088823D1F0F801EE58FF4F8091E0
:102870000A0190910B01A0910C01B0910D01808390
:102880009183A283B383F70180818160808306C036
:102890002F5F3F4F2530310509F0BDCF27960FB68A
:1028A000F894DEBF0FBECDBFDF91CF911F910F9186
:1028B000FF90EF900895EF92FF920F931F93CF93A5
:1028C000DF937C018B018091B40186FF2CC0FB015A
:1028D0002281822F86958695869549F0815E982F74
:1028E000990F990F990F822F8770892B828380917E
:1028F000B2019091B30180FD03C0C7010E94DE13B5
:102900008091B2019091B3019F7763E070E00E94E3
:102910008125892B19F4C7010E94FA138091B40113
:102920008F7B8093B401F8016781708581859285E2
:1029300020E030E040E450E40E94D0240E94902344
:102940002091B40127FF1FC0C091B3012C2F221F7B
:102950002227221FC091B401CF73CC0FC22BD0E02D
:102960000E941D23AB01BC01CE01BA010E9481254A
:10297000892B21F4B801C7010E94020E8091B40195
:102980008F778093B401DF91CF911F910F91FF90CA
:10299000EF900895EF92FF920F931F93CF93DF93E1
:1029A000FB0102EB11E0D8018C91C3EBD1E09881DF
:1029B0009F772CE3E22EF12CB7010E9481257F93B3
:1029C0006F9381811F928F93828187701F928F9363
:1029D00080818F771F928F9388E991E09F938F93E7
:1029E0001F921F921F921F920E941203F801808172
:1029F00098819F77B7010E9481259F938F938DEADD
:102A000091E09F938F931F921F921F9285E48F9363
:102A10000E9412038DB79EB746960FB6F8949EBFDC
:102A20000FBE8DBFDF91CF911F910F91FF90EF905F
:102A300008958F929F92AF92BF92CF92DF92EF92C2
:102A4000FF920F931F93CF93DF93CDB7DEB7C1569D
:102A5000D1090FB6F894DEBF0FBECDBF4B018C017C
:102A60005C018EE4A80EB11C0A151B0579F1F80172
:102A70008085882341F1B801CE0101960E94C103EF
:102A8000CE0101967C01C12CD12CA2968FADA297CC
:102A900090E0C816D906BCF4F701628173816A30F0
:102AA000710554F041E08114910409F440E0F7010C
:102AB000808191810E941B1CFFEFCF1ADF0A84E006
:102AC000E80EF11CE2CF035F1F4FCECFCF59DF4F8F
:102AD0000FB6F894DEBF0FBECDBFDF91CF911F912F
:102AE0000F91FF90EF90DF90CF90BF90AF909F90AD
:102AF0008F900895BF92CF92DF92EF92FF920F9343
:102B00001F93CF93DF93EC012091040130910501D5
:102B10004091020150910301609100017091010107
:102B200001E010E080E090E00E945C0620910E0140
:102B300030910F0140910C0150910D0160910A01FB
:102B400070910B0180E090E00E945C067E018FE4B2
:102B5000E80EF11CC12CD12C87E0B82EBC9CF001F2
:102B6000BD9CF00D1124EC0FFD1FE25BFF4F808137
:102B700080FF0DC0F701248135814281538160813E
:102B8000718101E010E080E090E00E945C06BC9C56
:102B9000F001BD9CF00D1124EC0FFD1FEF58FF4F0D
:102BA000808180FF0DC0F70127A130A545A156A166
:102BB00063A174A101E010E080E090E00E945C0657
:102BC000FFEFCF1ADF0A87E0E80EF11CE5E0CE1632
:102BD000D10421F6FE01E850FF4F808180FF0FC035
:102BE00035962081318132974081518132976081C1
:102BF000718101E010E080E090E00E945C066E01CF
:102C0000F5E9CF0ED11CE12CF12C15E01E9DF00151
:102C10001F9DF00D1124EC0FFD1FEC56FF4F80811E
:102C200080FF08C0F6016281738141E0808191815B
:102C30000E941B1CFFEFEF1AFF0A85E0C80ED11C93
:102C4000E4E1EE16F10411F7DF91CF911F910F919E
:102C5000FF90EF90DF90CF90BF9008950F931F9358
:102C6000CF93DF938C01EB010E94E909F801828187
:102C7000877021F483858160838756C080916F00BF
:102C800080FF0CC08091B2012091B301922F9F77F9
:102C9000892B21F0B801CE010E945B148091B5010F
:102CA0009091B601019662E070E00E9481259093B8
:102CB000B6018093B501892B39F480916F0080FFB4
:102CC00003C0CE010E94070CFE01E150FF4F80813E
:102CD000877090E0059754F0BE0168507F4FFB016C
:102CE000808180FD03C0CE010E945C13B801CE013B
:102CF0000E94750FB801CE010E941810B801CE01D4
:102D00000E94CA1461E070E0CE010E941915CE0144
:102D10000E947A15F801838580FD06C0DF91CF916E
:102D20001F910F910C94001CDF91CF911F910F9177
:102D30000895CF93DF93CDB7DEB7CF50D1400FB614
:102D4000F894DEBF0FBECDBFC15FDE4F8881CF508C
:102D5000D1408E7FC15FDE4F8883CF50D140CB5FA3
:102D6000DE4F1882C550D14080E090E0A0E8BFE37C
:102D7000C55FDE4F88839983AA83BB83CB50D14044
:102D800080E090E0A0E0B0E4C95FDE4F88839983E3
:102D9000AA83BB83C750D14085E0CA5FDE4F8883DA
:102DA000C650D1401092B2018091B30180788093D7
:102DB000B3018091B3018F778093B3018091B40107
:102DC000807C8093B4018091B4018F7B8093B401A7
:102DD0008091B4018F778093B40180916F008160FE
:102DE00080936F00CC5FDE4F8881C450D1408078E3
:102DF0008160CC5FDE4F8883C450D140C15FDE4F1D
:102E00008881CF50D14080FD2AC0BE016F5F7F4FC7
:102E1000CE018C5F9E4F0E943E12C15FDE4F8881C3
:102E2000CF50D14080FD10C0CD5FDE4F8881C350B0
:102E3000D14085FD09C0BE016F5F7F4FCE018C5F21
:102E40009E4F0E942E16E9CFCC5FDE4F8881C45082
:102E5000D14091E0980F9F778078892BCACFCC5FC3
:102E6000DE4F8881C450D1408F7790E003976CF299
:102E70000E94B111C15FDE4F0FB6F894DEBF0FBEE6
:102E8000CDBFDF91CF9108950E9423090E946C115C
:102E90000E949916FDCF8091E80080FFFCCF089535
:102EA00081E08093D70080EA8093D80082E189BDD9
:102EB00009B400FEFDCF80E98093D8001092E000B5
:102EC0001092BA011092B7018CE08093E2007894DE
:102ED00008958091BA0108959FB7F8948091BA013E
:102EE000882369F083E08093E9002BE68091E80075
:102EF00085FD09C082FF03C02093E800F7CF9FBF84
:102F00008FEF9FEF08958091F1002091E80025FD5B
:102F100003C02BE62093E8009FBF90E008952FB7F1
:102F2000F8948091BA01811102C080E010C083E062
:102F30008093E9008091F200811109C09091E8002E
:102F400092FFF3CF95FDF1CF9BE69093E8002FBF62
:102F500008958091BA01882371F08FB7F89493E0B7
:102F60009093E9002BE69091E80095FF03C0209331
:102F7000E800F9CF8FBF08959091BA01992371F0BD
:102F80009FB7F89424E02093E9002091B801222310
:102F900049F02091E80025FD03C09FBF8FEF089501
:102FA0001092B8012091E400275E34E04091E800DF
:102FB00045FD12C09FBF9091E400291304C081E039
:102FC0008093B801EBCF9091BA01992339F39FB761
:102FD000F8943093E900EACF8093F1008091E80003
:102FE00085FD03C08AE38093E80085E08093B90102
:102FF0009FBF80E008959091BA019923D1F09FB7C7
:10300000F89424E02093E9002091E80025FD02C017
:103010009FBF0FC08093F1008091E80085FD03C041
:103020008AE38093E80085E08093B9019FBF80E048
:1030300008958FEF08950F931F93CF93DF93DC01D3
:10304000CB012091BA01222371F02FB7F89434E01C
:103050003093E9003091B801332349F03091E80012
:1030600035FD03C02FBF8FEF43C11092B801C4E0FC
:10307000D0E41AE305E0009709F439C13091E40087
:10308000375E4091E80045FD12C02FBF2091E4005B
:10309000321304C081E08093B801E5CF2091BA01DA
:1030A000222309F32FB7F894C093E900EACF3091B7
:1030B000F200ED2FE31B4E2F50E08417950708F424
:1030C000E82F8E1B91094E2F50E04134510508F036
:1030D00001C1FA01E35AFF4F0C94B7253C9130939C
:1030E000F10011963C913093F10011963C91309390
:1030F000F10011963C913093F10011963C91309380
:10310000F10011963C913093F10011963C9130936F
:10311000F10011963C913093F10011963C9130935F
:10312000F10011963C913093F10011963C9130934F
:10313000F10011963C913093F10011963C9130933F
:10314000F10011963C913093F10011963C9130932F
:10315000F10011963C913093F10011963C9130931F
:10316000F10011963C913093F10011963C9130930F
:10317000F10011963C913093F10011963C913093FF
:10318000F10011963C913093F10011963C913093EF
:10319000F10011963C913093F10011963C913093DF
:1031A000F10011963C913093F10011963C913093CF
:1031B000F10011963C913093F10011963C913093BF
:1031C000F10011963C913093F10011963C913093AF
:1031D000F10011963C913093F10011963C9130939F
:1031E000F10011963C913093F10011963C9130938F
:1031F000F10011963C913093F10011963C9130937F
:10320000F10011963C913093F10011963C9130936E
:10321000F10011963C913093F10011963C9130935E
:10322000F10011963C913093F10011963C9130934E
:10323000F10011963C913093F10011963C9130933E
:10324000F10011963C913093F10011963C9130932E
:10325000F10011963C913093F10011963C9130931E
:10326000F10011963C913093F10011963C9130930E
:10327000F10011963C913093F10011963C913093FE
:10328000F10011963C913093F10011963C913093EE
:10329000F10011963C913093F10011963C913093DE
:1032A000F10011963C913093F10011963C913093CE
:1032B000F10011963C913093F10011963C913093BE
:1032C000F10011963C913093F10011963C913093AE
:1032D000F10011963C913093F10011963091E80085
:1032E00035FF1093E8000093B9012FBFC4CE80E0F2
:1032F000DF91CF911F910F9108958FB7F89490911E
:10330000B901992341F094E09093E9009AE39093F6
:10331000E8001092B9018FBF08956091300170915B
:1033200031018091320190913301089580913401EF
:103330000895809135010895809136010895809116
:10334000B70108959FB7F8942091BA01222339F06C
:1033500022E02093E9002091E80025FD03C09FBFF3
:103360008FEF089521EA2093F10020E22093F100ED
:103370001092F1001092F1001092F1001092F10001
:1033800021E02093F1001092F1008093F1008AE394
:103390008093E8009FBF80E008951F920F920FB6C0
:1033A0000F9211248F939F938091E1001092E1007E
:1033B00083FF11C01092E90091E09093EB0010920E
:1033C000EC0092E19093ED0098E09093F000109261
:1033D000BA011092B70182FF13C08091BA0188230D
:1033E00079F08091B901882359F081508093B90117
:1033F000811106C084E08093E9008AE38093E800AD
:103400009F918F910F900FBE0F901F9018951F9254
:103410000F920FB60F921124FF920F931F932F93C9
:103420003F934F935F936F937F938F939F93AF934C
:10343000BF93CF93DF93EF93FF931092E9008091B6
:10344000E80083FF17C1F090F1008091F100009136
:10345000F1009091F10010E0192BC091F1009091D2
:10346000F100D0E0D92B2091F1006091F10092EFB2
:103470009093E800863009F049C08AE892E044EB76
:1034800052E0FC01A591B4910A171B07D9F4FC0185
:103490003296A591B491CA17DB07A1F4FC013496CA
:1034A00045915491FC013696849130E0362B2F3FA4
:1034B000310519F010F02FEF30E0281708F4822FB3
:1034C0003EEF0CC0079648175907D9F6D3C0490FED
:1034D000511D891B3093E8008823A9F09091E800E2
:1034E000292F2570D9F392FDC8C0982F813108F09B
:1034F00090E1FA01292F222351F364916093F100A6
:1035000021503196F8CF903149F3B7C0853049F456
:103510008EEF8093E8000E944B1700680093E30051
:10352000ACC0893059F5F110A5C00093BA011092D2
:10353000B7011092B9018EEF8093E80041E089E471
:1035400093E04093E9009C012F5F3F4FFC015491B1
:103550005093EB00552359F0F90124912093EC008E
:103560009C012D5F3F4F3196E491E093ED004F5F5A
:10357000453011F0C901E5CF8EE177C0883051F4B4
:10358000F0E8FF1277C00E944B178091BA01809338
:10359000F10049C0813281F481EAF8126BC00E94C7
:1035A0004B17E0E3F1E087E391E021912093F100F4
:1035B0008E179F07D1F737C08032A9F491E2F91234
:1035C00059C08091E80082FFFCCFE0E3F1E087E39F
:1035D00091E02091F10021938E179F07D1F78BEF97
:1035E0008093E80020C0823241F4E1E2FE1242C042
:1035F0000093B7010E944B1716C0811118C00E949A
:103600004B17F2E8FF120AC0C093E9008091EB006B
:1036100085FB882780F91092E90001C080E0809343
:10362000F1001092F1008EEF8093E80026C0982FF1
:103630009D7F9130F9F492E0F9121CC0012BD1F476
:10364000CF779FEF9C0F9430A8F49EEF9093E80003
:10365000C093E900833071F089E18093EB0081E051
:1036600090E001C0880FCA95EAF78093EA001092B3
:10367000EA0003C081E28093EB00FF91EF91DF91BC
:10368000CF91BF91AF919F918F917F916F915F91FA
:103690004F913F912F911F910F91FF900F900FBE6F
:1036A0000F901F9018959B01AC01F89460E079E0B1
:1036B0008DE390E00E949525DA01C9010197A109E7
:1036C000B109B695A795979587959093CD0080936E
:1036D000CC0082E08093C80088E98093C90086E02E
:1036E0008093CA001092FD011092FE011092BB015E
:1036F0001092BC01789408959091FE019F5F9832DA
:1037000008F090E02091FD019217E1F3E92FF0E03D
:10371000E150FE4F80839093FE0188EB8093C900B7
:1037200008959091BC018091BB019817D1F39091BD
:10373000BB019F5F903408F090E0E92FF0E0E35484
:10374000FE4F80819093BB0108958091BC019091C0
:10375000BB01891708F4805C891B08951F920F92A2
:103760000FB60F9211248F939F93EF93FF93909135
:10377000FE018091FD01981304C088E98093C9007F
:103780000FC08091FD018F5F883208F080E0E82F44
:10379000F0E0E150FE4F90819093CE008093FD01C8
:1037A000FF91EF919F918F910F900FBE0F901F90FF
:1037B00018951F920F920FB60F9211242F938F938B
:1037C0009F93EF93FF939091CE008091BC018F5F08
:1037D000803408F080E02091BB01821739F0E82F97
:1037E000F0E0E354FE4F90838093BC01FF91EF9192
:1037F0009F918F912F910F900FBE0F901F90189552
:10380000CF93DF9360E080E00E947C1ECEE2D2E0A6
:10381000699181E00E94211E84E0C632D807C1F779
:10382000DF91CF910895EEE2F2E0119284E0E6326A
:10383000F807D9F70895DC019B0184359105F8F468
:1038400020333105E0F4C90133E0959587953A9529
:10385000E1F734E5389FF001399FF00D1124EA0FAC
:10386000FB1FE25DFD4F3081277081E090E001C0D9
:10387000880F2A95EAF7452B19F0832B808308954A
:1038800080958323FBCF2F923F924F925F926F924E
:103890007F928F929F92AF92BF92CF92DF92EF92E0
:1038A000FF920F931F93CF93DF93CDB7DEB72C9783
:1038B0000FB6F894DEBF0FBECDBF8B879C877B0110
:1038C0006A0159012B853C8524173507A1F56B0149
:1038D00013C081E0C81AD1080FC0CA14DB0494F0E9
:1038E000A801B6018B859C850E941B1CEA14FB0471
:1038F00084F73FEFC31AD30AEA14FB0474F7AC143D
:10390000BD0474F72C960FB6F894DEBF0FBECDBF82
:10391000DF91CF911F910F91FF90EF90DF90CF90AB
:10392000BF90AF909F908F907F906F905F904F90DF
:103930003F902F9008956A157B0501F5AB84BC84F8
:1039400014C021E0A21AB10810C0AC14BD04D4F216
:10395000A801B701C5010E941B1CAB85BC85AC1535
:10396000BD057CF7BFEFAB1ABB0A8B859C858C1518
:103970009D055CF7CA14DB045CF7C4CFAB85BC853E
:103980004A175B0754F48F2D7501A62EB82E9B8520
:103990008C855C874B87C92ED82E36012B853C85BC
:1039A000621A730A45018E189F08C401092C000C85
:1039B000AA0BBB0B89839A83AB83BC83BC01CD016B
:1039C0000E9455231B012C01C301072C000CAA0BDC
:1039D000BB0B89839A83AB83BC83BC01CD010E945E
:1039E00055239B01AC0129823A824B825C8269811A
:1039F0007A818B819C810E94AB22462F572FBC017C
:103A00004D835E836F83788720E030E0A9016D816C
:103A10007E818F8198850E94C32487FF09C08D8194
:103A20009E81AF81B885B0588D839E83AF83B88760
:103A3000512C412C312C212C892D881F8827881F3F
:103A4000A82FB0E0BA87A987161417040CF068C035
:103A50002B853C85C216D3060CF454CFA801B701C0
:103A60008B859C850E941B1C2D813E814F81588532
:103A700059824A823B822C8269817A818B819C8126
:103A80000E940622562E472E382E292E20E030E0A6
:103A900040E05FE369837A838B839C8369817A81C9
:103AA0008B819C810E94C32487FD06C018141904D1
:103AB00064F4AE14BF0464F4161417045CF58B852B
:103AC0009C8501969C878B87BFCFEA14FB04A4F3E7
:103AD000A801B7018B859C850E941B1C81E090E0AA
:103AE0001814190414F090E080E029853A85821BAF
:103AF000930BE80EF91E20E030E040E85FE35982C6
:103B00004A823B822C8269817A818B819C810E94CE
:103B10000522B8CFAB85BC851197BC87AB8794CF06
:103B20008B859C858C159D050CF098CFEBCE4F9224
:103B30005F926F927F928F929F92AF92BF92CF923D
:103B4000DF92EF92FF920F931F93CF93DF933B018E
:103B500059014052550B65E0649F9001659F300DFF
:103B60001124A9014D5A5C4F7A01EC012C0155E05A
:103B7000450E511C88248394912CF701C490A11404
:103B8000B10409F4C09410E000E0D12CA401002E8F
:103B900002C0440F551F0A94E2F74C215D21002E0C
:103BA00002C0559547950A94E2F7B301600F711F63
:103BB000CE010E941B1C0F5F1F4F0830110531F70B
:103BC000FFEFEF1AFF0A2196C415D505B1F6DF9174
:103BD000CF911F910F91FF90EF90DF90CF90BF900A
:103BE000AF909F908F907F906F905F904F900895CF
:103BF000CF92DF92EF92FF920F931F93CF93DF93B9
:103C0000F62EE72E8A01D22EC32EC82FD0E0F8015F
:103C1000ED0FF11D4081411109C0DF91CF911F913E
:103C20000F91FF90EF90DF90CF9008952D2D3C2DB8
:103C30006F2D7E2D8C2F90E00E94971DCB5FDF5F54
:103C4000E6CF95B19F7D40E2849F90011124922B95
:103C500095B95F9887E090E070E08F989B01082EFF
:103C600002C0359527950A94E2F720FF06C02E9AE8
:103C70008F9A019790F75F9A08952E98F9CFCF9376
:103C8000C82F579A249A259A269A879A2C985F9A31
:103C90002C9A61E280E00E94211E6C2F606880E017
:103CA0000E94211E64E080E00E94211E63E180E00A
:103CB0000E94211E6CE080E00E94211E60E280E0F4
:103CC0000E94211E6CE080E00E94211E60E480E0E2
:103CD0000E94211E60E880E0CF910C94211ECF93BA
:103CE000DF93C8EFD1E060E081E00E94211E2197C0
:103CF000D1F7DF91CF910895CF93C82F606480E012
:103D00000E94211E6C2F606880E0CF910C94211ED0
:103D1000A0E1B0E0EEE8FEE10C94BD257C011B01C2
:103D20006A01FC0117821682838181FF44C39E01D0
:103D30002F5F3F4F3901F7019381F10193FD859189
:103D400093FF81911F01882309F431C3853239F42F
:103D500093FD859193FF81911F01853239F4B7015D
:103D600090E00E94522756016501E5CF10E0512CEA
:103D7000912CFFE1F915D8F08B3279F038F48032CC
:103D800079F08332A1F4F92DF0612EC08D3261F00B
:103D9000803369F4292D21602DC0392D3260932E96
:103DA000892D8460982E2AC0E92DE86015C097FC03
:103DB0002DC020ED280F2A3088F496FE06C03AE088
:103DC000139F200D1124122F19C08AE0589E200D38
:103DD0001124522EE92DE0629E2E10C08E3231F455
:103DE00096FCE5C2F92DF0649F2E08C08C3621F4B4
:103DF000292D2068922E02C0883641F4F10193FDEE
:103E0000859193FF81911F018111B3CF9BEB980F97
:103E1000933020F4992D9061805E07C09BE9980F44
:103E2000933008F066C1992D9F7E96FF16E09F7330
:103E3000992E853619F49064992E08C0863621F49F
:103E4000392F3068932E02C01111115097FE07C010
:103E50001C3350F444244394410E27E00BC0183027
:103E600038F027E017E005C027E09CE3492E02C0A8
:103E7000212F412C560184E0A80EB11CF60160816F
:103E8000718182819381042DA3010E9464266C01BB
:103E9000F981FC87F0FF02C0F3FF06C091FC06C069
:103EA00092FE06C000E205C00DE203C00BE201C0B5
:103EB00000E08C858C7019F001115AC29BC297FEEC
:103EC00010C04C0CFC85F4FF04C08A81813309F4D6
:103ED0004A94141474F528E0241578F588E0482EE7
:103EE0002CC096FC2AC0812F90E08C159D059CF07B
:103EF0003CEFC3163FEFD30674F0892D8068982EEF
:103F00000AC0E2E0F0E0EC0FFD1FE10FF11D80813F
:103F1000803319F411501111F4CF97FE0EC04424D0
:103F20004394410E812F90E0C816D9062CF41C1939
:103F300004C04424439401C010E097FE06C01C1442
:103F40001D0434F4C601019605C085E090E002C06E
:103F500081E090E001110196112331F0212F30E032
:103F60002F5F3F4F820F931F252D30E0821793075D
:103F700014F4581A01C0512C892D897049F4552028
:103F800039F0B70180E290E00E9452275A94F7CFAF
:103F9000002329F0B701802F90E00E94522793FC64
:103FA00009C0552039F0B70180E390E00E94522704
:103FB0005A94F7CF97FE4CC04601D7FE02C0812C21
:103FC000912CC60188199909F301E80FF91FFE87A2
:103FD000ED87960124193109388B2F87012F10E0C6
:103FE0001195019511093FEF8316930629F4B70146
:103FF0008EE290E00E945227C814D9044CF08F85BD
:1040000098898815990524F4ED85FE85818101C084
:1040100080E3F1E08F1A91082D853E852F5F3F4F99
:104020003E872D87801691062CF0B70190E00E9404
:104030005227D9CFC814D90441F49A81963320F479
:10404000953319F43C8534FF81E3B70190E04EC00D
:104050008A81813319F09C859F7E9C87B70190E00F
:104060000E945227111105C094FC18C085E690E00B
:1040700017C0B7018EE290E00E9452271E5F82E0D7
:1040800001E0080FF301E80FF11D8081B70190E016
:104090000E945227802F0113F3CFE6CF85E490E0F2
:1040A000B7010E945227D7FC06C0C114D10441F4C5
:1040B000EC85E4FF05C0D194C194D1088DE201C024
:1040C0008BE2B70190E00E94522780E32AE0C216FB
:1040D000D1042CF08F5FFAE0CF1AD108F7CFB701E7
:1040E00090E00E945227B701C601C0960E94522755
:1040F00054C1833631F0833779F0833509F056C0E7
:1041000020C0560132E0A30EB11CF60180818983E4
:1041100001E010E0630112C05601F2E0AF0EB11CE5
:10412000F601C080D18096FE03C0612F70E002C00E
:104130006FEF7FEFC6010E9447278C01F92DFF77B3
:1041400014C0560122E0A20EB11CF601C080D1803D
:1041500096FE03C0612F70E002C06FEF7FEFC601D3
:104160000E943C278C01F92DF0689F2EF3FD1AC0A8
:10417000852D90E008171907A8F4B70180E290E0B8
:104180000E9452275A94F4CFF60197FC859197FE2E
:1041900081916F01B70190E00E94522751105A940B
:1041A000015011090115110579F7F7C0843611F096
:1041B000893661F5560197FE09C024E0A20EB11CB4
:1041C000F60160817181828193810AC0F2E0AF0EB5
:1041D000B11CF60160817181072E000C880B990BD0
:1041E000F92DFF769F2E97FF09C0909580957095C9
:1041F00061957F4F8F4F9F4FF0689F2E2AE030E0F0
:10420000A3010E94EA27C82EC6183FC0092D853792
:1042100021F40F7E2AE030E01DC0097F8F3691F037
:1042200018F4883559F0C3C0803719F0883711F079
:10423000BEC0006104FF09C0046007C094FE08C04E
:10424000066006C028E030E005C020E130E002C092
:1042500020E132E0560107FF09C084E0A80EB11C3E
:10426000F601608171818281938108C0F2E0AF0E16
:10427000B11CF6016081718180E090E0A3010E9491
:10428000EA27C82EC6180F77902E96FE0BC0092D70
:104290000E7FC11650F494FE0AC092FC08C0092D8E
:1042A0000E7E05C0DC2C092D03C0DC2C01C0D12EF4
:1042B00004FF0DC0FE01EC0DF11D8081803311F46F
:1042C000097E09C002FF06C0D394D39404C0802F96
:1042D000867809F0D39403FD11C000FF06C01C2DA1
:1042E000D51480F4150D1D190DC0D51458F4B7015F
:1042F00080E290E00E945227D394F7CFD51410F4B7
:104300005D1801C0512C04FF10C0B70180E390E09C
:104310000E94522702FF17C001FD03C088E790E00A
:1043200002C088E590E0B7010CC0802F867859F074
:1043300001FF02C08BE201C080E207FD8DE2B70100
:1043400090E00E945227C11638F4B70180E390E054
:104350000E9452271150F7CFCA94F301EC0DF11DC2
:104360008081B70190E00E945227C110F5CF15C09F
:10437000F4E0F51560F584E0581A93FE1FC00111B2
:1043800027C02C8523FF2AC008E811E0392D3071A1
:10439000932EF8018491811124C0552009F4E4CCB6
:1043A000B70180E290E00E9452275A94F6CFF701BD
:1043B0008681978126C08FEF9FEF23C0B70180E2EF
:1043C00090E00E9452275A945110F8CFD8CF512C28
:1043D000B701802F90E00E945227D3CF0CE811E064
:1043E000D5CF91108052B70190E00E9452270F5F05
:1043F0001F4FCFCF23E0251510F483E0BDCF512C04
:10440000C0CF6096E2E10C94D9255058BB27AA276B
:104410000E941D220C945D240E94242438F00E94E6
:104420002B2420F039F49F3F19F426F40C94FA233E
:104430000EF4E095E7FB0C94CB23E92F0E94822435
:1044400058F3BA17620773078407950720F079F4C9
:10445000A6F50C94BC240EF4E0950B2EBA2FA02DDB
:104460000B01B90190010C01CA01A0011124FF2721
:10447000591B99F0593F50F4503E68F11A16F0401C
:10448000A22F232F342F4427585FF3CF469537951B
:104490002795A795F0405395C9F77EF41F16BA0BE0
:1044A000620B730B840BBAF09150A1F0FF0FBB1F8E
:1044B000661F771F881FC2F70EC0BA0F621F731FD7
:1044C000841F48F4879577956795B795F7959E3F34
:1044D00008F0B0CF9395880F08F09927EE0F9795C5
:1044E00087950895DF93DD27B92FBF7740E85FE315
:1044F0001616170648075B0718F4D92F0E94C82420
:104500009F938F937F936F930E946925ECE3F1E073
:104510000E94FD230E945D242F913F914F915F9156
:104520000E94E324DD2351F09058A2EA2AED3FE0F7
:1045300049EC5FE3D0785D270E941D22DF910C9447
:104540005D240E94A72308F481E008950E9434248A
:10455000E3950C946E240E94BF220C945D240E946B
:104560002B2458F00E94242440F029F45F3F29F0C6
:104570000C94CB2351110C94BD240C94FA230E946B
:10458000822468F39923B1F3552391F3951B550BBE
:10459000BB27AA2762177307840738F09F5F5F4F16
:1045A000220F331F441FAA1FA9F335D00E2E3AF055
:1045B000E0E832D091505040E695001CCAF72BD06D
:1045C000FE2F29D0660F771F881FBB1F26173707BE
:1045D0004807AB07B0E809F0BB0B802DBF01FF27F0
:1045E00093585F4F3AF09E3F510578F00C94CB23DF
:1045F0000C94BD245F3FE4F3983ED4F38695779501
:104600006795B795F7959F5FC9F7880F911D9695A8
:10461000879597F90895E1E0660F771F881FBB1F04
:10462000621773078407BA0720F0621B730B840BB1
:10463000BA0BEE1F88F7E09508950E942423689432
:10464000B1110C94BD2408950E948A2488F09F57CC
:1046500098F0B92F9927B751B0F0E1F0660F771FA6
:10466000881F991F1AF0BA95C9F714C0B13091F09C
:104670000E94BC24B1E008950C94BC24672F782FCD
:104680008827B85F39F0B93FCCF386957795679561
:10469000B395D9F73EF490958095709561957F4FCD
:1046A0008F4F9F4F0895E89409C097FB3EF4909573
:1046B0008095709561957F4F8F4F9F4F9923A9F0FB
:1046C000F92F96E9BB279395F6958795779567958A
:1046D000B795F111F8CFFAF4BB0F11F460FF1BC0CE
:1046E0006F5F7F4F8F4F9F4F16C0882311F096E961
:1046F00011C0772321F09EE8872F762F05C066230F
:1047000071F096E8862F70E060E02AF09A95660FC7
:10471000771F881FDAF7880F9695879597F9089580
:104720000E94A42490F09F3748F4911116F00C9445
:10473000BD2460E070E080E89FEB089526F41B162E
:10474000611D711D811D0C94D1230C94EC23990FD4
:104750000008550FAA0BE0E8FEEF16161706E8074B
:10476000F907C0F012161306E407F50798F0621B6C
:10477000730B840B950B39F40A2661F0232B242B41
:10478000252B21F408950A2609F4A140A6958FEF60
:10479000811D811D089597F99F6780E870E060E0B2
:1047A0000895882371F4772321F09850872B762F72
:1047B00007C0662311F499270DC09051862B70E035
:1047C00060E02AF09A95660F771F881FDAF7880F46
:1047D0009695879597F908959F3F31F0915020F471
:1047E000879577956795B795880F911D96958795CD
:1047F00097F908959FEF80EC0895DF93CF931F936F
:104800000F93FF92EF92DF927B018C01689406C0B8
:10481000DA2EEF010E94E324FE01E894A591259190
:10482000359145915591A6F3EF010E941D22FE019D
:104830009701A801DA9469F7DF90EF90FF900F914C
:104840001F91CF91DF91089500240A941616170640
:1048500018060906089500240A9412161306140671
:10486000050608950C94FA230E948A24D8F3E8944C
:10487000E0E0BB279F57F0F02AED3FE049EC06C08F
:10488000EE0FBB0F661F771F881F28F0B23A620732
:104890007307840728F0B25A620B730B840BE395FD
:1048A0009A9572F7803830F49A95BB0F661F771F80
:1048B000881FD2F790480C94EE23092E0394000C25
:1048C00011F4882352F0BB0F40F4BF2B11F460FFAA
:1048D00004C06F5F7F4F8F4F9F4F0895EF93E0FFAE
:1048E00007C0A2EA2AED3FE049EC5FEB0E941D22DF
:1048F0000E945D240F90039401FC9058E9E6F1E0DA
:104900000C946D2557FD9058440F551F59F05F3F8B
:1049100071F04795880F97FB991F61F09F3F79F0E1
:1049200087950895121613061406551FF2CF469563
:10493000F1DF08C0161617061806991FF1CF8695E5
:1049400071056105089408950E948A24A0F0BEE7CD
:10495000B91788F4BB279F3860F41616B11D672F6E
:10496000782F8827985FF7CF869577956795B11D43
:1049700093959639C8F30895E894BB27662777275F
:10498000CB0197F908950E94A72308F48FEF0895AB
:104990009B01AC0160E070E080E89FE30C94AB22E7
:1049A0000E94E3240C945D240E94242438F00E9489
:1049B0002B2420F0952311F00C94CB230C94FA2394
:1049C00011240C94BD240E94822470F3959FC1F39E
:1049D000950F50E0551F629FF001729FBB27F00DAD
:1049E000B11D639FAA27F00DB11DAA1F649F662702
:1049F000B00DA11D661F829F2227B00DA11D621F51
:104A0000739FB00DA11D621F839FA00D611D221F0A
:104A1000749F3327A00D611D231F849F600D211DEE
:104A2000822F762F6A2F11249F5750409AF0F1F071
:104A300088234AF0EE0FFF1FBB1F661F771F881FDA
:104A400091505040A9F79E3F510580F00C94CB2324
:104A50000C94BD245F3FE4F3983ED4F3869577959C
:104A60006795B795F795E7959F5FC1F7FE2B880F80
:104A7000911D9695879597F908950E948A24E8F0EC
:104A80009E37E8F09639B8F49E3848F4672F782FAF
:104A90008827985FF9CF869577956795939595398F
:104AA000D0F3B62FB1706B0F711D811D20F4879567
:104AB0007795679593950C94D1230C94EC230C94E3
:104AC000BD249F930E9434240F9007FCEE5F0C944A
:104AD0006E249B01AC010C94D0249F938F937F9301
:104AE0006F93FF93EF939B01AC010E94D024EF9151
:104AF000FF910E94FD232F913F914F915F910C9464
:104B0000D02497FB072E16F4009407D077FD09D028
:104B10000E94F42507FC05D03EF4909581959F4FA7
:104B20000895709561957F4F0895A1E21A2EAA1BF2
:104B3000BB1BFD010DC0AA1FBB1FEE1FFF1FA2174D
:104B4000B307E407F50720F0A21BB30BE40BF50B4A
:104B5000661F771F881F991F1A9469F760957095D3
:104B6000809590959B01AC01BD01CF010895EE0F9A
:104B7000FF1F0590F491E02D09942F923F924F92E0
:104B80005F926F927F928F929F92AF92BF92CF92DD
:104B9000DF92EF92FF920F931F93CF93DF93CDB7E6
:104BA000DEB7CA1BDB0B0FB6F894DEBF0FBECDBF5E
:104BB00009942A88398848885F846E847D848C842F
:104BC0009B84AA84B984C884DF80EE80FD800C8138
:104BD0001B81AA81B981CE0FD11D0FB6F894DEBF1B
:104BE0000FBECDBFED010895AA1BBB1B51E107C04D
:104BF000AA1FBB1FA617B70710F0A61BB70B881F6D
:104C0000991F5A95A9F780959095BC01CD010895FB
:104C10008F929F92AF92BF92CF92DF92EF92FF92CC
:104C2000CF93DF93EC01688179818A819B81611543
:104C300071058105910521F464E279ED8BE597E03A
:104C40002DE133EF41E050E00E94482849015A012C
:104C50009B01AC01A7EAB1E40E9467286B017C01CB
:104C6000ACEEB4EFA50194010E947528DC01CB01E4
:104C70008C0D9D1DAE1DBF1DB7FF03C00197A1097F
:104C8000B04888839983AA83BB839F77DF91CF91B4
:104C9000FF90EF90DF90CF90BF90AF909F908F905C
:104CA00008950E940826089587E391E00E9408264F
:104CB0000895A0E0B0E08093370190933801A0936D
:104CC0003901B0933A010895283008F027E03327DE
:104CD000DA01990F311D87FD91600096610571051C
:104CE00039F432602E5F3D9330E32A95E1F7089561
:104CF0009F3F30F080387105610509F03C5F3C5FF3
:104D00003D93913008F08068911DDF93CF931F93FE
:104D10000F93FF92EF92192F987F9695E92F969512
:104D20009695E90FFF27E651FE4F99273327EE248A
:104D3000FF24A701E70105900894079428F4360F93
:104D4000E71EF81E491F511D660F771F881F991F08
:104D50000694A1F70590079428F4E70EF81E491F62
:104D6000561FC11D770F881F991F661F0694A1F754
:104D70000590079428F4F80E491F561FC71FD11D30
:104D8000880F991F661F771F0694A1F70590079457
:104D900020F4490F561FC71FD81F990F661F771F92
:104DA000881F0694A9F784911095177041F0D69545
:104DB000C79557954795F794E7941A95C1F7E0E999
:104DC000F1E0689415901591359165919591059054
:104DD0007FE27395E118F10A430B560BC90BD0091A
:104DE000C0F7E10CF11E431F561FC91FD01D7EF4F2
:104DF000703311F48A95E6CFE894015030F0080F33
:104E00000AF40027021708F4202F2395022F7A3383
:104E100028F079E37D932A95E9F710C07D932A95D0
:104E200089F6069497956795379517951794E11825
:104E3000F10A430B560BC90BD00998F023957E91CC
:104E400073957A3308F070E37C932013B8F77E9162
:104E500070617D9330F0839571E37D9370E32A95C3
:104E6000E1F71124EF90FF900F911F91CF91DF9107
:104E7000992787FD90950895FC0105906150704039
:104E80000110D8F7809590958E0F9F1F0895FC0113
:104E90006150704001900110D8F7809590958E0F69
:104EA0009F1F08950F931F93CF93DF93FB012381DF
:104EB00021FD03C08FEF9FEF2CC022FF16C046815B
:104EC0005781248135814217530744F4A081B18171
:104ED0009D012F5F3F4F318320838C932681378143
:104EE0002F5F3F4F3783268314C08B01EC01FB01FA
:104EF0000084F185E02D0995892BE1F6D8011696FD
:104F00008D919C911797019617969C938E93169767
:104F1000CE01DF91CF911F910F910895AEE0B0E0E7
:104F2000E4E9F7E20C94CB250D891E898F89988DD1
:104F300026E02C831A83098397FF02C080E090E863
:104F400001979E838D83AE01455E5F4F698D7A8D9B
:104F5000CE0101960E94881E4D815E8157FD0AC0D8
:104F60002F813885421753070CF49A01F801E20F9C
:104F7000F31F10822E96E4E00C94E725AEE0B0E03B
:104F8000E4ECF7E20C94CB258C01FA0186E08C83EB
:104F90001A83098377FF02C060E070E8CB010197B4
:104FA0009E838D83A901BF01CE0101960E94881EB8
:104FB0004D815E8157FD0AC02F8138854217530706
:104FC0000CF49A01F801E20FF31F10822E96E4E030
:104FD0000C94E725FA01AA27283051F1203181F1FC
:104FE000E8946F936E7F6E5F7F4F8F4F9F4FAF4FF1
:104FF000B1E03ED0B4E03CD0670F781F891F9A1F04
:10500000A11D680F791F8A1F911DA11D6A0F711DB7
:10501000811D911DA11D20D009F468943F912AE0C3
:10502000269F11243019305D3193DEF6CF010895AB
:10503000462F4770405D4193B3E00FD0C9F7F6CFDC
:10504000462F4F70405D4A3318F0495D31FD4052A4
:10505000419302D0A9F7EACFB4E0A695979587953A
:1050600077956795BA95C9F7009761057105089519
:105070009B01AC010A2E06945795479537952795C5
:10508000BA95C9F7620F731F841F951FA01D08955D
:10509000052E97FB1EF400940E945F2857FD07D051
:1050A0000E94952507FC03D04EF40C945F28509580
:1050B0004095309521953F4F4F4F5F4F0895909504
:1050C0008095709561957F4F8F4F9F4F08950E94F7
:1050D0007A28A59F900DB49F900DA49F800D911DDF
:1050E00011240895B7FF0C9467280E946728821B3B
:1050F000930B0895A29FB001B39FC001A39F700DB1
:10510000811D1124911DB29F700D811D1124911DCF
:065110000895F894FFCFA2
:1051160000000000280100000000000000002C0133
:1051260000000000C0C50802C00107004E29E502C4
:10513600C02902009810F20300110700802802001F
:1051460000E10000000008010000002564002020A6
:10515600004C6972616E006E31303434363731314D
:1051660000544A0047616D65206F766572210050D4
:10517600726573732053573300546F2072657374CE
:105186006172742E00506C6561736520656E74657E
:1051960072206E657874006C6576656C2076696140
:1051A6002073657269616C004C5625647C4C2564DD
:1051B6007C53253032647C253032643A0025303207
:0251C600640083
:00000001FF
