:100000000C94A0020C94BD020C94BD020C94BD0291
:100010000C94BD020C94BD020C94BD020C94BD0264
:100020000C94BD020C94BD020C945D250C94972594
:100030000C94BD020C94BD020C94BD020C94BD0244
:100040000C94BD020C94BD020C94BD020C94BD0234
:100050000C94CB0B0C94BD020C94BD020C949C0B25
:100060000C94BD020C9469270C943E270C94BD029D
:100070000C94BD020C94BD020C94BD020C94BD0204
:100080000C94BD020C94BD020C94BD020C94BD02F4
:100090000C94BD020C94BD020C94BD020C94BD02E4
:1000A0000C94BD020C94BD020C94BD02170B260BE0
:1000B000350B440B540B630B710BFE24FA24F6240E
:1000C000F224EE24EA24E624E224DE24DA24D624F0
:1000D000D224CE24CA24C624C224BE24BA24B624E0
:1000E000B224AE24AA24A624A2249E249A249624D0
:1000F00092248E248A24862482247E247A247624C0
:1001000072246E246A24662462245E245A245624AF
:1001100052244E244A24462442243E243A2436249F
:1001200032242E242A24262422241E241A2416248F
:1001300012240E240A2406240224FE23084AD73B54
:100140003BCE016E84BCBFFDC12F3D6C74319ABDA6
:1001500056833DDA3D00C77F11BED9E4BB4C3E91CA
:100160006BAAAABE000000803F05A84CCDB2D44EB9
:10017000B93836A9020C50B9918688083CA6AAAABB
:100180002ABE000000803F006E616E00696E66004E
:1001900000407A10F35A00A0724E18090010A5D43E
:1001A000E80000E87648170000E40B54020000CA9B
:1001B0009A3B000000E1F5050000809698000000E1
:1001C00040420F000000A086010000001027000040
:1001D0000000E803000000006400000000000A00C6
:1001E000000000000100000000002C76D888DC67C9
:1001F0004F0823DFC1DFAE59E1B1B796E5E3E45321
:10020000C63AE651997696E8E6C28426EB898C9B3D
:1002100062ED407C6FFCEFBC9C9F40F2BAA56FA5DD
:10022000F490055A2AF75C936B6CF9676DC11BFC5F
:10023000E0E40D47FEF520E6B500D0ED902E03007A
:10024000943577050080841E080000204E0A0000C7
:1002500000C80C333333330F986E12831141EF8D86
:100260002114893BE65516CFFEE6DB18D1844B38C6
:100270001BF77C1D901DA4BBE424203284725E22F7
:100280008100C9F124ECA1E53D276364696E6F70BC
:10029000737578585B0000010000430312000200F0
:1002A0000000034300030000FC020401030904E60C
:1002B000021402030904CE021603030904C0020C4F
:1002C0000C03310032003300340035000000160307
:1002D0005500530042002000530065007200690081
:1002E00061006C000000140359006F00750072007B
:1002F00020004E0061006D00650000000403090449
:1003000009024300020100C0320904000001020298
:100310000100052400100105240101010424020646
:1003200005240600010705820310004009040100AE
:10033000020A0000000705030240000007058402CE
:100340004000001201000202000010C0167A0400F2
:1003500001010203010001C1120180360181360052
:100360000000000000005F00000007000700147F8D
:10037000147F14242A7F2A122313086462364955F5
:1003800022500005030000001C2241000041221CF5
:100390000014083E081408083E0808005030000009
:1003A0000808080808006060000020100804023EE9
:1003B0005149453E00427F4000426151494621413A
:1003C000454B311814127F1027454545393C4A49A1
:1003D0004930017109050336494949360649492919
:1003E0001E00363600000056360000081422410078
:1003F0001414141414004122140802015109063285
:100400004979413E7E1111117E7F494949363E416D
:100410004141227F4141221C7F494949417F0909CD
:1004200009013E4149497A7F0808087F00417F4120
:10043000002040413F017F081422417F404040405E
:100440007F020C027F7F0408107F3E4141413E7FC6
:10045000090909063E4151215E7F0919294646498D
:1004600049493101017F01013F4040403F1F204089
:10047000201F3F4038403F6314081463070870088A
:10048000076151494543007F4141000204081020A3
:100490000041417F0004020102044040404040000E
:1004A0000102040020545454787F484444383844AE
:1004B000444420384444487F3854545418087E0932
:1004C00001020C5252523E7F0804047800447D40E1
:1004D000002040443D007F1028440000417F400040
:1004E0007C041804787C0804047838444444387C3C
:1004F00014141408081414187C7C080404084854C4
:10050000545420043F4440203C4040207C1C204068
:10051000201C3C4030403C44281028440C50505093
:100520003C4464544C44000836410000007F000005
:100530000041360800100808100878464146780047
:1005400011241FBECFEFDAE0DEBFCDBF12E0A0E086
:10055000B1E0E2EDFEE602C005900D92A634B107CF
:10056000D9F724E0A6E4B2E001C01D92AC3CB2078A
:10057000E1F70E94D4220C9467370C940000FC0130
:1005800080819181860F971FBA010E942B31918340
:1005900080830895BF92CF92DF92EF92FF920F93E4
:1005A0001F93CF93DF93CDB7DEB7C455D1090FB6F4
:1005B000F894DEBF0FBECDBF082FE62EB22E5F939C
:1005C0004F9388E491E09F938F931F9284E58F93DC
:1005D000CE0101966C019F938F930E9438330E2CAD
:1005E000000CFF08002E000C110B21E04BE451E041
:1005F000B701C8010E94A2292B2DA601B701C8018D
:100600000E94A2290FB6F894DEBF0FBECDBFCC5A10
:10061000DF4F0FB6F894DEBF0FBECDBFDF91CF9195
:100620001F910F91FF90EF90DF90CF90BF900895B2
:10063000CF93DF93CDB7DEB7E2970FB6F894DEBF66
:100640000FBECDBF9E01235C3F4F4BAD5CAD62E35F
:1006500070E0CE0101960E94813321E0AE014F5F30
:100660005F4F69AD7AAD8FA998AD0E94A229E2963D
:100670000FB6F894DEBF0FBECDBFDF91CF910895C6
:100680008F929F92AF92BF92CF92DF92EF92FF92A2
:10069000CF93DF93EC01688179818A819B810E94ED
:1006A0003A2F6B017C016C817D818E819F810E943C
:1006B0003A2F4B015C01C701B6010E94C72E6B01A6
:1006C000C501B4010E94C72E7B01C701B601DF91AD
:1006D000CF91FF90EF90DF90CF90BF90AF909F9021
:1006E0008F900895EF92FF920F931F93CF93DF9314
:1006F000EC0100E010E07C0180E6E80EF11CF7015F
:10070000808190E00817190774F46A817B816A3050
:1007100071052CF041E0888199810E94C5270F5F07
:100720001F4F2496ECCFDF91CF911F910F91FF9037
:10073000EF900895FC01428153814B305105A4F0A4
:1007400070E020E330E0261B370B4217530764F4B8
:100750004081518157FD08C024E530E0261B370B4E
:1007600081E0421753070CF080E008957F928F924A
:100770009F92AF92BF92CF92DF92EF92FF920F9330
:100780001F93CF93DF934C015B01742EFC01C28059
:10079000D380B6010D2C000C880B990B0E94FF2E04
:1007A0000E94E7300E94C72ECB010A97C6E2D0E034
:1007B000BE010E942B318C01065F1F4FF501E280C4
:1007C000F380B7010F2C000C880B990B0E94FF2EB1
:1007D0000E94E7300E94C72ECB010A97BE010E94FB
:1007E0002B31EC012A96F40160817181072E000CF7
:1007F000880B990B0E94FF2E0E94E7300E94C72EA3
:100800004B01F501608171816815790524F0AA24F6
:10081000A394B12C03C0AA24AA94BA2C072E000CCE
:10082000880B990B0E94FF2E0E94E7300E94C72E72
:10083000E4E5F0E0CB01BF010E942B319C01C40133
:10084000BF010E942B31281B390B2A9DC0012B9D13
:10085000900D3A9D900D1124EC14FD041CF041E024
:1008600050E002C04FEF5FEFC01BD10BC49F90015F
:10087000C59F300DD49F300D1124F8E77F1639F055
:1008800049E7741619F0820F931F01C0C901DF9167
:10089000CF911F910F91FF90EF90DF90CF90BF907D
:1008A000AF909F908F907F9008952F923F924F929C
:1008B0005F926F927F928F929F92AF92BF92CF92F0
:1008C000DF92EF92FF920F931F93CF93DF93CDB7F9
:1008D000DEB7C557D1090FB6F894DEBF0FBECDBF46
:1008E000E2969FAF8EAFE2978B01FB016081718131
:1008F000828193810E94E7300E94C72E2B013C0128
:100900001B01F80164817581868197810E94E7301F
:100910000E94C72E6B017C01A4967FAF6EAFA49797
:10092000F80160857185828593850E94E7300E9479
:10093000C72E4B015C01A8967FAF6EAFA897F80158
:1009400064857585868597850E94E7300E94C72E4D
:10095000AA967FAF6EAFAA97FE0131969E012F59DE
:100960003F4FDF01A217B30749F011961C921E9268
:1009700013961C921E9212971496F4CFA8962EAD41
:100980003FADA8972216330609F048C0C10164E5BF
:1009900070E00E942B319C0101E010E056E2E52E50
:1009A000F12CA80141505109A6965FAF4EAFA69712
:1009B000A4968EAD9FADA497AA964EAD5FADAA97B3
:1009C00084179507ACF44C155D050CF4CEC131834A
:1009D0002083C6010A97B7010E942B310A969383A0
:1009E00082834FEFC41AD40A0F5F1F4F3496D9CFBA
:1009F000AA968EAD9FADAA97C816D9060CF4B5C1BC
:100A000031832083C6010A97B7010E942B310A96D1
:100A10009383828351E0C51AD108E6CFA4962EAD08
:100A20003FADA497AA964EAD5FADAA9724173507A0
:100A300009F042C0C6010A9766E270E00E942B31BD
:100A40009C01265F3F4F01E010E044E5E42EF12CCD
:100A5000C8010197A6969FAF8EAFA697A8964EADF8
:100A60005FADA897241635069CF4441555050CF483
:100A70007CC1C201B7010E942B31918380833383F3
:100A800022838FEF481A580A0F5F1F4F3496E0CF2A
:100A9000A8968EAD9FADA897481659060CF465C16F
:100AA000C201B7010E942B3191838083338322835B
:100AB00091E0491A5108E8CFA896EEADFFADA8978E
:100AC000E215F3056CF4A4967FAF6EAFA497AA96D7
:100AD000DFAECEAEAA971401A8965FAE4EAEA89731
:100AE000A8966EAD7FADA89762197309072E000C0A
:100AF000880B990B0E94FF2EE0966CAF7DAF8EAFF6
:100B00009FAFE097AA966EAD7FADAA97A4962EAD43
:100B10003FADA497621B730B072E000C880B990B3B
:100B20000E94FF2E4B015C01E0962CAD3DAD4EAD19
:100B30005FADE0970E94552E2B013C0120E030E094
:100B4000A9010E946D3087FF04C077FA709477F88E
:100B50007094C12CD12C7601A6961FAE1EAEA6971E
:100B600020E030E0A901E0966CAD7DAD8EAD9FAD8B
:100B7000E0970E946D3018160CF0EFC0A8968EAD6D
:100B80009FADA897821593050CF4EFC0C10164E5F1
:100B900070E00E942B31E4969FAF8EAFE497A6964B
:100BA0008EAD9FADA697880F991F880F991F01E002
:100BB00010E00C0F1D1F080F191FE4962EAD3FAD5E
:100BC000E497F80131832083A4968EAD9FADA4975E
:100BD0000A9766E270E00E942B310A969383828323
:100BE000A6964EAD5FADA6974F5F5F4FA6965FAFDF
:100BF0004EAFA697A3019201C701B6010E94B02D86
:100C00006B017C01AC961FAF0EAFAC9720E030E0DB
:100C100040E05FE3C701B6010E946D3087FF12C05C
:100C200020E030E0A901E0966CAD7DAD8EAD9FADCA
:100C3000E0970E946D3018160CF08BC03FEF231A1E
:100C4000330A8ECF20E030E0A901C501B4010E9433
:100C50006D3018160CF070C0AA964EAD5FADAA9715
:100C6000A4968EAD9FADA49748175907CCF2E49691
:100C70002EAD3FADE497AC96EEADFFADAC973583AE
:100C80002483A4968EAD9FADA4970A9766E270E088
:100C90000E942B310A9697838683A6964EAD5FAD50
:100CA000A6974F5F5F4FA6965FAF4EAFA69781E0C6
:100CB00090E0E6969FAF8EAFE69720E030E0A90186
:100CC000C501B4010E946D30181624F0E6961FAEDF
:100CD0001EAEE69701E010E020E030E0A901C5017A
:100CE000B4010E944B2E87FD02C000E010E0E696A2
:100CF0008EAD9FADE697801B910BA496EEADFFAD38
:100D0000A497E80FF91FA496FFAFEEAFA49720E0D9
:100D100030E040E85FE3C701B6010E94AF2D6B01F0
:100D20007C01AC962EAD3FADAC972C5F3F4FAC969F
:100D30003FAF2EAFAC976ACFAA96EEADFFADAA97A4
:100D4000A4962EAD3FADA4972E173F070CF08FCF82
:100D500067CF41E0241A310803CFA896EEADFFAD6E
:100D6000A8972E163F060CF011CFA596FFADA597BC
:100D7000A296FFAFA29781E6FE013196E296AEAD54
:100D8000BFADE29701900D928A95E1F7E2968EADA4
:100D90009FADE297CB58DF4F0FB6F894DEBF0FBE82
:100DA000CDBFDF91CF911F910F91FF90EF90DF901A
:100DB000CF90BF90AF909F908F907F906F905F90FB
:100DC0004F903F902F900895BF92CF92DF92EF9275
:100DD000FF920F931F93CF93DF93CDB7DEB7CD561E
:100DE000D1090FB6F894DEBF0FBECDBF6C01AE9631
:100DF0004CAF5DAF6EAF7FAFAE978C01E12CF12CA5
:100E000082E1B82EBE9CF001BF9CF00D1124EC0DC8
:100E1000FD1D808980FF52C0C8010E944003AA9630
:100E20006CAF7DAF8EAF9FAFAA97C80108960E94A6
:100E30004003A6966CAF7DAF8EAF9FAFA69741E6FD
:100E4000BE016A597F4FCE0186599F4F0E94B6035B
:100E50000C9758F041E6BE016E597F4FCE0186597E
:100E60009F4F0E94B6030C9748F5B801CE0101963A
:100E70000E945504A2968FADA29790E0AC964EAD1D
:100E80005FADAC97AE966EAD7FADAE97FE0131967D
:100E900020E030E0281739078CF4A081B181A41735
:100EA000B50741F4A281B381A617B70719F481E011
:100EB00090E010C02F5F3F4F3496ECCF8FEFE81AD1
:100EC000F80A0E5E1F4F86E0E816F10409F09ACF8B
:100ED00080E090E0C359DF4F0FB6F894DEBF0FBE3D
:100EE000CDBFDF91CF911F910F91FF90EF90DF90D9
:100EF000CF90BF9008952F923F924F925F926F9242
:100F00007F928F929F92AF92BF92CF92DF92EF9299
:100F1000FF920F931F93CF93DF93CDB7DEB72E973A
:100F20000FB6F894DEBF0FBECDBF9E878D871B0125
:100F30005901F901408051806280838180FB7724D0
:100F400070F881FF87C085E090E021E030E0B901D2
:100F5000681B790B7C836B836A01C61AD70ACA01A6
:100F600001979A878987812C912C1A821982F10125
:100F70003197FC87EB8771018B819C81E81AF90A14
:100F800040FE3BC06D857E85672B71F40115110510
:100F900011F440E004C00130110579F541E0B601DB
:100FA000C7010E94C52729C00115110599F4FE82C9
:100FB000ED82D886CF824D815E816F8178858D8567
:100FC0009E850E94E406892BC1F081E090E09A831F
:100FD000898313C00130110581F4F401EE0FFF1F66
:100FE000EE0FFF1F6D857E85E60FF71FF182E08211
:100FF000D382C2827FEF871A970A769467945794B8
:10100000479481E0E81AF108EB85FC85EE15FF05B1
:1010100009F0B6CFF501838181FD07C092E0769497
:101020006794579447949A95D1F7F1E0CF1AD10875
:1010300069857A856C157D0509F09DCFED85FE8566
:10104000309791F00130110579F4EC59FF4F9182FE
:1010500080820AC086E076946794579447948A9574
:10106000D1F783E090E071CF89819A812E960FB6F7
:10107000F894DEBF0FBECDBFDF91CF911F910F91CE
:10108000FF90EF90DF90CF90BF90AF909F908F90A8
:101090007F906F905F904F903F902F9008954F9268
:1010A0005F926F927F928F929F92AF92BF92CF92F8
:1010B000DF92EF92FF920F931F93CF93DF93EC0198
:1010C0006B017A01FB01838181FD02C063E001C0F5
:1010D00065E0A701CE010E949A03282F882369F1B9
:1010E0006A817B81072E000C880B990B0E94FF2ED2
:1010F0000E94E7304B015C0168817981072E000C6A
:10110000880B990B0E94FF2E0E94E7302B013C01B7
:10111000C501B4010E94C72E4B015C01C301B2019D
:101120000E94C72E00E010E09601A401C7010E94B2
:101130007B0721E0892B09F020E0822FDF91CF91FE
:101140001F910F91FF90EF90DF90CF90BF90AF90E5
:101150009F908F907F906F905F904F900895CF9267
:10116000DF92EF92FF920F931F93CF93DF93FC01D7
:10117000EC59FF4F00811181FC0120E030E0EB01D0
:10118000CC59DF4F2017310711F148815981DB011C
:1011900080E090E084179507A1F0C080D180ED90A9
:1011A000FC901197CE14DF0449F4C280D3801296CC
:1011B000ED90FC901397CE14DF0439F0019614964D
:1011C000E9CF2F5F3F4F3496DDCF81E001C080E053
:1011D000DF91CF911F910F91FF90EF90DF90CF9013
:1011E00008950F931F93CF93DF93CDB7DEB7C65605
:1011F000D1090FB6F894DEBF0FBECDBFFE01319608
:1012000026E6DF011D922A95E9F7DC010D911D917B
:101210002D913C9109831A832B833C8381E090E0DC
:10122000A7969FAF8EAFA797CF010E94AF08CA596C
:10123000DF4F0FB6F894DEBF0FBECDBFDF91CF9169
:101240001F910F910895EF92FF920F931F93CF93E9
:10125000DF93CDB7DEB7CC5CD1090FB6F894DEBF13
:101260000FBECDBF8C017B016F5F7F4F41E60196C2
:101270000E94B6030B9770F5F8019081892F817059
:1012800090FF29C0F7019081892F817090FF23C0C2
:10129000F80125813681438154816181728101E0A9
:1012A00010E0CE0189599F4F0E947B07F7012581ED
:1012B00036814381548161817281CE0101960E9401
:1012C0007B07BE016F5F7F4FCE0189599F4F0E9400
:1012D000AF0801C080E0C453DF4F0FB6F894DEBF03
:1012E0000FBECDBFDF91CF911F910F91FF90EF9077
:1012F00008958F929F92AF92BF92CF92DF92EF921A
:10130000FF920F931F93CF93DF93CDB7DEB7C45DEA
:10131000D1090FB6F894DEBF0FBECDBF8C017B01A3
:101320000E944003CF52DF4F688379838A839B8377
:10133000C15DD040C7010E944003C353DF4F6883A3
:1013400079838A839B83CD5CD04041E6BE016353A1
:101350007F4FCE018F529F4F0E94B6030B97E0F54F
:10136000F801C084D18464817581868197810E944F
:10137000C72E4B015C01F8016081718182819381EC
:101380000E94C72E01E010E09601A401CE01895908
:101390009F4F0E947B07F701C084D18464817581CF
:1013A000868197810E94C72E4B015C01F701608105
:1013B0007181828193810E94C72E9601A401CE0182
:1013C00001960E947B07BE016F5F7F4FCE01895956
:1013D0009F4F0E94AF0801C080E0CC52DF4F0FB694
:1013E000F894DEBF0FBECDBFDF91CF911F910F915B
:1013F000FF90EF90DF90CF90BF90AF909F908F9035
:1014000008958F929F92AF92BF92CF92DF92EF9208
:10141000FF920F931F93CF93DF93CDB7DEB7C05DDD
:10142000D1090FB6F894DEBF0FBECDBFFB012081FE
:1014300020FD02C080E045C07B018C010E9440037A
:10144000C353DF4F688379838A839B83CD5CD0400D
:10145000B7016F5F7F4F41E6CE0183539F4F0E94DC
:10146000B6030B9738F7F801C084D1846481758185
:10147000868197810E94C72E4B015C01F801608133
:101480007181828193810E94C72E01E010E0960154
:10149000A401CE0189599F4F0E947B07F701258146
:1014A00036814381548161817281CE0101960E940F
:1014B0007B07BE016F5F7F4FCE0189599F4F0E940E
:1014C000AF08C053DF4F0FB6F894DEBF0FBECDBFDD
:1014D000DF91CF911F910F91FF90EF90DF90CF9010
:1014E000BF90AF909F908F900895CF92DF92EF9230
:1014F000FF920F931F93CF93DF937C01EB018B013E
:1015000004591F4F6B018FE8C80ED11C81E090E099
:101510000C151D05D1F0892B19F480E090E012C064
:10152000B8016D5D7F4FC7010E9423098111F5CF7E
:10153000B801C7010E94230931E020E0811130E0A9
:10154000832F922F095F1F4FE3CF009751F0BE0109
:10155000635E7E4FC7010E94230931E0811130E0B4
:10156000832FDF91CF911F910F91FF90EF90DF902C
:10157000CF90089520982198279850985198869850
:101580008598229A239A0895E1E6F0E080E8808326
:1015900081E080838FE30E94E9290E94192A85B5A2
:1015A000877F85BD85B5846085BD85B58D7F85BD0B
:1015B00085B58E7F85BDEEE6F0E080818160808319
:1015C000E1E8F0E08081877F808380818F7E808367
:1015D00080818B7F808380818D7F8083808181600B
:1015E0008083EFE6F0E080818160808378940E94C0
:1015F0009027479A0C94BA0AFC01DC01A753BD4F0F
:101600009C91990F292F2E739C91907C922B9C93E7
:101610008C91982F9F718C91807C892B8C93E730D3
:10162000F10508F06BC0EA5AFF4F0C9461318091CC
:10163000C9029FB195FB992790F98E73982B8091E1
:10164000C902807C892B8093C90258C08091CA024C
:101650009FB196FB992790F98E73982B8091CA02BF
:10166000807C892B8093CA0249C02091CB0299B11A
:1016700096959170822F8E73982B8091CB02807CEF
:10168000892B8093CB023AC09091CC0223B19E73F8
:10169000822F881F8827881F982B8091CC02807CFE
:1016A000892B8093CC022AC02091CD0293B19695CC
:1016B0009170822F8E73982B8091CD02807C892B24
:1016C0008093CD021BC09091CE0229B19E73822FD0
:1016D0008170982B8091CE02807C892B8093CE02E2
:1016E0000DC09091CF0223B19E73822F8170982BF1
:1016F0008091CF02807C892B8093CF028C918F7355
:101700008F3119F48C9180648C938C918F7319F4C0
:101710008C918F7B8C93089580E090E0FC01E753DF
:10172000FD4F208126FD03C020812F772083019665
:101730008730910599F708951F920F920FB60F9277
:1017400011242F933F934F935F936F937F938F93C6
:101750009F93AF93BF93CF93DF93EF93FF93C0E03B
:10176000D0E0CE010E94FC0A2196C730D105C9F70E
:10177000FF91EF91DF91CF91BF91AF919F918F91A9
:101780007F916F915F914F913F912F910F900FBE7D
:101790000F901F9018951F920F920FB60F92112461
:1017A0002F938F939F9380914702982F991F99278A
:1017B000991F809148028F73880F892B8F5F8F77D5
:1017C0009091470280FB97F99093470286959091FC
:1017D0004802907C892B809348028091480280685F
:1017E0008093480280914702982F991F9927991F4B
:1017F000809148028F73880F892B8A3731F5809149
:10180000460220914702922F9F7701969F778093FF
:1018100046029F77809147028078892B8093470208
:101820008FE794E00197F1F700C000008091470234
:101830008F778093470280914802807C8093480292
:10184000809148028064809348029F918F912F91EC
:101850000F900FBE0F901F901895CF93DF930E94AB
:10186000FE31C0E1D1E068E671E00E942B319F8734
:101870008E870E94FE3164E070E00E942B31BC0133
:101880006C5F7F4F072E000C880B990B0E94FF2E78
:1018900020E030E040E251E40E94552E6A877B87C9
:1018A0008C879D87DF91CF9108954F925F926F92C1
:1018B0007F92AF92BF92CF92DF92EF92FF920F93FF
:1018C0001F93CF93DF93CDB7DEB72C970FB6F89465
:1018D000DEBF0FBECDBF2D833E834F835887698700
:1018E0007A878B879C875801CE0105960E9440031A
:1018F00069837A838B839C83D80118966D917C9140
:101900001997A701CE0101960E944F08811118C0B6
:10191000F6019281969596959695A9F1D80118961B
:10192000ED91FC911997838181FD02C063E001C0B4
:1019300065E0A701CE0101960E949A03882319F160
:10194000F501E084F18464817581868197810E942C
:10195000C72E2B013C01D5016D917D918D919C91FC
:101960000E94C72E00E010E09701A20180E090E005
:101970000E947B0788E0FE013596D50101900D920B
:101980008A95E1F781E02C960FB6F894DEBF0FBE82
:10199000CDBFDF91CF911F910F91FF90EF90DF901E
:1019A000CF90BF90AF907F906F905F904F900895D1
:1019B0004F925F926F927F928F929F92AF92BF925F
:1019C000CF92DF92EF92FF920F931F93CF93DF930B
:1019D000CDB7DEB760970FB6F894DEBF0FBECDBFB0
:1019E00029873A874B875C876D877E878F87988B9F
:1019F000B801110F880B990B0E94FF2E25E33AEFD7
:101A00004EE85CE30E947A304B015C010E94502E4C
:101A10002B013C01C501B4010E940B31A7019601C5
:101A20000E947A302D853E854F8558890E94B02DC1
:101A3000162FA72EB82E092FA7019601C301B201B8
:101A40000E947A309B01AC0169857A858B859C85E3
:101A50000E94B02D9B01AB01BC0149835A836B836B
:101A60007C83812F9A2DAB2DB02F8D839E83AF83E6
:101A7000B8873A814B815C81612F7E818F81988507
:101A800060960FB6F894DEBF0FBECDBFDF91CF9149
:101A90001F910F91FF90EF90DF90CF90BF90AF908C
:101AA0009F908F907F906F905F904F900895CF920E
:101AB000DF92EF92FF920F931F93CF93DF937C01FE
:101AC0008B01EA016901A90161E0CE0101960E9442
:101AD0009A03811102C080E016C049815A816B814E
:101AE0007C81C6010E94E406892BA9F789819A812D
:101AF000E80EF91EFA82E9828B819C81080F191F7A
:101B00001C830B8381E0DF91CF911F910F91FF9098
:101B1000EF90DF90CF9008958837D1F4DB011196D4
:101B2000ED91FC911297DA018D919C91E817F907DC
:101B300034F4AB0160E070E081E090E024C08E17E7
:101B40009F071CF5AB0160E070E08FEF9FEF1BC0BB
:101B50008937D9F4DB011396ED91FC911497DA01E2
:101B600012968D919C911397E817F90724F4AB0115
:101B700061E070E006C08E179F073CF4AB016FEF89
:101B80007FEF80E090E00C94570D80E008953F9245
:101B90004F925F926F927F928F929F92AF92BF927D
:101BA000CF92DF92EF92FF920F931F93CF93DF9329
:101BB00000D000D0CDB7DEB77C01609110017091EC
:101BC000110180911201909113010E94E7300E944F
:101BD000C72E6F5F7F4F7A83698360911401709184
:101BE000150180911601909117010E94E7300E9423
:101BF000C72E6F5F7F4F7C836B8387010D541F4F10
:101C0000C12CD12C85E0382E3C9CF0013D9CF00D80
:101C10001124EE0DFF1DEE54FF4F808180FF35C073
:101C20000E94FE31980121503109590180FF08C0FE
:101C300049E7B801CE0101960E94B603892B79F4D9
:101C400048E7B801CE0101960E94B603892B39F00E
:101C50009701AE014F5F5F4FB50188E706C097015E
:101C6000AE014F5F5F4FB50189E70E948C0D3C9C30
:101C7000F0013D9CF00D1124EE0DFF1DEE54FF4FC1
:101C8000908180FB90F990832AC0F8016281738172
:101C9000072E000C880B990B0E94FF2E0E94E73044
:101CA0002B013C01F80160817181072E000C880B2B
:101CB000990B0E94FF2E0E94E7304B015C01C3018B
:101CC000B2010E94C72E2B013C01C501B4010E9444
:101CD000C72EDC01CB0140E0B2010E94C527FFEF17
:101CE000CF1ADF0A0B5F1F4F24E1C216D10409F09F
:101CF0008BCF0F900F900F900F90DF91CF911F918E
:101D00000F91FF90EF90DF90CF90BF90AF909F909A
:101D10008F907F906F905F904F903F900895BF920B
:101D2000CF92DF92EF92FF920F931F93CF93DF93A7
:101D3000CDB7DEB728970FB6F894DEBF0FBECDBF84
:101D40008B0121E08030920719F5FB01E95DFE4F20
:101D50006081862F8295869587703196F0806F2DF1
:101D60006F70660F660F660F682B70E080E090E082
:101D70000E94FD2EE62EB72E6C01F2948FE0F82221
:101D8000F801E75DFE4F608163706295607F1AC065
:101D900080519140F1F4FB01EA5DFE4FF0806F2D20
:101DA0006F7770E080E090E00E94FD2EE62EB72E67
:101DB0006C01FF1CFF24FF1CF801E95DFE4F6081F0
:101DC0006F71660F6F2970E080E090E00E94FD2E39
:101DD00008C060E070E080E090E0E12CB12CC12C04
:101DE000D12C0E2D1B2D960109831A832B833C8346
:101DF0008B019C010D831E832F8338872E2D3A8102
:101E00004B815C817E818F81988528960FB6F894EE
:101E1000DEBF0FBECDBFDF91CF911F910F91FF901D
:101E2000EF90DF90CF90BF9008952F923F924F9206
:101E30005F926F927F928F929F92AF92BF92CF925A
:101E4000DF92EF92FF920F931F93CF93DF93CDB763
:101E5000DEB766970FB6F894DEBF0FBECDBF7C012C
:101E60006B015E8B4D8B0E948F0E29833A834B83CF
:101E70005C836D837E838F83988789809A80AB8013
:101E8000BC804D805E806F807884F701208431842F
:101E9000C301B2010E94C72E6D877E878F87988B02
:101EA000C501B4010E94C72E00E010E091014D85EC
:101EB0005E85C6010E947B07892B09F058C020E08F
:101EC00030E0A901C501B4010E94B02D0E94C72EC7
:101ED0007A87698720E030E0A901C301B2010E943E
:101EE000B02D0E94C72E7C876B87F70160857185B6
:101EF000A601CE0109960E944F088823C1F1F7017F
:101F00002084318464817581868197810E94C72EE7
:101F10006D877E878F87988BF701608171818281C1
:101F200093810E94C72E91014D855E8580E090E0EF
:101F30000E947B0769857A85072E000C880B990B18
:101F40000E94FF2EF70160837183828393836B85E8
:101F50007C85072E000C880B990B0E94FF2EF70141
:101F6000648375838683978301E010E002C000E0FC
:101F700010E0212C312C0115110509F0F3C1B1013C
:101F8000032C000C880B990B0E94FF2EA3019201D9
:101F90000E94B02D6D877E878F87988B20E030E080
:101FA00040E251E40E946D3018160CF05FC020E052
:101FB00030E0A901C501B4010E94B02D0E94C72ED6
:101FC0007A8769876D857E858F8598890E94C72E5F
:101FD0007C876B87F70160857185A601CE01099624
:101FE0000E944F088823F1F1F7010084F185E02D6C
:101FF000FE87ED87F70164817581868197810E9454
:10200000C72E698B7A8B8B8B9C8BF70160817181DA
:10201000828193810E94C72E00E010E02D853E85CD
:1020200049895A8980E090E00E947B0769857A851A
:10203000072E000C880B990B0E94FF2EF70160837E
:102040007183828393836B857C85072E000C880BBC
:10205000990B0E94FF2EF701648375838683978313
:1020600001E010E0F1E02F1A310885CF212C312C4E
:10207000B101032C000C880B990B0E94FF2EA301C9
:1020800092010E94B02D6D877E878F87988B20E00C
:1020900030E040E452E40E944B2E87FF66C020E00F
:1020A00030E0A901C501B4010E94B02D0E94C72EE5
:1020B0007A8769876D857E858F8598890E94C72E6E
:1020C0007C876B87F70160857185A601CE01099633
:1020D0000E944F08882309F43FC0F7010084F1856E
:1020E000E02DFE87ED87F7016481758186819781F8
:1020F0000E94C72E698B7A8B8B8B9C8BF70160813A
:102100007181828193810E94C72E00E010E02D85AD
:102110003E8549895A8980E090E00E947B07698565
:102120007A85072E000C880B990B0E94FF2EF70171
:1021300060837183828393836B857C85072E000C7B
:10214000880B990B0E94FF2EF701648375838683A9
:10215000978381E090E002C080E090E0FFEF2F1ACB
:102160003F0A892B09F484CFFDC0212C312CB10109
:10217000032C000C880B990B0E94FF2EA5019401E3
:102180000E94B02D6D877E878F87988B20E030E08E
:1021900048EA52E40E944B2E87FF66C06D857E851B
:1021A0008F8598890E94C72E7A87698720E030E062
:1021B000A901C301B2010E94B02D0E94C72E7C87E5
:1021C0006B87F70160857185A601CE0109960E9493
:1021D0004F08882309F43FC0F7010084F185E02D02
:1021E000FE87ED87F70164817581868197810E9462
:1021F000C72E698B7A8B8B8B9C8BF70160817181E9
:10220000828193810E94C72E00E010E02D853E85DB
:1022100049895A8980E090E00E947B0769857A8528
:10222000072E000C880B990B0E94FF2EF70160838C
:102230007183828393836B857C85072E000C880BCA
:10224000990B0E94FF2EF701648375838683978321
:1022500081E090E002C080E090E0FFEF2F1A3F0A9B
:10226000892B09F484CF7EC0212C312CB101032CA1
:10227000000C880B990B0E94FF2EA50194010E946F
:10228000B02D6D877E878F87988B20E030E0A90185
:102290000E946D3018160CF065C06D857E858F85A7
:1022A00098890E94C72E7A87698720E030E0A901CB
:1022B000C301B2010E94B02D0E94C72E7C876B879C
:1022C000F70160857185A601CE0109960E944F082D
:1022D000882309F43FC0F7010084F185E02DFE87D3
:1022E000ED87F70164817581868197810E94C72EF1
:1022F000698B7A8B8B8B9C8BF701608171818281DA
:1023000093810E94C72E00E010E02D853E8549890B
:102310005A8980E090E00E947B0769857A85072EC4
:10232000000C880B990B0E94FF2EF70160837183CC
:10233000828393836B857C85072E000C880B990B19
:102340000E94FF2EF701648375838683978381E063
:1023500090E002C080E090E0F1E02F1A3108892B74
:1023600009F484CF20E1E21621E0F20621F48D8900
:102370009E890E942D0C66960FB6F894DEBF0FBEA4
:10238000CDBFDF91CF911F910F91FF90EF90DF9024
:10239000CF90BF90AF909F908F907F906F905F9005
:1023A0004F903F902F9008956F927F928F929F92BF
:1023B000AF92BF92CF92DF92EF92FF920F931F9353
:1023C000CF93DF93CDB7DEB728970FB6F894DEBF73
:1023D0000FBECDBF3C015B01FB016781708581852C
:1023E000928520911A0130911B0140911C0150915E
:1023F0001D010E947A306B017C0100911E01109139
:102400001F01209110013091110140911201509152
:102410001301609114017091150180911601909142
:1024200017010E94D80C29833A834B835C836D8308
:102430007E838F8398876501730100E111E00E941C
:10244000550C21E090E0811120E0022F192F84E04B
:10245000882E912C012B19F400E010E01CC0C5015E
:102460000E942D0C6501730100E111E029813A8180
:102470004B815C816D817E818F8198850E94550C96
:1024800021E090E0811120E0022F192F8111E4CF8B
:10249000C5010E942D0CF1E08F1A9108D9F62896FB
:1024A0000FB6F894DEBF0FBECDBFDF91CF911F9165
:1024B0000F91FF90EF90DF90CF90BF90AF909F90E3
:1024C0008F907F906F900895CF92DF92EF92FF925E
:1024D000CF93DF93EC01C880D980EA80FB8020E0B5
:1024E00030E0A901C701B6010E944B2E20E030E088
:1024F00048EA52E487FF13C0C701B6010E94B02D1D
:10250000688379838A839B8320E030E048EA52E441
:10251000688579858A859B850E94B02D1CC0C7017E
:10252000B6010E946D301816D4F420E030E048EA7D
:1025300052E4C701B6010E94AF2D688379838A8374
:102540009B8320E030E048EA52E4688579858A85FB
:102550009B850E94AF2D688779878A879B87CC806F
:10256000DD80EE80FF8020E030E040E251E4C701F2
:10257000B6010E944B2E87FF1AC020E030E048E1F0
:1025800052E4C701B6010E94B02D6C837D838E8317
:102590009F8320E030E048E152E46C857D858E85A4
:1025A0009F850E94B02D6C877D878E879F87CC800A
:1025B000DD80EE80FF8020E030E040E452E4C7019F
:1025C000B6010E946D301816D4F420E030E048E1E6
:1025D00052E4C701B6010E94AF2D6C837D838E83C8
:1025E0009F8320E030E048E152E46C857D858E8554
:1025F0009F850E94AF2D6C877D878E879F87DF9197
:10260000CF91FF90EF90DF90CF9008952F923F925F
:102610004F925F926F927F928F929F92AF92BF92F2
:10262000CF92DF92EF92FF920F931F93CF93DF939E
:10263000CDB7DEB7CE5CD1090FB6F894DEBF0FBEC2
:10264000CDBF2C01C553DF4F79836883CB5CD0406D
:102650003C01212C312C82E1829DF001839DF00D03
:102660001124E40DF51D808980FFD7C0C3010E94AD
:102670004003AA966CAF7DAF8EAF9FAFAA97C30100
:1026800008960E944003A6966CAF7DAF8EAF9FAFB9
:10269000A697A20161E0CE018A599F4F0E949A033A
:1026A00081110CC0A20161E0CE018E599F4F0E94A2
:1026B0009A03811103C0C3010E946412B301CE01C9
:1026C00001960E9455048E010F5F1F4FA12CB12C63
:1026D000A2968FADA29790E0A816B90674F4F801FF
:1026E0006281738140E0808191810E94C527FFEF64
:1026F000AF1ABF0A0C5F1F4FEBCFC553DF4FE88106
:10270000F981CB5CD040C380D480E580F680F2E1D3
:10271000F29D5001F39DB00C1124A40CB51CC50111
:102720004096C353DF4F99838883CD5CD040F50139
:1027300080898695C353DF4FE881F981CD5CD04015
:102740009181292F279522272795022F082B91FB6E
:10275000112710F9065A1F4FF5012081318142815E
:10276000538164817581868197810E94D80CF5011F
:102770002083318342835383648375838683978365
:10278000C553DF4FE881F981CB5CD040C380D48052
:10279000E580F6804501F8E08F0E911CF5018089F7
:1027A0008695C353DF4FE881F981CD5CD04091819C
:1027B000292F279522272795022F082B91FB1127D8
:1027C00010F9065A1F4FF5012085F401318142812D
:1027D000538164817581868197810E94D80CF501AF
:1027E0002087F40131834283538364837583868316
:1027F0009783B301CE0186599F4F0E94550481E60D
:10280000FE01E659FF4FDE01119601900D928A9567
:10281000E1F7CE0101960E947203FFEF2F1A3F0AE3
:1028200082E1680E711C96E02916310409F013CF7D
:10283000C253DF4F0FB6F894DEBF0FBECDBFDF919E
:10284000CF911F910F91FF90EF90DF90CF90BF90AD
:10285000AF909F908F907F906F905F904F903F9040
:102860002F9008950F931F93CF93DF93FB01218146
:10287000233030F140E050E065E0649F9001659FB7
:10288000300D1124280F391F89010E541F4FF801F4
:10289000708170FD10C0E901CD54DF4F80E091E000
:1028A0000E944003688379838A839B83F801808137
:1028B0008160808305C04F5F5F4F44315105E9F669
:1028C000DF91CF911F910F91089580912001803762
:1028D00029F41092D102863629F408C01092D00251
:1028E0008C36B9F71092D202893611F01092D302C9
:1028F00008952F923F924F925F926F927F928F92A4
:102900009F92AF92BF92CF92DF92EF92FF920F937E
:102910001F93CF93DF93CDB7DEB7C156D1090FB662
:10292000F894DEBF0FBECDBF8C015B0180E090E06C
:10293000712CC12CF12C35E027E0389FF001399F34
:10294000F00D1124E00FF11FEE54FF4F408140FDC8
:10295000739486309105C4F4289FF001299FF00DEF
:102960001124E00FF11FE459FF4F408140FDF39423
:10297000289FF001299FF00D1124E00FF11FE1576E
:10298000FF4F408140FDC394019684319105A9F623
:1029900081E0C11001C080E0F81A80916F0080FFD3
:1029A00005C086E6A1968FAFA19704C094E7A196D3
:1029B0009FAFA197F501D2808D2D887F29F4F6E68F
:1029C000A296FFAFA29704C084E7A2968FAFA2970A
:1029D00060904602809147028F77E82E80914602F0
:1029E000909147029F772CE3822E912CB4010E9494
:1029F0002B31072E000C880B990B0E94FF2E0E9492
:102A00003A2F1B012C011F92A1969FADA1979F9376
:102A10001F92A296EFADA297EF93F801EB5DFE4FE8
:102A200080811F928F931F92FF921F92CF921F92CD
:102A30007F92F50181811F928F938D2D87701F9258
:102A40008F9380818F771F928F93862D9E2DB40157
:102A50000E942B319F938F93C201B1010E94C72E18
:102A60007F936F938EE491E09F938F931F928FE5F6
:102A70008F93CE0101967C019F938F930E943833F0
:102A80008C01FE01E80FF91F88E782830FB6F894E6
:102A9000DEBF0FBECDBFC12CD12C5801F9E3AF1A58
:102AA000B108C016D10654F4CA14DB041CF088E047
:102AB0000E944C238FEFC81AD80AF3CF0E94AA278E
:102AC000F70181917F01803219F00E944C23F8CFE9
:102AD000E12CF12C0B531109E016F1063CF488E0CF
:102AE0000E944C23FFEFEF1AFF0AF6CFCF59DF4FBA
:102AF0000FB6F894DEBF0FBECDBFDF91CF911F910F
:102B00000F91FF90EF90DF90CF90BF90AF909F908C
:102B10008F907F906F905F904F903F902F9008958F
:102B20008F929F92AF92BF92CF92DF92EF92FF92DD
:102B30000F931F93CF93DF93CDB7DEB7A0970FB658
:102B4000F894DEBF0FBECDBF4C015B018FEF8093C9
:102B500020010E941F23882331F00E94FC228093D1
:102B600020010E9439238091CD0286FD04C080910E
:102B70002001813639F5F501C780D084E184F284E3
:102B800004EB10E02091000130910101409102011D
:102B9000509103016091040170910501809106013B
:102BA000909107010E94D80C298F3A8F4B8F5C8F30
:102BB0006D8F7E8F8F8F98A36501740100E011E007
:102BC0000E94550C8091CE0286FD04C080912001A8
:102BD000843639F5F501C780D084E184F28400E0C1
:102BE00010E02091000130910101409102015091CB
:102BF000030160910401709105018091060190919B
:102C000007010E94D80C298B3A8B4B8B5C8B6D8B08
:102C10007E8B8F8B988F6501740100E011E00E941C
:102C2000550C8091CB0286FD04C08091200187372E
:102C300039F5F501C780D084E184F2840EE011E01B
:102C40002091000130910101409102015091030156
:102C50006091040170910501809106019091070136
:102C60000E94D80C29873A874B875C876D877E87BF
:102C70008F87988B6501740100E011E00E94550C6C
:102C80008091CC0286FD04C080912001833739F504
:102C9000F501C780D084E184F2840AE510E0209138
:102CA00000013091010140910201509103016091B6
:102CB00004017091050180910601909107010E9425
:102CC000D80C29833A834B835C836D837E838F8307
:102CD00098876501740100E011E00E94550C809115
:102CE0002001893659F48091D302811107C0B501C2
:102CF000C4010E94791481E08093D3028091CF02B5
:102D000086FF04C08091CF0287FF08C08091200118
:102D1000863681F48091D20281110CC0B501C401C4
:102D20000E9432148091CF0280688093CF0281E0AC
:102D30008093D2028091CA0286FF04C08091CA02A9
:102D400087FF08C0809120018C3691F48091D102D8
:102D500081110EC0F401EA5DFE4F8381846083839C
:102D60008091CA0280688093CA0281E08093D10278
:102D70008091C90286FF12C08091C90287FD0EC0F2
:102D800080914702982F991F9927991F8091480297
:102D90008F73880F892B90E0039744F48091200172
:102DA000803789F48091D00281110DC080916F002D
:102DB00091E0892780936F008091C9028068809399
:102DC000C9029093D00280E00E94942797FD0F964D
:102DD000BC0194E0759567959A95E1F7072E000C74
:102DE000880B990B0E94FF2E20E030E040E452E473
:102DF0000E94552EF50167837087818792878091A5
:102E00006F0080FF1DC081E00E949427925097FDC3
:102E10004F96BC0185E0759567958A95E1F7072E79
:102E2000000C880B990B0E94FF2E20E030E040EA56
:102E300052E40E94552EF501638374838583968343
:102E4000A0960FB6F894DEBF0FBECDBFDF91CF9135
:102E50001F910F91FF90EF90DF90CF90BF90AF90B8
:102E60009F908F9008953F924F925F926F927F92C2
:102E70008F929F92AF92BF92CF92DF92EF92FF928A
:102E80000F931F93CF93DF93CDB7DEB7C656D1090B
:102E90000FB6F894DEBF0FBECDBF7C016B0160E0C2
:102EA00071E080E191E00E9479098823F9F0F60150
:102EB0008281887F89F42A982B98A601B70180E047
:102EC00091E00E94150FF601828197E0980F9770AC
:102ED000887F892B828304C0F60181818F5F818383
:102EE000A601B70180E191E00E94150FB701635E72
:102EF0007E4F80E091E00E94010A882331F0F701C3
:102F0000EA5DFE4F8381846083835701FAEEAF1A36
:102F1000FEEFBF0AB50180E091E00E94010A88231C
:102F200099F1F6018281887F79F52A9A2B9A80910E
:102F30004602909147029F7765E070E00E942B3136
:102F4000F701EC5DFE4F8770982F990F990F990F3D
:102F50008081877C892B8083F601828187708065E0
:102F60008283F50180818E7F808335962081318137
:102F700032974081518132976081718100E010E089
:102F800080E090E00E947B075701FCE6AF0EB11C89
:102F9000812C912C97E0392E27018BED481A8EEF6A
:102FA000580A37019CED691A9EEF790AB50180E055
:102FB00091E00E94010A882309F43FC080E090E07C
:102FC00020E0389EF001399EF00D1124EE0DFF1D1A
:102FD000E459FF4F308130FD2F5F01968530910518
:102FE00081F7253049F49091460280914702F30120
:102FF000808190FB80F98083F60181818F5F8183DE
:10300000F20180818F5F8083389CF001399CF00D44
:103010001124EE0DFF1DE459FF4F80818E7F8083C8
:10302000F50125813681438154816181728100E0FF
:1030300010E080E090E00E947B07B5016D5D7F4F5E
:1030400080E091E00E94010A882309F44CC0F60157
:103050008281887F09F047C080E090E020E0389EC0
:10306000F001399EF00D1124EE0DFF1DE157FF4FC9
:10307000308130FD2F5F01968530910581F7253035
:1030800089F480914602909147029F7763E070E057
:103090000E942B318370982F990FF3018081897FD3
:1030A000892B8083F601828197E0980F9770887F43
:1030B000892B8283389CF001399CF00D1124EE0D90
:1030C000FF1DE157FF4F80818E7F8083F50120A592
:1030D00031A546A157A164A175A100E010E080E0F0
:1030E00090E00E947B07FFEF8F1A9F0A87E0A80EEF
:1030F000B11C95E08916910409F058CFA090080101
:10310000B090090160910401709105018091060160
:10311000909107010E94C72E2B013C016091000194
:103120007091010180910201909103010E94C72ECC
:1031300000E010E09501A201C7010E947B07892BE6
:1031400091F0F6018281887F71F4A601B70180E0D9
:1031500091E00E94150FF601828197E0980F977019
:10316000887F892B8283A0901801B090190160910B
:1031700014017091150180911601909117010E9420
:10318000C72E2B013C0160911001709111018091BB
:103190001201909113010E94C72E01E010E09501E9
:1031A000A201CE0101960E947B073701F3EB6F0E5F
:1031B000711C812C912C15E0189D5001199DB00CAB
:1031C0001124AE0CBF1C82EBA80EB11CF50180814E
:1031D00080FF16C0BE016F5F7F4FC3010E94F108E0
:1031E000882371F0A601B70180E191E00E94150FDC
:1031F000F50180818E7F8083F60181818F5F8183DD
:10320000FFEF8F1A9F0A85E0680E711C94E1891602
:10321000910491F6A12CB12CA7968EAD9FADA797E6
:10322000A816B906F8F4F501EE0FFF1FEE0FFF1F09
:1032300081E090E08C0F9D1FE80FF91F40815181C4
:1032400062817381C7010E94E406892B39F0A601CF
:10325000B70180E191E00E94150F04C09FEFA91A09
:10326000B90ADACFCA59DF4F0FB6F894DEBF0FBEE6
:10327000CDBFDF91CF911F910F91FF90EF90DF9025
:10328000CF90BF90AF909F908F907F906F905F9006
:103290004F903F900895CF92DF92EF92FF920E945D
:1032A000BD2721E047E951E060E070E080E090E078
:1032B0000E94A22921E04DE951E06AE070E080E03F
:1032C00090E00E94A22921E047EA51E064E170E029
:1032D00080E090E00E94A2290E94AA27C12CD12C54
:1032E00076018091C90286FD08C00E948C0B8FEF89
:1032F000C81AD80AE80AF80AF4CF8091C90287FDF3
:10330000F4CF80688093C902C601FF90EF90DF90F0
:10331000CF900C9403320E94BD270E94392321E0F4
:103320004AEA51E060E070E080E090E00E94A2296B
:1033300021E045EB51E06AE070E080E090E00E941F
:10334000A22921E04FEB51E064E170E080E090E0E1
:103350000E94A2290E94AA278091C90286FD03C06B
:103360000E948C0BF9CF8091C90287FDF9CF80684C
:103370008093C9020895AF92BF92CF92DF92FF92DD
:103380000F931F93CF93DF93CDB7DEB729970FB677
:10339000F894DEBF0FBECDBF8C016A01CE0101964D
:1033A0009F938F9302969F938F9302969F938F93F1
:1033B00002969F938F9302969F938F938BEC91E04D
:1033C0009F938F937F936F930E9468330E94AA27E5
:1033D0000FB6F894DEBF0FBECDBF8985843529F1C5
:1033E000873599F18A3409F092C0F801EA5DFE4F01
:1033F0008F81282F2295220F207E91819F71922B01
:103400009183982F9695969596958D81282F229544
:10341000207F9F70922B928382958F70982F93704C
:1034200083818C7F892B838370C0F801EA5DFE4F16
:103430009F818D8180FB97F990838695982F9F714E
:103440008181807E892B818360C0F601808192E139
:10345000F92E5801F89EA00CB11C11246F817885BB
:10346000072E000C880B990B0E94FF2EF50160833C
:10347000718382839383F60180815801F89EA00CAA
:10348000B11C11246D817E81072E000C880B990BD5
:103490000E94FF2EF5016483758386839783F6016E
:1034A00080815801F89EA00CB11C11246B817C8195
:1034B000072E000C880B990B0E94FF2EF5016087E8
:1034C000718782879387F60180815801F89EA00C4E
:1034D000B11C112469817A81072E000C880B990B8D
:1034E0000E94FF2EF5016487758786879787F6010E
:1034F0008081F801F89EE00DF11D11248089816022
:10350000808BF60180818F5F808381E001C080E045
:1035100029960FB6F894DEBF0FBECDBFDF91CF91D5
:103520001F910F91FF90DF90CF90BF90AF900895C3
:103530003F924F925F926F927F928F929F92AF9243
:10354000BF92CF92DF92EF92FF920F931F93CF9390
:10355000DF93CDB7DEB7C159D1090FB6F894DEBFFE
:103560000FBECDBF4C010E94BD2721E04BED51E0C5
:1035700060E070E080E090E00E94A22921E04DEE42
:1035800051E06AE070E080E090E00E94A22921E032
:103590004EEF51E064E170E080E090E00E94A229EB
:1035A0000E94AA27CF56DF4F1882C159D0400E94EF
:1035B000BD278E010F5F1F4FC12CD12C412C38012C
:1035C0004CE0342EE12CF12C3C9C50013D9CB00C85
:1035D0001124A60CB71C0E94FC22582E8FEF581203
:1035E00002C04420C1F321E048E052E060E070E016
:1035F00080E090E00E94A22921E04FE568E270E0BF
:10360000C701880F991F880F991F0E9441299AE0CE
:10361000591661F08FEF581649F0F501EE0DFF1DB8
:1036200050829FEFE91AF90A512C02C05524539495
:103630000E94AA2744244394552069F2AE014F56B4
:103640005F4FB801C4010E94BB199FEFC91AD90A84
:10365000045F1F4F8111B6CF21E043E152E060E0EB
:1036600070E080E090E00E94A22921E041E252E077
:103670006AE070E080E090E00E94A22900E010E0A3
:1036800021E040E268E270E0C8010E9441290B5F3E
:103690001F4F09361105A1F70E94AA278091C90280
:1036A00086FD03C00E948C0BF9CF8091C90287FD73
:1036B000F9CF80688093C902CF56DF4F0FB6F894D8
:1036C000DEBF0FBECDBFDF91CF911F910F91FF9055
:1036D000EF90DF90CF90BF90AF909F908F907F90B2
:1036E0006F905F904F903F900895CF93DF93CDB749
:1036F000DEB72E970FB6F894DEBF0FBECDBFFE012A
:10370000389627E0DF011D922A95E9F79E878D877D
:1037100087E0DE01119601900D928A95E1F72981EB
:103720003A814B815C816D817E818F8190E02E9604
:103730000FB6F894DEBF0FBECDBFDF91CF910895D5
:103740002F923F924F925F927F928F929F92AF9271
:10375000BF92CF92DF92EF92FF920F931F93CF937E
:10376000DF938C01EB017B012AEDE21A2EEFF20AC6
:10377000F70183818B7F838331971082319780811A
:10378000807C808388898E7F888B8AA18E7F8AA3A4
:103790008CA98E7F8CAB6B01F6E4CF0ED11CF601A9
:1037A00080818E7F8083729680818E7F80837296E7
:1037B00080818E7F8083F80180818F77813009F04E
:1037C0008DC00E94392380EBF701828383818C7F37
:1037D00083838FEC808383E18183C8010E942D0C59
:1037E00080E090E0A0E9B1E488839983AA83BB8359
:1037F00080E090E0A0E7B1E48C839D83AE83BF833B
:1038000080E090E0A0E5B1E488879987AA87BB872C
:1038100080E090E0A8ECB1E48C879D87AE87BF87FD
:1038200028892160288B8A8B9B8BAC8BBD8B40E0D9
:1038300050E06CE072E44E8B5F8B688F798F8A8FDB
:103840009B8FAC8FBD8F40E050E064E372E44E8FFD
:103850005F8F68A379A32AA121602AA34CA35DA34B
:103860006EA37FA340E050E060E271E448A759A74F
:103870006AA77BA7812C912C20E7A22E22E4B22EEE
:103880008CA69DA6AEA6BFA648AB59AB6AAB7BABD8
:103890002CA921602CAB40E050E068E672E44EAB0E
:1038A0005FAB68AF79AF8AAF9BAFACAFBDAF80E025
:1038B00090E0A0E9B2E4FE01FE9680839183A283AA
:1038C000B38380E090E0A0EFB1E4349680839183ED
:1038D000A283B383F601808181608083F8018081B7
:1038E0008F778230B1F40E94E022F0906F008091D7
:1038F0006F008E7F80936F00B801CE010E94981AEE
:1039000090916F009E7F8F2D8170F92EF82AF09292
:103910006F007E01A12CB12C92E1792EF701248158
:1039200035814681578164857585868597850E9496
:10393000AF2D1B012C01F701208131814281538180
:1039400060857185828593850E94AF2D9B01AC01B6
:10395000C201B1010E94552E0E941C2E20E030E0D1
:1039600044E353E40E947A302BED3FE049E450E415
:103970000E94552E0E94E7307A9C60017B9CD00CFF
:103980001124CC0EDD1E4601F0E18F0E911C0E9429
:10399000CE2E962F990FF60180898170892B808B0E
:1039A000661F6627661FF40181818E7F682B70FB7E
:1039B00061F96183FFEFAF1ABF0A22E1E20EF11C49
:1039C00086E0A816B10409F0A9CFA801BE0180E0E5
:1039D00091E00E94150FA801BE0180E191E00E94D4
:1039E000150FC12CD12C87E0B82EBC9C8001BD9C4A
:1039F000100D11240C0F1D1F7801ECE6EE0EF11CCA
:103A00008DE291E00E94751BF70120833183428390
:103A1000538364837583868301571F4F85E291E04A
:103A20000E94751BF8012083318342835383648392
:103A300075838683FFEFCF1ADF0A25E0C216D10413
:103A4000A1F680E090E035E0389FF001399FF00D5D
:103A50001124EC0FFD1FEE54FF4F20812E7F208399
:103A600001968431910581F78E01035E1E4F89E234
:103A700091E00E94751BF8012083318342835383B8
:103A8000648375838683CA5EDE4F81E291E00E9483
:103A9000751B288339834A835B836C837D838E8384
:103AA000DF91CF911F910F91FF90EF90DF90CF901A
:103AB000BF90AF909F908F907F905F904F903F907E
:103AC0002F900C94BD279F92AF92BF92CF92DF921E
:103AD000EF92FF920F931F93CF93DF9300D000D00C
:103AE000CDB7DEB77C018B01DB011596ED91FC9122
:103AF0001697838181FD03C033E0932E02C025E039
:103B0000922E0E94FE3164E570E00E942B319A8370
:103B100089830E94FE3166E270E00E942B310A9692
:103B20009C838B8384E5C82ED12C96E2A92EB12CE0
:103B3000A701692DCE0101960E949A03811110C040
:103B40000E94FE31B6010E942B319A8389830E9424
:103B5000FE31B5010E942B310A969C838B83E8CFFE
:103B6000F80165817681A701CE0101960E944F0878
:103B7000882331F341E050E0B701C8010E94750A83
:103B80008823F1F289819A81AB81BC81F80181831C
:103B90009283A383B4838081816080830F900F9090
:103BA0000F900F90DF91CF911F910F91FF90EF90A9
:103BB000DF90CF90BF90AF909F90089520E030E0CD
:103BC00047E0429FB001439F700D1124FC01E60FB6
:103BD000F71FE459FF4F508150FD06C064597F4FD5
:103BE000680F791F0C94631D2F5F3F4F25303105FF
:103BF00041F70895EF92FF920F931F93CF93DF93B6
:103C0000CDB7DEB727970FB6F894DEBF0FBECDBF96
:103C1000FC01208120FD36C07B018C0189818160FF
:103C2000898380E191E00E9440036A837B838C83D7
:103C30009D83F801858196819F838E8340E050E0CB
:103C4000B701CE0101960E94750A8823D9F0EE8152
:103C5000FF81838181FD02C063E001C065E0A701AF
:103C6000CE0102960E949A03882361F080E191E0E0
:103C70000E944003F801618372838383948380816F
:103C80008160808327960FB6F894DEBF0FBECDBF4C
:103C9000DF91CF911F910F91FF90EF9008952F9298
:103CA0003F924F925F926F927F928F929F92AF92CC
:103CB000BF92CF92DF92EF92FF920F931F93CF9319
:103CC000DF93EC017B018091480286FF62C1FB011A
:103CD000828186958695869509F4F8C085B18B7F9B
:103CE0002B9B02C090E001C094E0892B85B985B17F
:103CF000877F2B9B02C090E001C098E0892B85B99B
:103D0000F701828188508283887F09F0DFC02A987A
:103D10002B9885E391E090930901809308016091CD
:103D200004017091050180910601909107010E94A4
:103D3000E7302B013C0160910001709101018091FD
:103D40000201909103010E94E7304B015C01C30125
:103D5000B2010E94C72E2B013C01C501B4010E9493
:103D6000C72E00E010E021E331E0A20180E090E006
:103D70000E947B076091040170910501809106010A
:103D8000909107010E94E7302B013C0160910001F6
:103D90007091010180910201909103010E94E7302E
:103DA0004B015C01C301B2010E94C72E2B013C01F3
:103DB000C501B4010E94C72E6F5F7F4F21E331E040
:103DC000A20180E090E00E947B0760910401709165
:103DD000050180910601909107010E94E7302B01B7
:103DE0003C0160910001709101018091020190916C
:103DF00003010E94E7304B015C01C301B2010E9444
:103E0000C72E2B013C01C501B4010E94C72E615091
:103E1000710921E331E0A20180E090E00E947B077C
:103E20006091040170910501809106019091070154
:103E30000E94E7302B013C0160910001709101016B
:103E400080910201909103010E94E7304B015C01D7
:103E5000C301B2010E94C72E6B01FFEFCF1ADF0A28
:103E6000C501B4010E94C72E21E331E0A60180E024
:103E700090E00E947B0760910401709105018091A0
:103E80000601909107010E94E7302B013C016091EF
:103E900000017091010180910201909103010E9443
:103EA000E7304B015C01C301B2010E94C72E6B01D8
:103EB00021E0C21AD108C501B4010E94C72E21E336
:103EC00031E0A60180E090E00E947B0780914602ED
:103ED00020914702922F9F77892B09F455C080913A
:103EE000460220914702922F9F776E01ECEDCE1A89
:103EF000EEEFDE0AF601208120FB222420F8312C8F
:103F00008219930980FD03C0CE010E94DE1D8091BD
:103F1000460220914702922F9F77F6012081269535
:103F20002370821B910963E070E00E942B31892B82
:103F300061F080914602909147029F7765E070E0C2
:103F40000E942B31892BA1F01FC06E01FFE8CF0E1C
:103F5000D11C5E0122EBA20EB11CCA14DB0449F392
:103F6000BE01C6010E94FA1D87E0C80ED11CF5CF24
:103F7000F70180818F7790E0029734F0BE01CE0187
:103F80008A5E9E4F0E94FA1D809148028F7B80932B
:103F900048028091480287FF19C0F701638174814C
:103FA0008581968120E030E0A9010E944B2E882374
:103FB00021F0B701CE010E940613B701CE010E9485
:103FC000D411809148028F7780934802DF91CF917E
:103FD0001F910F91FF90EF90DF90CF90BF90AF9027
:103FE0009F908F907F906F905F904F903F902F9019
:103FF0000895EF92FF920F931F93CF93DF93FB01EE
:1040000006E412E0D8018C91C7E4D2E098819F7752
:104010002CE3E22EF12CB7010E942B317F936F939A
:1040200081811F928F93828187701F928F938081ED
:104030008F771F928F938CE292E09F938F931F92C2
:104040001F921F921F920E941803F801808198818D
:104050009F77B7010E942B319F938F9381E492E069
:104060009F938F931F921F921F9285E48F930E94BC
:10407000180301E02AE030E044E550E06AE070E037
:1040800080E090E00E94ED278DB79EB746960FB670
:10409000F8949EBF0FBE8DBFDF91CF911F910F91FE
:1040A000FF90EF9008959F92AF92BF92CF92DF92D0
:1040B000EF92FF920F931F93CF93DF93EC017C015C
:1040C0008DE6E80EF11CC12CD12C97E0B92EBC9CDA
:1040D000F001BD9CF00D1124EC0FFD1FE459FF4FC2
:1040E000808180FF0DC0F701248135814281538199
:1040F0006081718101E010E080E090E00E947B0728
:10410000BC9CF001BD9CF00D1124EC0FFD1FE1578C
:10411000FF4F808180FF0DC0F70127A130A545A189
:1041200056A163A174A101E010E080E090E00E943C
:104130007B07FFEFCF1ADF0A87E0E80EF11CE5E00E
:10414000CE16D10421F6FE01E35EFE4F808180FF92
:104150000FC035962081318132974081518132974D
:104160006081718101E010E080E090E00E947B07B7
:10417000FE01EA5EFE4F808180FF0FC035962081F0
:10418000318132974081518132976081718101E0A4
:1041900010E080E090E00E947B075E01F3EBAF0E41
:1041A000B11CC12CD12C85E0982E9C9CF0019D9CCB
:1041B000F00D1124EC0FFD1FEE54FF4F808180FFA6
:1041C00024C0F50100811181E280F38040E0B70155
:1041D000C80101960E94C52740E0B701C8010197B8
:1041E0000E94C527B7016F5F7F4F40E0C8010E9462
:1041F000C527B7016150710940E0C8010E94C52779
:1042000041E0B701C8010E94C527FFEFCF1ADF0ABE
:1042100085E0A80EB11CE4E1CE16D10431F6C091C0
:104220000801D0910901609104017091050180910C
:104230000601909107010E94C72E6B017C016091DD
:1042400000017091010180910201909103010E948F
:10425000C72E01E010E09E01A60180E090E00E94E0
:104260007B07C0911801D0911901609114017091E0
:10427000150180911601909117010E94C72E6B01C4
:104280007C01609110017091110180911201909157
:1042900013010E94C72E9E01A60180E090E00E94BB
:1042A0007B07DF91CF911F910F91FF90EF90DF90EF
:1042B000CF90BF90AF909F9008954F925F926F9272
:1042C0007F928F929F92AF92BF92CF92DF92EF92A6
:1042D000FF920F931F93CF93DF93CDB7DEB7C156F5
:1042E000D1090FB6F894DEBF0FBECDBF6C017B01C4
:1042F0000E948C0B0E946514F6018281887F8035B4
:1043000089F581E391E09093090180930801609120
:1043100004017091050180910601909107010E94AE
:10432000E7304B015C0160910001709101018091C7
:104330000201909103010E94E7302B013C01C5016D
:10434000B4010E94C72E4B015C01C301B2010E945F
:10435000C72E00E010E025E331E0A40180E090E00A
:104360000E947B07F6018281877021F4838581603A
:10437000838759C080916F0080FF04C0B601C701D8
:104380000E944F1E80916F0080FF03C0C7010E94F2
:10439000C70DF701EB5DFE4F8081853050F0B7010E
:1043A000635E7E4FFB01808180FD03C0C7010E94D8
:1043B000631DB601C7010E949015B601C7010E9496
:1043C000331780916F0080FD22C0570100E010E09C
:1043D00082E1982E909EF001919EF00D1124EE0D39
:1043E000FF1D808980FF09C0B501CE0101960E94A2
:1043F0005504CE0101960E9472030F5F1F4FF2E138
:10440000AF0EB11C0630110529F72A982B98B6017A
:10441000C7010E94F91FC7010E945320F60183853E
:1044200080FF0E94AA27CF59DF4F0FB6F894DEBF56
:104430000FBECDBFDF91CF911F910F91FF90EF90F5
:10444000DF90CF90BF90AF909F908F907F906F90B4
:104450005F904F900895CF93DF93CDB7DEB7C653EB
:10446000D1400FB6F894DEBF0FBECDBFCA5CDE4FA1
:104470008881C653D1408E7FCA5CDE4F8883C65385
:10448000D140C45DDE4F1882CC52D140CE5CDE4FAD
:1044900088819981AA81BB81C253D140C25DDE4F20
:1044A00088819981AA81BB81CE52D14085E0C35DCC
:1044B000DE4F8883CD52D14085E391E0909309018E
:1044C0008093080110924602809147028078809381
:1044D0004702809147028F7780934702809148027C
:1044E000807C80934802809148028F7B80934802B1
:1044F000809148028F778093480280916F0081609D
:1045000080936F00C55DDE4F8881CB52D1408078AB
:104510008160C55DDE4F8883CB52D140CA5CDE4FDF
:104520008881C653D14080FD33C0C55DDE4F888190
:10453000CB52D1408F7790E0039754F5BE016F5F67
:104540007F4FCE01855D9E4F0E94A01BCA5CDE4F4F
:104550008881C653D14080FD10C0C65DDE4F888182
:10456000CA52D14082FD09C0BE016F5F7F4FCE01AC
:10457000855D9E4F0E945D21E9CFC55DDE4F88813C
:10458000CB52D14091E0980F9F778078892BC1CF93
:104590000E948B19CA5CDE4F0FB6F894DEBF0FBEC7
:1045A000CDBFDF91CF9108950E94C40A0E944B199C
:1045B0000E942B22FDCF8091E80080FFFCCF089560
:1045C00081E08093D70080EA8093D80082E189BDA2
:1045D00009B400FEFDCF80E98093D8001092E0007E
:1045E00010925C02109259028CE08093E200789461
:1045F000089580915C0208959FB7F89480915C02C1
:10460000882369F083E08093E9002BE68091E8003D
:1046100085FD09C082FF03C02093E800F7CF9FBF4C
:104620008FEF9FEF08958091F1002091E80025FD24
:1046300003C02BE62093E8009FBF90E008952FB7BA
:10464000F89480915C02811102C080E010C083E088
:104650008093E9008091F200811109C09091E800F7
:1046600092FFF3CF95FDF1CF9BE69093E8002FBF2B
:10467000089580915C02882371F08FB7F89493E0DD
:104680009093E9002BE69091E80095FF03C02093FA
:10469000E800F9CF8FBF089590915C02992371F0E3
:1046A0009FB7F89424E02093E90020915A02222336
:1046B00049F02091E80025FD03C09FBF8FEF0895CA
:1046C00010925A022091E400275E34E04091E80005
:1046D00045FD12C09FBF9091E400291304C081E002
:1046E00080935A02EBCF90915C02992339F39FB7E4
:1046F000F8943093E900EACF8093F1008091E800CC
:1047000085FD03C08AE38093E80085E080935B0227
:104710009FBF80E0089590915C029923D1F09FB7EC
:10472000F89424E02093E9002091E80025FD02C0E0
:104730009FBF0FC08093F1008091E80085FD03C00A
:104740008AE38093E80085E080935B029FBF80E06E
:1047500008958FEF08950F931F93CF93DF93DC019C
:10476000CB0120915C02222371F02FB7F89434E042
:104770003093E90030915A02332349F03091E80038
:1047800035FD03C02FBF8FEF43C110925A02C4E022
:10479000D0E41AE305E0009709F439C13091E40050
:1047A000375E4091E80045FD12C02FBF2091E40024
:1047B000321304C081E080935A02E5CF20915C025D
:1047C000222309F32FB7F894C093E900EACF309180
:1047D000F200ED2FE31B4E2F50E08417950708F4ED
:1047E000E82F8E1B91094E2F50E04134510508F0FF
:1047F00001C1FA01E35AFF4F0C9461313C913093AF
:10480000F10011963C913093F10011963C91309358
:10481000F10011963C913093F10011963C91309348
:10482000F10011963C913093F10011963C91309338
:10483000F10011963C913093F10011963C91309328
:10484000F10011963C913093F10011963C91309318
:10485000F10011963C913093F10011963C91309308
:10486000F10011963C913093F10011963C913093F8
:10487000F10011963C913093F10011963C913093E8
:10488000F10011963C913093F10011963C913093D8
:10489000F10011963C913093F10011963C913093C8
:1048A000F10011963C913093F10011963C913093B8
:1048B000F10011963C913093F10011963C913093A8
:1048C000F10011963C913093F10011963C91309398
:1048D000F10011963C913093F10011963C91309388
:1048E000F10011963C913093F10011963C91309378
:1048F000F10011963C913093F10011963C91309368
:10490000F10011963C913093F10011963C91309357
:10491000F10011963C913093F10011963C91309347
:10492000F10011963C913093F10011963C91309337
:10493000F10011963C913093F10011963C91309327
:10494000F10011963C913093F10011963C91309317
:10495000F10011963C913093F10011963C91309307
:10496000F10011963C913093F10011963C913093F7
:10497000F10011963C913093F10011963C913093E7
:10498000F10011963C913093F10011963C913093D7
:10499000F10011963C913093F10011963C913093C7
:1049A000F10011963C913093F10011963C913093B7
:1049B000F10011963C913093F10011963C913093A7
:1049C000F10011963C913093F10011963C91309397
:1049D000F10011963C913093F10011963C91309387
:1049E000F10011963C913093F10011963C91309377
:1049F000F10011963C913093F10011963091E8004E
:104A000035FF1093E80000935B022FBFC4CE80E017
:104A1000DF91CF911F910F9108958FB7F8949091E6
:104A20005B02992341F094E09093E9009AE390931C
:104A3000E80010925B028FBF089560913D01709174
:104A40003E0180913F019091400108958091410184
:104A500008958091420108958091430108958091C5
:104A6000590208959FB7F89420915C02222339F0EF
:104A700022E02093E9002091E80025FD03C09FBFBC
:104A80008FEF089521EA2093F10020E22093F100B6
:104A90001092F1001092F1001092F1001092F100CA
:104AA00021E02093F1001092F1008093F1008AE35D
:104AB0008093E8009FBF80E008951F920F920FB689
:104AC0000F9211248F939F938091E1001092E10047
:104AD00083FF11C01092E90091E09093EB001092D7
:104AE000EC0092E19093ED0098E09093F00010922A
:104AF0005C021092590282FF13C080915C028823ED
:104B000079F080915B02882359F0815080935B0299
:104B1000811106C084E08093E9008AE38093E80075
:104B20009F918F910F900FBE0F901F9018951F921D
:104B30000F920FB60F921124FF920F931F932F9392
:104B40003F934F935F936F937F938F939F93AF9315
:104B5000BF93CF93DF93EF93FF931092E90080917F
:104B6000E80083FF17C1F090F1008091F1000091FF
:104B7000F1009091F10010E0192BC091F10090919B
:104B8000F100D0E0D92B2091F1006091F10092EF7B
:104B90009093E800863009F049C086E992E040EC45
:104BA00052E0FC01A591B4910A171B07D9F4FC014E
:104BB0003296A591B491CA17DB07A1F4FC01349693
:104BC00045915491FC013696849130E0362B2F3F6D
:104BD000310519F010F02FEF30E0281708F4822F7C
:104BE0003EEF0CC0079648175907D9F6D3C0490FB6
:104BF000511D891B3093E8008823A9F09091E800AB
:104C0000292F2570D9F392FDC8C0982F813108F063
:104C100090E1FA01292F222351F364916093F1006E
:104C200021503196F8CF903149F3B7C0853049F41F
:104C30008EEF8093E8000E94DB2200680093E3007F
:104C4000ACC0893059F5F110A5C000935C021092F8
:104C5000590210925B028EEF8093E80041E085E5F7
:104C600093E04093E9009C012F5F3F4FFC0154917A
:104C70005093EB00552359F0F90124912093EC0057
:104C80009C012D5F3F4F3196E491E093ED004F5F23
:104C9000453011F0C901E5CF8EE177C0883051F47D
:104CA000F0E8FF1277C00E94DB2280915C028093C3
:104CB000F10049C0813281F481EAF8126BC00E9490
:104CC000DB22EDE3F1E084E491E021912093F10017
:104CD0008E179F07D1F737C08032A9F491E2F912FD
:104CE00059C08091E80082FFFCCFEDE3F1E084E45D
:104CF00091E02091F10021938E179F07D1F78BEF60
:104D00008093E80020C0823241F4E1E2FE1242C00A
:104D1000009359020E94DB2216C0811118C00E9424
:104D2000DB22F2E8FF120AC0C093E9008091EB0099
:104D300085FB882780F91092E90001C080E080930C
:104D4000F1001092F1008EEF8093E80026C0982FBA
:104D50009D7F9130F9F492E0F9121CC0012BD1F43F
:104D6000CF779FEF9C0F9430A8F49EEF9093E800CC
:104D7000C093E900833071F089E18093EB0081E01A
:104D800090E001C0880FCA95EAF78093EA0010927C
:104D9000EA0003C081E28093EB00FF91EF91DF9185
:104DA000CF91BF91AF919F918F917F916F915F91C3
:104DB0004F913F912F911F910F91FF900F900FBE38
:104DC0000F901F9018959B01AC01F89460E079E07A
:104DD0008DE390E00E943F31DA01C9010197A109FA
:104DE000B109B695A795979587959093CD00809337
:104DF000CC0082E08093C80088E98093C90086E0F7
:104E00008093CA0010929F021092A00210925D023D
:104E100010925E02789408959091A0029F5F98325C
:104E200008F090E020919F029217E1F3E92FF0E063
:104E3000EF55FD4F80839093A00288EB8093C900CB
:104E4000089590915E0280915D029817D1F3909140
:104E50005D029F5F903408F090E0E92FF0E0E15AA6
:104E6000FD4F808190935D02089580915E02909144
:104E70005D02891708F4805C891B08951F920F92C8
:104E80000FB60F9211248F939F93EF93FF939091FE
:104E9000A00280919F02981304C088E98093C90002
:104EA0000FC080919F028F5F883208F080E0E82F6A
:104EB000F0E0EF55FD4F90819093CE0080939F02DC
:104EC000FF91EF919F918F910F900FBE0F901F90C8
:104ED00018951F920F920FB60F9211242F938F9354
:104EE0009F93EF93FF939091CE0080915E028F5F2E
:104EF000803408F080E020915D02821739F0E82FBD
:104F0000F0E0E15AFD4F908380935E02FF91EF91B4
:104F10009F918F912F910F900FBE0F901F9018951A
:104F200087E880937A000895982F9F7190649093FA
:104F30007C00807280937B0080917A0080648093F3
:104F40007A0080917A0086FDFCCF80917800909164
:104F500079000895CF93DF9360E080E00E94262AD5
:104F6000C4EDD2E0699181E00E94CB2984E0CC3C81
:104F7000D807C1F7DF91CF910895E4EDF2E01192E7
:104F800084E0EC3CF807D9F70895DC019B018435F7
:104F90009105F8F420333105E0F4C90133E095952B
:104FA00087953A95E1F734E5389FF001399FF00D88
:104FB0001124EA0FFB1FEC52FD4F3081277081E076
:104FC00090E001C0880F2A95EAF7452B19F0832B52
:104FD0008083089580958323FBCF2F923F924F9239
:104FE0005F926F927F928F929F92AF92BF92CF9279
:104FF000DF92EF92FF920F931F93CF93DF93CDB782
:10500000DEB72C970FB6F894DEBF0FBECDBF8B87EF
:105010009C877B016A0159012B853C852417350744
:10502000A1F56B0113C081E0C81AD1080FC0CA14E2
:10503000DB0494F0A801B6018B859C850E94C527EE
:10504000EA14FB0484F73FEFC31AD30AEA14FB0403
:1050500074F7AC14BD0474F72C960FB6F894DEBF49
:105060000FBECDBFDF91CF911F910F91FF90EF90B9
:10507000DF90CF90BF90AF909F908F907F906F9078
:105080005F904F903F902F9008956A157B0501F532
:10509000AB84BC8414C021E0A21AB10810C0AC14C7
:1050A000BD04D4F2A801B701C5010E94C527AB8594
:1050B000BC85AC15BD057CF7BFEFAB1ABB0A8B8571
:1050C0009C858C159D055CF7CA14DB045CF7C4CF86
:1050D000AB85BC854A175B0754F48F2D7501A62E4E
:1050E000B82E9B858C855C874B87C92ED82E3601C0
:1050F0002B853C85621A730A45018E189F08C401EE
:10510000092C000CAA0BBB0B89839A83AB83BC834D
:10511000BC01CD010E94FF2E1B012C01C301072CF5
:10512000000CAA0BBB0B89839A83AB83BC83BC01A5
:10513000CD010E94FF2E9B01AC0129823A824B8255
:105140005C8269817A818B819C810E94552E462FD9
:10515000572FBC014D835E836F83788720E030E05A
:10516000A9016D817E818F8198850E946D3087FFB6
:1051700009C08D819E81AF81B885B0588D839E8393
:10518000AF83B887512C412C312C212C892D881FBD
:105190008827881FA82FB0E0BA87A987161417049C
:1051A0000CF068C02B853C85C216D3060CF454CF96
:1051B000A801B7018B859C850E94C5272D813E8162
:1051C0004F81588559824A823B822C8269817A813B
:1051D0008B819C810E94B02D562E472E382E292E71
:1051E00020E030E040E05FE369837A838B839C8337
:1051F00069817A818B819C810E946D3087FD06C018
:105200001814190464F4AE14BF0464F416141704DB
:105210005CF58B859C8501969C878B87BFCFEA14B4
:10522000FB04A4F3A801B7018B859C850E94C527C8
:1052300081E090E01814190414F090E080E02985D2
:105240003A85821B930BE80EF91E20E030E040E81F
:105250005FE359824A823B822C8269817A818B8109
:105260009C810E94AF2DB8CFAB85BC851197BC87C0
:10527000AB8794CF8B859C858C159D050CF098CFC2
:10528000EBCE4F925F926F927F928F929F92AF92EE
:10529000BF92CF92DF92EF92FF920F931F93CF9323
:1052A000DF933B0159014052550B65E0649F90012B
:1052B000659F300D1124A901415A5C4F7A01EC0120
:1052C0002C0155E0450E511C88248394912CF70144
:1052D000C490A114B10409F4C09410E000E0D12CF2
:1052E000A401002E02C0440F551F0A94E2F74C217E
:1052F0005D21002E02C0559547950A94E2F7B3014F
:10530000600F711FCE010E94C5270F5F1F4F08302D
:10531000110531F7FFEFEF1AFF0A2196C415D505E5
:10532000B1F6DF91CF911F910F91FF90EF90DF9039
:10533000CF90BF90AF909F908F907F906F905F9035
:105340004F900895CF92DF92EF92FF920F931F93A9
:10535000CF93DF93F62EE72E8A01D22EC32EC82FCD
:10536000D0E0F801ED0FF11D4081411109C0DF913E
:10537000CF911F910F91FF90EF90DF90CF90089504
:105380002D2D3C2D6F2D7E2D8C2F90E00E944129DC
:10539000CB5FDF5FE6CF95B19F7D40E2849F9001B8
:1053A0001124922B95B95F9887E090E070E08F9878
:1053B0009B01082E02C0359527950A94E2F720FF3D
:1053C00006C02E9A8F9A019790F75F9A08952E98AB
:1053D000F9CFCF93C82F579A249A259A269A879A5D
:1053E0002C985F9A2C9A61E280E00E94CB296C2F66
:1053F000606880E00E94CB2964E080E00E94CB29B5
:1054000063E180E00E94CB296CE080E00E94CB2920
:1054100060E280E00E94CB296CE080E00E94CB2912
:1054200060E480E00E94CB2960E880E0CF910C949A
:10543000CB29CF93DF93C8EFD1E060E081E00E94F9
:10544000CB292197D1F7DF91CF910895CF93C82F22
:10545000606480E00E94CB296C2F606880E0CF916F
:105460000C94CB29A0E1B0E0E8E3FAE20C946731B8
:105470007C011B016A01FC0117821682838181FF76
:1054800044C39E012F5F3F4F3901F7019381F10122
:1054900093FD859193FF81911F01882309F431C306
:1054A000853239F493FD859193FF81911F018532F7
:1054B00039F4B70190E00E94FC3256016501E5CF56
:1054C00010E0512C912CFFE1F915D8F08B3279F0D6
:1054D00038F4803279F08332A1F4F92DF0612EC0D6
:1054E0008D3261F0803369F4292D21602DC0392D72
:1054F0003260932E892D8460982E2AC0E92DE860B1
:1055000015C097FC2DC020ED280F2A3088F496FE98
:1055100006C03AE0139F200D1124122F19C08AE013
:10552000589E200D1124522EE92DE0629E2E10C0AF
:105530008E3231F496FCE5C2F92DF0649F2E08C03E
:105540008C3621F4292D2068922E02C0883641F431
:10555000F10193FD859193FF81911F018111B3CFDB
:105560009BEB980F933020F4992D9061805E07C0DB
:105570009BE9980F933008F066C1992D9F7E96FFA6
:1055800016E09F73992E853619F49064992E08C001
:10559000863621F4392F3068932E02C01111115034
:1055A00097FE07C01C3350F444244394410E27E077
:1055B0000BC0183038F027E017E005C027E09CE367
:1055C000492E02C0212F412C560184E0A80EB11CA7
:1055D000F6016081718182819381042DA3010E9473
:1055E0000E326C01F981FC87F0FF02C0F3FF06C0A8
:1055F00091FC06C092FE06C000E205C00DE203C0A9
:105600000BE201C000E08C858C7019F001115AC2C8
:105610009BC297FE10C04C0CFC85F4FF04C08A812D
:10562000813309F44A94141474F528E0241578F5AC
:1056300088E0482E2CC096FC2AC0812F90E08C1563
:105640009D059CF03CEFC3163FEFD30674F0892D07
:105650008068982E0AC0E2E0F0E0EC0FFD1FE10F39
:10566000F11D8081803319F411501111F4CF97FE90
:105670000EC044244394410E812F90E0C816D906F1
:105680002CF41C1904C04424439401C010E097FE7C
:1056900006C01C141D0434F4C601019605C085E043
:1056A00090E002C081E090E001110196112331F0F9
:1056B000212F30E02F5F3F4F820F931F252D30E0C9
:1056C0008217930714F4581A01C0512C892D897040
:1056D00049F4552039F0B70180E290E00E94FC3295
:1056E0005A94F7CF002329F0B701802F90E00E9451
:1056F000FC3293FC09C0552039F0B70180E390E0FB
:105700000E94FC325A94F7CF97FE4CC04601D7FE58
:1057100002C0812C912CC60188199909F301E80F68
:10572000F91FFE87ED87960124193109388B2F87E1
:10573000012F10E01195019511093FEF8316930693
:1057400029F4B7018EE290E00E94FC32C814D9041B
:105750004CF08F8598898815990524F4ED85FE8590
:10576000818101C080E3F1E08F1A91082D853E858B
:105770002F5F3F4F3E872D87801691062CF0B70193
:1057800090E00E94FC32D9CFC814D90441F49A8128
:10579000963320F4953319F43C8534FF81E3B70147
:1057A00090E04EC08A81813319F09C859F7E9C8752
:1057B000B70190E00E94FC32111105C094FC18C0A2
:1057C00085E690E017C0B7018EE290E00E94FC32BF
:1057D0001E5F82E001E0080FF301E80FF11D8081F8
:1057E000B70190E00E94FC32802F0113F3CFE6CF87
:1057F00085E490E0B7010E94FC32D7FC06C0C114DA
:10580000D10441F4EC85E4FF05C0D194C194D108E2
:105810008DE201C08BE2B70190E00E94FC3280E390
:105820002AE0C216D1042CF08F5FFAE0CF1AD1081B
:10583000F7CFB70190E00E94FC32B701C601C096D5
:105840000E94FC3254C1833631F0833779F08335BE
:1058500009F056C020C0560132E0A30EB11CF6017B
:105860008081898301E010E0630112C05601F2E0FB
:10587000AF0EB11CF601C080D18096FE03C0612F2F
:1058800070E002C06FEF7FEFC6010E94F1328C0121
:10589000F92DFF7714C0560122E0A20EB11CF601CB
:1058A000C080D18096FE03C0612F70E002C06FEF10
:1058B0007FEFC6010E94E6328C01F92DF0689F2E21
:1058C000F3FD1AC0852D90E008171907A8F4B70159
:1058D00080E290E00E94FC325A94F4CFF60197FCEB
:1058E000859197FE81916F01B70190E00E94FC3293
:1058F00051105A94015011090115110579F7F7C09B
:10590000843611F0893661F5560197FE09C024E00E
:10591000A20EB11CF60160817181828193810AC05F
:10592000F2E0AF0EB11CF60160817181072E000C10
:10593000880B990BF92DFF769F2E97FF09C0909544
:105940008095709561957F4F8F4F9F4FF0689F2E88
:105950002AE030E0A3010E94AD33C82EC6183FC034
:10596000092D853721F40F7E2AE030E01DC0097F24
:105970008F3691F018F4883559F0C3C0803719F08C
:10598000883711F0BEC0006104FF09C0046007C081
:1059900094FE08C0066006C028E030E005C020E1A3
:1059A00030E002C020E132E0560107FF09C084E088
:1059B000A80EB11CF601608171818281938108C0BB
:1059C000F2E0AF0EB11CF6016081718180E090E0E1
:1059D000A3010E94AD33C82EC6180F77902E96FEF5
:1059E0000BC0092D0E7FC11650F494FE0AC092FC24
:1059F00008C0092D0E7E05C0DC2C092D03C0DC2C4F
:105A000001C0D12E04FF0DC0FE01EC0DF11D8081FF
:105A1000803311F4097E09C002FF06C0D394D394E9
:105A200004C0802F867809F0D39403FD11C000FFD5
:105A300006C01C2DD51480F4150D1D190DC0D514EC
:105A400058F4B70180E290E00E94FC32D394F7CF83
:105A5000D51410F45D1801C0512C04FF10C0B7011B
:105A600080E390E00E94FC3202FF17C001FD03C0FA
:105A700088E790E002C088E590E0B7010CC0802F75
:105A8000867859F001FF02C08BE201C080E207FD79
:105A90008DE2B70190E00E94FC32C11638F4B701E4
:105AA00080E390E00E94FC321150F7CFCA94F301DA
:105AB000EC0DF11D8081B70190E00E94FC32C11015
:105AC000F5CF15C0F4E0F51560F584E0581A93FEA3
:105AD0001FC0011127C02C8523FF2AC008E811E050
