:100000000C9474020C9491020C9491020C94910241
:100010000C9491020C9491020C9491020C94910214
:100020000C9491020C9491020C94AC170C94E6176A
:100030000C9491020C9491020C9491020C949102F4
:100040000C9491020C9491020C9491020C949102E4
:100050000C94C5090C9491020C9491020C9496098D
:100060000C9491020C94B8190C948D190C94910273
:100070000C9491020C9491020C9491020C949102B4
:100080000C9491020C9491020C9491020C949102A4
:100090000C9491020C9491020C9491020C94910294
:1000A0000C9491020C9491020C9491021109200974
:1000B0002F093E094E095D096B094D174917451770
:1000C00041173D173917351731172D1729172517E0
:1000D00021171D171917151711170D1709170517D0
:1000E0000117FD16F916F516F116ED16E916E516C7
:1000F000E116DD16D916D516D116CD16C916C516B8
:10010000C116BD16B916B516B116AD16A916A516A7
:10011000A1169D169916951691168D168916851697
:1001200081167D167916751671166D166916651687
:1001300061165D165916551651164D166E616E00F4
:10014000696E660000407A10F35A00A0724E1809DA
:100150000010A5D4E80000E87648170000E40B542E
:10016000020000CA9A3B000000E1F50500008096FD
:100170009800000040420F000000A086010000002F
:10018000102700000000E8030000000064000000E9
:1001900000000A00000000000100000000002C76B2
:1001A000D888DC674F0823DFC1DFAE59E1B1B796CD
:1001B000E5E3E453C63AE651997696E8E6C284262A
:1001C000EB898C9B62ED407C6FFCEFBC9C9F40F206
:1001D000BAA56FA5F490055A2AF75C936B6CF96782
:1001E0006DC11BFCE0E40D47FEF520E6B500D0ED47
:1001F000902E0300943577050080841E08000020AF
:100200004E0A000000C80C333333330F986E12834C
:100210001141EF8D2114893BE65516CFFEE6DB1820
:10022000D1844B381BF77C1D901DA4BBE4242032E5
:1002300084725E228100C9F124ECA1E53D27000112
:100240000000EB021200020000A8024300030000BD
:10025000A40204010309048E0214020309047602B5
:10026000160303090468020C0C033100320033004A
:1002700034003500000016035500530042002000F2
:10028000530065007200690061006C0000001403F7
:1002900059006F007500720020004E0061006D0073
:1002A000650000000403090409024300020100C0C4
:1002B00032090400000102020100052400100105BA
:1002C0002401010104240206052406000107058219
:1002D0000310004009040100020A000000070503A2
:1002E00002400000070584024000001201000202E3
:1002F000000010C0167A040001010203010001C1D0
:1003000012018036018136000000000000005F000D
:10031000000007000700147F147F14242A7F2A128C
:10032000231308646236495522500005030000007B
:100330001C2241000041221C0014083E0814080839
:100340003E080800503000000808080808006060F7
:10035000000020100804023E5149453E00427F4003
:100360000042615149462141454B311814127F101A
:1003700027454545393C4A4949300171090503364D
:1003800049494936064949291E00363600000056BB
:1003900036000008142241001414141414004122E1
:1003A00014080201510906324979413E7E111111AA
:1003B0007E7F494949363E414141227F4141221CCD
:1003C0007F494949417F090909013E4149497A7FED
:1003D0000808087F00417F41002040413F017F081D
:1003E0001422417F404040407F020C027F7F04087E
:1003F000107F3E4141413E7F090909063E4151219E
:100400005E7F09192946464949493101017F0101A9
:100410003F4040403F1F2040201F3F4038403F6347
:100420001408146307087008076151494543007FA9
:1004300041410002040810200041417F00040201F4
:100440000204404040404000010204002054545443
:10045000787F484444383844444420384444487FF2
:100460003854545418087E0901020C5252523E7FEF
:100470000804047800447D40002040443D007F1083
:1004800028440000417F40007C041804787C080464
:10049000047838444444387C14141408081414189C
:1004A0007C7C080404084854545420043F444020F1
:1004B0003C4040207C1C2040201C3C4030403C44C0
:1004C000281028440C5050503C4464544C440008BC
:1004D00036410000007F0000004136080010080887
:1004E000100878464146780011241FBECFEFDAE0AD
:1004F000DEBFCDBF11E0A0E0B1E0E2E1F9E402C06F
:1005000005900D92A83BB107D9F724E0A8EBB1E024
:1005100001C01D92AC32B207E1F70E9415150C9490
:1005200087240C940000FC0180819181860F971F25
:10053000BA010E947F21918380830895BF92CF9258
:10054000DF92EF92FF920F931F93CF93DF93CDB77C
:10055000DEB7C455D1090FB6F894DEBF0FBECDBFCC
:10056000082FE62EB22E5F934F9381E491E09F9384
:100570008F931F9284E58F93CE0101966C019F9318
:100580008F930E948C230E2C000CFF08002E000C71
:10059000110B21E044E451E0B701C8010E94D71BD0
:1005A0002B2DA601B701C8010E94D71B0FB6F894E6
:1005B000DEBF0FBECDBFCC5ADF4F0FB6F894DEBF03
:1005C0000FBECDBFDF91CF911F910F91FF90EF90A4
:1005D000DF90CF90BF900895CF93DF93CDB7DEB774
:1005E000E2970FB6F894DEBF0FBECDBF9E01235C2D
:1005F0003F4F4BAD5CAD62E370E0CE0101960E94CF
:10060000BC2321E0AE014F5F5F4F69AD7AAD8FA98A
:1006100098AD0E94D71BE2960FB6F894DEBF0FBECE
:10062000CDBFDF91CF9108956A3098F050E070E02F
:1006300020E330E0241B350B6217730754F4682F56
:1006400070E024E530E0241B350B81E0621773076E
:100650000CF080E00895DC01ED91FC91DB012D911F
:100660003C912E173F071CF0A1E0B0E002C0AFEFB5
:10067000BFEF2E1B3F0B2A9FF0012B9FF00D3A9FDF
:10068000F00D1124DC0112968D919C911397DB01E2
:1006900012962D913C911397281739071CF061E0B1
:1006A00070E002C06FEF7FEF281B390B269FC0015F
:1006B000279F900D369F900D1124483729F0493718
:1006C00021F08E0F9F1F0895CF0108952F923F9222
:1006D0004F925F926F927F928F929F92AF92BF9252
:1006E000CF92DF92EF92FF920F931F93CF93DF93FE
:1006F000CDB7DEB7C557D1090FB6F894DEBF0FBE30
:10070000CDBFE0969FAF8EAFE097FB0100811181D6
:10071000428053806480758026803780FE01319648
:10072000CE018F599F4FDF01A817B90749F01196E5
:100730001C921E9213961C921E9212971496F4CF3E
:1007400006151705D1F5C80164E570E00E947F2108
:100750006C01920101E010E066E2E62EF12CC80186
:100760000197A4969FAF8EAFA49742145304A4F4AC
:10077000221633060CF4A5C1D182C082C9010A97A2
:10078000B7010E947F210A96938382832F5F3F4F98
:100790000F5F1F4F3496E3CF221533050CF491C140
:1007A000D182C082C9010A97B7010E947F210A96AF
:1007B0009383828321503109EBCF42145304E1F536
:1007C000C2010A9766E270E00E947F215C01AAE004
:1007D000AA0EB11C9801EE24E394F12C54E5C52E29
:1007E000D12CC7010197A4969FAF8EAFA497061591
:1007F00017059CF4621673060CF463C1C901B601B7
:100800000E947F2191838083B382A2822F5F3F4F1A
:10081000BFEFEB1AFB0A3496E4CF261537050CF42C
:1008200050C1C901B6010E947F2191838083B382A8
:10083000A28221503109ECCF6016710654F4942D38
:10084000852D2101292E382E902F812F8301692E8D
:10085000782EB301601B710B072E000C880B990BCF
:100860000E94CA20AE966CAF7DAF8EAF9FAFAE97A1
:10087000B10164197509072E000C880B990B0E94B1
:10088000CA204B015C01AE962CAD3DAD4EAD5FADC7
:10089000AE970E945620AA966CAF7DAF8EAF9FAFE9
:1008A000AA9720E030E0A9010E947A2187FF0DC0BD
:1008B000AA968CAD9DADAEADBFADAA97B058AA9625
:1008C0008CAF9DAFAEAFBFAFAA97C12CD12C760134
:1008D000A4961FAE1EAEA49720E030E0A901AE960C
:1008E0006CAD7DAD8EAD9FADAE970E947A2118168E
:1008F0000CF0E3C0601671060CF4E3C0C80164E5B7
:1009000070E00E947F21E2969FAF8EAFE297A4969F
:100910008EAD9FADA497880F991F880F991FA1E0F6
:10092000B0E0AC0FBD1FA80FB91FA696BFAFAEAF0A
:10093000A697E296EEADFFADE297ED93FC93C20170
:100940000A9766E270E00E947F210A96A696AEADF5
:10095000BFADA69713969C938E931297A496EEAD77
:10096000FFADA4973196A496FFAFEEAFA497AA96D9
:100970002CAD3DAD4EAD5FADAA97C701B6010E944B
:10098000E51F6B017C0120E030E040E05FE3C70140
:10099000B6010E947A2187FF11C020E030E0A90152
:1009A000AE966CAD7DAD8EAD9FADAE970E947A21B7
:1009B00018160CF07FC00F5F1F4F8ECF20E030E085
:1009C000A901C501B4010E947A2118160CF06DC06E
:1009D0002414350414F3E296EEADFFADE297A6962B
:1009E000AEADBFADA6971596FC93EE931497C201DA
:1009F0000A9766E270E00E947F210A96A696AEAD45
:100A0000BFADA69717969C938E931697A496EEADBE
:100A1000FFADA4973196A496FFAFEEAFA49721E067
:100A200030E0E4963FAF2EAFE49720E030E0A9013C
:100A3000C501B4010E947A21181624F0E4961FAE75
:100A40001EAEE49781E090E0E6969FAF8EAFE6970A
:100A500020E030E0A901C501B4010E94512087FDCA
:100A600004C0E6961FAE1EAEE697E4968EAD9FAD2F
:100A7000E497E696AEADBFADE6978A1B9B0B480E9A
:100A8000591E20E030E040E85FE3C701B6010E9454
:100A9000E41F6B017C01A696EEADFFADA6973496E0
:100AA000A696FFAFEEAFA6976ECF421453040CF09C
:100AB00092CF73CF015011090FCF061517050CF017
:100AC0001DCFA396FFADA397A296FFAFA29781E695
:100AD000FE013196E096AEADBFADE09701900D926C
:100AE0008A95E1F7E0968EAD9FADE097CB58DF4F4A
:100AF0000FB6F894DEBF0FBECDBFDF91CF911F912F
:100B00000F91FF90EF90DF90CF90BF90AF909F90AC
:100B10008F907F906F905F904F903F902F900895AF
:100B2000EF92FF920F931F93CF93DF93CDB7DEB772
:100B3000C556D1090FB6F894DEBF0FBECDBFA6963D
:100B40004CAF5DAF6EAF7FAFA6978C017C018CE69A
:100B5000E80EF11CF80180858823E9F141E6B8012F
:100B6000CE018E599F4F0E942B030C9758F041E6FF
:100B7000B8016C5F7F4FCE018E599F4F0E942B03AF
:100B80000C9748F5B801CE0101960E946603A29623
:100B90008FADA29790E0A4964EAD5FADA497A696B8
:100BA0006EAD7FADA697FE01319620E030E02817AC
:100BB00039078CF4A081B181A417B50741F4A28153
:100BC000B381A617B70719F481E090E00CC02F5F3E
:100BD0003F4F3496ECCF0E5E1F4F0E151F0509F0E8
:100BE000B9CF80E090E0CB59DF4F0FB6F894DEBF6D
:100BF0000FBECDBFDF91CF911F910F91FF90EF906E
:100C000008952F923F924F925F926F927F928F92B0
:100C10009F92AF92BF92CF92DF92EF92FF920F938B
:100C20001F93CF93DF93CDB7DEB72E970FB6F8940F
:100C3000DEBF0FBECDBF9E878D871B015901F90115
:100C4000408051806280838180FB772470F881FF2F
:100C500087C085E090E021E030E0B901681B790BA6
:100C60007C836B836A01C61AD70ACA0101979A87E7
:100C70008987812C912C1A821982F1013197FC8786
:100C8000EB8771018B819C81E81AF90A40FE3BC019
:100C90006D857E85672B71F40115110511F440E017
:100CA00004C00130110579F541E0B601C7010E9489
:100CB000FA1929C00115110599F4FE82ED82D88632
:100CC000CF824D815E816F8178858D859E850E9462
:100CD0009005892BC1F081E090E09A83898313C04D
:100CE0000130110581F4F401EE0FFF1FEE0FFF1F1D
:100CF0006D857E85E60FF71FF182E082D382C28286
:100D00007FEF871A970A769467945794479481E007
:100D1000E81AF108EB85FC85EE15FF0509F0B6CF62
:100D2000F501838181FD07C092E076946794579422
:100D300047949A95D1F7F1E0CF1AD10869857A8561
:100D40006C157D0509F09DCFED85FE85309791F0FE
:100D50000130110579F4EC59FF4F918280820AC06D
:100D600086E076946794579447948A95D1F783E008
:100D700090E071CF89819A812E960FB6F894DEBFEC
:100D80000FBECDBFDF91CF911F910F91FF90EF90DC
:100D9000DF90CF90BF90AF909F908F907F906F909B
:100DA0005F904F903F902F900895AF92BF92CF9257
:100DB000DF92EF92FF920F931F93CF93DF93FC018B
:100DC0006B01EA01DB0113968C9181FD02C043E0C7
:100DD00001C045E0E280A380F080B1809E016E2DCD
:100DE0008F2D0E941403282F882371F000E010E05B
:100DF00096014E2D5A2D6F2D7B2DCE010E9401069E
:100E000021E0892B09F020E0822FDF91CF911F9103
:100E10000F91FF90EF90DF90CF90BF90AF9008952B
:100E2000CF92DF92EF92FF920F931F93CF93DF93B6
:100E3000FC01EC59FF4F00811181FC0120E030E002
:100E4000EB01CC59DF4F2017310711F1488159814F
:100E5000DB0180E090E084179507A1F0C080D1808D
:100E6000ED90FC901197CE14DF0449F4C280D3803A
:100E70001296ED90FC901397CE14DF0439F0019692
:100E80001496E9CF2F5F3F4F3496DDCF81E001C04C
:100E900080E0DF91CF911F910F91FF90EF90DF9055
:100EA000CF9008950F931F93CF93DF93CDB7DEB705
:100EB000C656D1090FB6F894DEBF0FBECDBFFE01F6
:100EC000319626E6DF011D922A95E9F7DC010D91A6
:100ED0001D912D913C9109831A832B833C8381E0E2
:100EE00090E0A7969FAF8EAFA797CF010E94100703
:100EF000CA59DF4F0FB6F894DEBF0FBECDBFDF91EA
:100F0000CF911F910F910895EF92FF920F931F932E
:100F1000CF93DF93CDB7DEB7CC5CD1090FB6F89491
:100F2000DEBF0FBECDBF8C017B016F5F7F4F41E6FF
:100F300001960E942B030B9770F5F8019081892F81
:100F4000817090FF29C0F7019081892F817090FFF7
:100F500023C0F801258136814381548161817281EA
:100F600001E010E0CE0189599F4F0E940106F70170
:100F7000258136814381548161817281CE01019640
:100F80000E940106BE016F5F7F4FCE0189599F4FBE
:100F90000E94100701C080E0C453DF4F0FB6F894E1
:100FA000DEBF0FBECDBFDF91CF911F910F91FF909C
:100FB000EF900895EF92FF920F931F93CF93DF93DB
:100FC000CDB7DEB7CC5CD1090FB6F894DEBF0FBE4B
:100FD000CDBF8C017B0141E60E942B030B9710F5DE
:100FE000F80124813581428153816081718101E062
:100FF00010E0CE0189599F4F0E940106F70124811C
:1010000035814281538160817181CE0101960E94B8
:101010000106BE016F5F7F4FCE0189599F4F0E942D
:10102000100701C080E0C453DF4F0FB6F894DEBF55
:101030000FBECDBFDF91CF911F910F91FF90EF9029
:101040000895EF92FF920F931F93CF93DF93CDB745
:10105000DEB7CC5CD1090FB6F894DEBF0FBECDBFB2
:101060008C01FB019081892F817090FF2CC07B0146
:101070006F5F7F4F41E6C8010E942B030B9710F56D
:10108000F80124813581428153816081718101E0C1
:1010900010E0CE0189599F4F0E940106F70125817A
:1010A00036814381548161817281CE0101960E9413
:1010B0000106BE016F5F7F4FCE0189599F4F0E948D
:1010C000100701C080E0C453DF4F0FB6F894DEBFB5
:1010D0000FBECDBFDF91CF911F910F91FF90EF9089
:1010E0000895CF92DF92EF92FF920F931F93CF93C9
:1010F000DF937C01EB018B0104591F4F6B018FE8DB
:10110000C80ED11C81E090E00C151D05D1F0892B93
:1011100019F480E090E012C0B8016D5D7F4FC70107
:101120000E9484078111F5CFB801C7010E9484078E
:1011300031E020E0811130E0832F922F095F1F4FB3
:10114000E3CF009751F0BE016A5E7E4FC7010E9457
:10115000840731E0811130E0832FDF91CF911F911F
:101160000F91FF90EF90DF90CF90089520982198F5
:1011700027985098519886988598229A239A08958E
:10118000E1E6F0E080E8808381E080838FE30E94E5
:101190001E1C0E944E1C85B5877F85BD85B5846069
:1011A00085BD85B58D7F85BD85B58E7F85BDEEE618
:1011B000F0E0808181608083E1E8F0E08081877FDA
:1011C000808380818F7E808380818B7F80838081FC
:1011D0008D7F8083808181608083EFE6F0E0808175
:1011E000816080837894479A0C94B608FC01DC01F6
:1011F000A35DBD4F9C91990F292F2E739C91907CDC
:10120000922B9C938C91982F9F718C91807C892B31
:101210008C93E730F10508F06BC0EA5AFF4F0C944D
:10122000B52180912D029FB195FB992790F98E737E
:10123000982B80912D02807C892B80932D0258C0A1
:1012400080912E029FB196FB992790F98E73982B6F
:1012500080912E02807C892B80932E0249C02091A0
:101260002F0299B196959170822F8E73982B809151
:101270002F02807C892B80932F023AC090913002FC
:1012800023B19E73822F881F8827881F982B8091F7
:101290003002807C892B809330022AC02091310259
:1012A00093B196959170822F8E73982B8091310215
:1012B000807C892B809331021BC09091320229B12E
:1012C0009E73822F8170982B80913202807C892BB3
:1012D000809332020DC09091330223B19E73822F0E
:1012E0008170982B80913302807C892B809333020C
:1012F0008C918F738F3119F48C9180648C938C91C5
:101300008F7319F48C918F7B8C93089580E090E01B
:10131000FC01E35DFD4F208126FD03C020812F7776
:10132000208301968730910599F708951F920F92B7
:101330000FB60F9211242F933F934F935F936F93A8
:101340007F938F939F93AF93BF93CF93DF93EF934D
:10135000FF93C0E0D0E0CE010E94F6082196C7308E
:10136000D105C9F7FF91EF91DF91CF91BF91AF9177
:101370009F918F917F916F915F914F913F912F91AD
:101380000F900FBE0F901F9018951F920F920FB6DF
:101390000F9211242F938F939F938091B901982FCF
:1013A000991F9927991F8091BA018F73880F892BF4
:1013B0008F5F8F779091B90180FB97F99093B90176
:1013C00086959091BA01907C892B8093BA01809187
:1013D000BA0180688093BA018091B901982F991F52
:1013E0009927991F8091BA018F73880F892B8A37AB
:1013F00031F58091B8012091B901922F9F77019624
:101400009F778093B8019F778091B9018078892B6D
:101410008093B9018FE794E00197F1F700C00000D5
:101420008091B9018F778093B9018091BA01807C56
:101430008093BA018091BA0180648093BA019F9130
:101440008F912F910F900FBE0F901F9018950F93B3
:101450001F93CF93DF93EC010E9452228170992752
:1014600021E0822790911D0180FB90F990931D014E
:101470000E94522280FF03C00FEF1FEF02C001E065
:1014800010E00E94522268EE73E00E947F219C01CE
:101490002F5F3F4F209FC001219F900D309F900DE7
:1014A000112464E670E00E947F21072E000C880B57
:1014B000990B0E94CA2060931501709316018093C6
:1014C0001701909318010E94522260E170E00E947F
:1014D0007F219C01285F3F4F37FF02C02D5F3F4FA8
:1014E00035952795359527952C83DF91CF911F91C1
:1014F0000F9108952F923F924F925F926F927F9239
:101500008F929F92AF92BF92CF92DF92EF92FF9213
:101510000F931F93CF93DF9300D000D0CDB7DEB7EA
:10152000282E362E7A018901A82E880FBB08FA01D1
:10153000808191818A0D9B1D9A838983C62E660FB7
:10154000DD08828193818C0D9D1D9C838B8364813A
:101550007581A901CE0101960E94D506882389F1E3
:10156000F70164807580F301838181FD02C043E04F
:1015700001C045E0F7018280438090805180632D57
:10158000680D9801822D890D0E9414038823C9F0EB
:1015900000E010E09301482D542D692D752D80E059
:1015A00090E00E940106F70180819181A80EB91E8A
:1015B000B182A08282819381C80ED91ED382C28259
:1015C00081E00F900F900F900F90DF91CF911F91BE
:1015D0000F91FF90EF90DF90CF90BF90AF909F90D2
:1015E0008F907F906F905F904F903F902F900895D5
:1015F0002F923F924F925F926F927F928F929F9223
:10160000AF92BF92CF92DF92EF92FF920F931F9310
:10161000CF93DF9300D000D0CDB7DEB76B017C0154
:101620005C834B837A8369831701FA018080918000
:10163000A280B380708470FC03C001E010E002C09F
:101640000FEF1FEF20E030E0A901C501B4010E94B7
:101650005120882351F0A501940160E070E080E8FA
:101660009FE30E9456204B015C0171FE04C01801EB
:101670002E0C3F1C2DC0EB81FC8144805580668080
:10168000778020E030E040E05FE3C301B2010E94D8
:101690007A2187FD0CC018012E0C3F1C20E030E0A1
:1016A00040E85FE3C301B2010E94E41F0BC0C80120
:1016B0008C0D9D1D9A838983A3019201C501B401FC
:1016C0000E94E51FEB81FC81648375838683978389
:1016D00069817A81C1010F900F900F900F90DF9177
:1016E000CF911F910F91FF90EF90DF90CF90BF901F
:1016F000AF909F908F907F906F905F904F903F90B2
:101700002F900895EF92FF920F931F93CF93DF9343
:10171000DC01EA01EB81FC81EA3010F480E028C0B2
:10172000FF27BF97DCF749815A815527433551057B
:10173000ACF7C9018B017D0149815A816B817C81A4
:101740000E949005892B51F76B817C8140E0898153
:101750009A810E94FA19A981BA81AE0DBF1DBA8380
:10176000A9836B817C81060F171F1C830B8381E08B
:10177000DF91CF911F910F91FF90EF9008958837DF
:10178000D1F4DB011196ED91FC911297DA018D9164
:101790009C91E817F90734F4AB0160E070E081E058
:1017A00090E024C08E179F071CF5AB0160E070E04D
:1017B0008FEF9FEF1BC08937D9F4DB011396ED91B2
:1017C000FC911497DA0112968D919C911397E8176A
:1017D000F90724F4AB0161E070E006C08E179F07A3
:1017E0003CF4AB016FEF7FEF80E090E00C94820B54
:1017F00080E008958F929F92BF92CF92DF92EF92F6
:10180000FF920F931F93CF93DF9300D000D0CDB7FB
:10181000DEB76C0180910F019091100101969A83BF
:101820008983809111019091120101969C838B8391
:1018300086010D541F4FE12CF12C85E0B82EBE9C83
:10184000F001BF9CF00D1124EC0DFD1DEE54FF4F77
:10185000808180FF35C00E945222980121503109B9
:10186000490180FF08C049E7B801CE0101960E94F6
:101870002B03892B79F448E7B801CE0101960E9429
:101880002B03892B39F09601AE014F5F5F4FB401F6
:1018900088E706C09601AE014F5F5F4FB40189E74C
:1018A0000E94BF0BBE9CF001BF9CF00D1124EC0DFB
:1018B000FD1DEE54FF4F908180FB90F9908308C08E
:1018C000F8016281738140E0808191810E94FA1960
:1018D000FFEFEF1AFF0A0B5F1F4F24E1E216F1043E
:1018E00009F0ADCF0F900F900F900F90DF91CF9137
:1018F0001F910F91FF90EF90DF90CF90BF909F903E
:101900008F90089521E08030920781F4FB01E15E21
:10191000FE4F8081282F2F7730E0881F8827881F6F
:10192000319690819F71990F892B16C08F509140ED
:10193000B1F4FB01E35EFE4F2081922F96959695C0
:10194000969531968081282F23702295220F207E34
:10195000292B30E086958695482F50E004C040E062
:1019600050E020E030E0B901CA0108952F923F9283
:101970004F925F926F927F928F929F92AF92BF929F
:10198000CF92DF92EF92FF920F931F93CF93DF934B
:1019900000D000D000D0CDB7DEB77C016B010E9433
:1019A000820C2B013C011B017E826D82F701248198
:1019B000358100E010E0A301C6010E940106892BD9
:1019C00029F55A8249827C826B82F7016481758194
:1019D000A601CE0101960E94D5068823B9F0F70131
:1019E00024813581428153816081718180E090E062
:1019F0000E94010689819A81AB81BC81F7018083B5
:101A00009183A283B38301E010E002C000E010E004
:101A1000530143010115110509F0CEC02BE08216D8
:101A200091040CF456C03A8229829C828B82F70181
:101A300064817581A601CE0101960E94D506882396
:101A4000C1F0F70124813581428153816081718128
:101A500000E010E080E090E00E94010689819A8118
:101A6000AB81BC81F70180839183A283B38301E0C2
:101A700010E0F1E08F1A9108CDCF3A822982BC8222
:101A8000AB82F70164817581A601CE0101960E94A7
:101A9000D506882319F1F7012481358142815381CC
:101AA0006081718100E010E080E090E00E9401061A
:101AB00089819A81AB81BC81F70180839183A28364
:101AC000B38381E090E0FFEFAF1ABF0A892B09F0E2
:101AD00073C020E3A216B10484F203C080E090E05A
:101AE000F2CF520124E5421651040CF05EC05A8236
:101AF00049828D819E819C838B83F70164817581EE
:101B0000A601CE0101960E94D5068823C9F0F701EF
:101B100024813581428153816081718100E010E030
:101B200080E090E00E94010689819A81AB81BC81AE
:101B3000F70180839183A283B38381E090E002C0A8
:101B400080E090E0FFEF4F1A5F0A892B59F234C012
:101B5000BA82A9828D819E819C838B83F7016481E7
:101B60007581A601CE0101960E94D506882309F150
:101B7000F70124813581428153816081718100E0C8
:101B800010E080E090E00E94010689819A81AB819B
:101B9000BC81F70180839183A283B38381E090E0CD
:101BA000F1E0AF1AB108892B39F41A141B0484F23E
:101BB00003C080E090E0F4CF26960FB6F894DEBF25
:101BC0000FBECDBFDF91CF911F910F91FF90EF908E
:101BD000DF90CF90BF90AF909F908F907F906F904D
:101BE0005F904F903F902F900895CF93DF93FB012C
:101BF0002181233040F140E050E065E0649F900196
:101C0000659F300D1124280F391FF901EE54FF4F45
:101C1000708170FD13C0E901CD54DF4F8091000148
:101C200090910101A0910201B091030188839983F1
:101C3000AA83BB8380818160808305C04F5F5F4F33
:101C400044315105D9F6DF91CF9108950F931F9339
:101C5000CF93DF93EC018B018091310286FF07C0A7
:101C60009E0140E051E060E08FEF0E947A0A80918F
:101C7000320286FF07C09E0140E051E060E081E053
:101C80000E947A0A80912F0286FF07C09E0140E0E1
:101C900051E06FEF80E00E947A0A8091300286FF67
:101CA00007C09E0140E051E061E080E00E947A0AB6
:101CB0008091330286FF0DC08091330287FD09C0F9
:101CC000B801CE010E94F50D8091330280688093A7
:101CD000330280912E0286FF0EC080912E0287FD76
:101CE0000AC0C35EDE4F8B8180628B8380912E029F
:101CF000806880932E0280912D0286FF1DC0809106
:101D00002D0287FD19C08091B901982F991F99273D
:101D1000991F8091BA018F73880F892B90E00397E8
:101D20005CF090916F0081E0892780936F00809133
:101D30002D02806880932D02DF91CF911F910F912A
:101D400008955F926F927F928F929F92AF92BF920F
:101D5000CF92DF92EF92FF920F931F93CF93DF9377
:101D6000CDB7DEB7C656D1090FB6F894DEBF0FBEA9
:101D7000CDBF6C015B0160E071E08FE091E00E94FB
:101D8000DA07882391F0B60180E091E00E94B60C5A
:101D9000B6018FE091E00E94B60CF501828197E0D8
:101DA000980F9770887F892B82837601FCE6EF0E6F
:101DB000F11C812C912C360183EE681A8EEF780A83
:101DC00087E0582EB70180E091E00E942108882327
:101DD00029F1F50181818F5F8183F301808191E099
:101DE000980F9770887F892B8083589CF001599CAD
:101DF000F00D1124EC0DFD1DE459FF4F80818E7F05
:101E00008083F7012581368143815481618172810C
:101E100000E010E080E090E00E940106B7016D5DF7
:101E20007F4F80E091E00E942108882309F1F501AD
:101E3000828197E0980F9770887F892B8283589CC6
:101E4000F001599CF00D1124EC0DFD1DE157FF4FE1
:101E500080818E7F8083F70120A531A546A157A1FF
:101E600064A175A100E010E080E090E00E9401060E
:101E7000FFEF8F1A9F0A87E0E80EF11CE5E08E164F
:101E8000910409F09FCF20911301309114014091EA
:101E900011015091120160910F017091100101E048
:101EA00010E0CE0101960E9401063601F3EB6F0EA1
:101EB000711C812C912C15E0189D7001199DF00C5E
:101EC0001124EC0CFD1C82EBE80EF11CF701808163
:101ED00080FF15C0BE016F5F7F4FC3010E94520794
:101EE000882369F0B6018FE091E00E94B60CF701FB
:101EF00080818E7F8083F50181818F5F8183FFEFF9
:101F00008F1A9F0A85E0680E711CE4E18E16910419
:101F100099F6CA59DF4F0FB6F894DEBF0FBECDBF9A
:101F2000DF91CF911F910F91FF90EF90DF90CF90B5
:101F3000BF90AF909F908F907F906F905F9008952B
:101F40000E94F21921E047E451E060E070E080E097
:101F500090E00E94D71B21E04DE451E06AE070E080
:101F600080E090E00E94D71B21E047E551E064E16A
:101F700070E080E090E00E94D71B0E94DF192FEFF5
:101F800084E39CE0215080409040E1F700C00000D5
:101F900080912D0286FD03C00E948609F9CF8091B1
:101FA0002D0287FDF9CF806880932D0208950E944D
:101FB000F21921E04AE551E060E070E080E090E055
:101FC0000E94D71B21E045E651E06AE070E080E026
:101FD00090E00E94D71B21E04FE651E064E170E001
:101FE00080E090E00E94D71B0E94DF1980912D02B3
:101FF00086FD03C00E948609F9CF80912D0287FDDE
:10200000F9CF806880932D020895CF93DF93EB0181
:102010000E94F21921E04BE751E060E070E080E0BF
:1020200090E00E94D71B21E04DE851E06AE070E0AB
:1020300080E090E00E94D71B0E94DF1980912D0262
:1020400086FD03C00E948609F9CF80912D0287FD8D
:10205000F9CF806880932D028D8181608D83DF911F
:10206000CF910895CF93DF93CDB7DEB72E970FB6FC
:10207000F894DEBF0FBECDBFFE01389627E0DF012A
:102080001D922A95E9F79E878D8787E0DE011196DC
:1020900001900D928A95E1F729813A814B815C810B
:1020A0006D817E818F8190E02E960FB6F894DEBF11
:1020B0000FBECDBFDF91CF910895BF92CF92DF9237
:1020C000EF92FF920F931F93CF93DF938C01EB015D
:1020D000FB01E35EFE4F83818F7D838318861A8E1A
:1020E0001CA61EAEDB01A05BBF4F1C9252961C9239
:1020F000D8018C918F77813009F046C090E89283A7
:102100009381907E95609383908197709867908378
:102110009EE9918322E130E0398328832FE030E08B
:102120003B832A832DE030E03D832C8329E130E09E
:102130003F832E8388873B8B2A8B43E250E05D8B65
:102140004C8B3F8B2E8B4DE250E0598F488F8A8FFE
:102150005DA34CA34AE050E05FA34EA36CE370E0A4
:1021600079A768A75BA74AA78CA74AE350E05FABB3
:102170004EAB39AF28AF28E430E03BAF2AAF2EE1B9
:1021800030E03DAF2CAF8EAFF80180818F77823089
:1021900011F40E942F15D8018C918F7790E002974F
:1021A00024F0B801CE010E9405108E01E12CF12C23
:1021B00092E1D92EF801158616861786108A0E949C
:1021C0005222DE9CF001DF9CF00D1124EC0FFD1F6C
:1021D0008170992721E08227918980FB90F9918B6A
:1021E000D80114966D917C9115972D913C91119782
:1021F00062177307D1F016968D919C9117971296DE
:102200004D915C911397841B950B621B730B0E947D
:102210007F21072E000C880B990B0E94CA20F80121
:10222000618772878387948709C09260918BD801F8
:1022300019961D921D921D921C921C97BFEFEB1ACE
:10224000FB0A0E5E1F4FE6E0EE16F10409F0B2CF76
:10225000BE0180E091E00E94B60CBE018FE091E0EB
:102260000E94B60CC12CD12C87E0B82EBC9C8001FA
:10227000BD9C100D11240C0F1D1F7801FCE6EF0E04
:10228000F11C86E291E00E943210D7012C93119646
:102290003C93119712964C93129713965C93139755
:1022A00014966C93149715967C93159716968C93A9
:1022B00001571F4F8EE191E00E943210F8012083F8
:1022C000318342835383648375838683FFEFCF1A00
:1022D000DF0A25E0C216D10449F680E090E035E03F
:1022E000389FF001399FF00D1124EC0FFD1FEE54C3
:1022F000FF4F20812E7F208301968431910581F745
:10230000CA5EDE4F82E291E00E9432102883398358
:102310004A835B836C837D838E83DF91CF911F9192
:102320000F91FF90EF90DF90CF90BF900C94F21937
:102330009F92AF92BF92CF92DF92EF92FF920F9354
:102340001F93CF93DF9300D000D0CDB7DEB77C01D1
:102350008B01DB011596ED91FC911697838181FD30
:1023600003C033E0932E02C025E0922E0E94522239
:1023700064E570E00E947F219A8389830E94522243
:1023800066E270E00E947F210A969C838B8384E53D
:10239000C82ED12C96E2A92EB12C9701492D6B8124
:1023A00089810E941403811110C00E945222B6013B
:1023B0000E947F219A8389830E945222B5010E9444
:1023C0007F210A969C838B83E8CFF8016581768113
:1023D000A701CE0101960E94D506882331F3B701EB
:1023E000C8010E947108882301F341E66FE071E0A3
:1023F000CE0101960E942B030A97B8F289819A8137
:10240000AB81BC81F80181839283A383B4838081F3
:10241000816080830F900F900F900F90DF91CF918C
:102420001F910F91FF90EF90DF90CF90BF90AF90F2
:102430009F90089520E030E047E0429FB001439F25
:10244000700D1124FC01E60FF71FE459FF4F508176
:1024500050FD06C064597F4F680F791F0C94981186
:102460002F5F3F4F2530310541F70895EF92FF92DE
:102470000F931F93CF93DF93CDB7DEB727970FB698
:10248000F894DEBF0FBECDBF20E030E047E0429FB2
:102490008001439F100D1124080F191F78015FE878
:1024A000E50EF11CF701508150FD2EC0BC01898161
:1024B0008160898380910F0190911001A091110199
:1024C000B09112018A839B83AC83BD838EE191E03E
:1024D0009F838E83CE0101960E9471088823D1F0DC
:1024E000F801E057FF4F80910F0190911001A091EA
:1024F0001101B091120180839183A283B383F7010C
:1025000080818160808306C02F5F3F4F2530310579
:1025100009F0BDCF27960FB6F894DEBF0FBECDBF32
:10252000DF91CF911F910F91FF90EF900895CF937E
:10253000DF932091BA0126FF1DC0EC018091B80104
:102540009091B90180FD03C0CE010E941A128091C2
:10255000B8019091B9019F7763E070E00E947F21FC
:10256000892B19F4CE010E9436128091BA018F7B1B
:102570008093BA018091BA0187FF05C08091BA01AA
:102580008F778093BA01DF91CF910895EF92FF92F8
:102590000F931F93CF93DF93FB0108EB11E0D8015A
:1025A0008C91C9EBD1E098819F772CE3E22EF12C3E
:1025B000B7010E947F217F936F9381811F928F9338
:1025C000828187701F928F9380818F771F928F9364
:1025D0008EE991E09F938F931F921F921F921F92FB
:1025E0000E94EC02F801808198819F77B7010E94D8
:1025F0007F219F938F9383EB91E09F938F931F9203
:102600001F921F9285E48F930E94EC028DB79EB7B4
:1026100046960FB6F8949EBF0FBE8DBFDF91CF9147
:102620001F910F91FF90EF9008958F929F92AF921C
:10263000BF92CF92DF92EF92FF920F931F93CF93AF
:10264000DF93CDB7DEB7C156D1090FB6F894DEBF20
:102650000FBECDBF4B018C015C018CE6A80EB11CF6
:102660000A151B0579F1F8018085882341F1B8012D
:10267000CE0101960E946603CE0101967C01C12C19
:10268000D12CA2968FADA29790E0C816D906BCF4C3
:10269000F701628173816A30710554F041E0811461
:1026A000910409F440E0F701808191810E94FA19B8
:1026B000FFEFCF1ADF0A84E0E80EF11CE2CF0E5ED6
:1026C0001F4FCECFCF59DF4F0FB6F894DEBF0FBEEE
:1026D000CDBFDF91CF911F910F91FF90EF90DF90D1
:1026E000CF90BF90AF909F908F900895BF92CF9260
:1026F000DF92EF92FF920F931F93CF93DF93EC0142
:102700002091040130910501409102015091030193
:10271000609100017091010101E010E080E090E023
:102720000E94010620911301309114014091110182
:102730005091120160910F017091100180E090E0C2
:102740000E9401067E018DE6E80EF11CC12CD12C01
:1027500087E0B82EBC9CF001BD9CF00D1124EC0F5D
:10276000FD1FE459FF4F808180FF0DC0F7012481D8
:102770003581428153816081718101E010E080E008
:1027800090E00E940106BC9CF001BD9CF00D11245C
:10279000EC0FFD1FE157FF4F808180FF0DC0F70157
:1027A00027A130A545A156A163A174A101E010E0C5
:1027B00080E090E00E940106FFEFCF1ADF0A87E079
:1027C000E80EF11CE5E0CE16D10421F6FE01EA5E2A
:1027D000FE4F808180FF0FC0359620813181329776
:1027E0004081518132976081718101E010E080E089
:1027F00090E00E9401066E01F3EBCF0ED11CE12C9C
:10280000F12C15E01E9DF0011F9DF00D1124EC0F21
:10281000FD1FEE54FF4F808180FF08C0F6016281EA
:10282000738141E0808191810E94FA19FFEFEF1AD4
:10283000FF0A85E0C80ED11CE4E1EE16F10411F7A1
:10284000DF91CF911F910F91FF90EF90DF90CF908C
:10285000BF9008950F931F93CF93DF93EC018B01EB
:102860000E9486098A81877021F48D8181608D8321
:1028700042C080916F0080FF0BC08091B801209111
:10288000B901922F9F77892B19F0C8010E949712E6
:102890008091BB019091BC01019662E070E00E94C2
:1028A0007F219093BC018093BB01892B39F48091E7
:1028B0006F0080FF03C0C8010E94FA0BBE01C8016F
:1028C0000E94260EBE01C8010E94A10EBE01C801D1
:1028D0000E94C61261E070E0C8010E941513C80191
:1028E0000E9476138D8180FD06C0DF91CF911F91EC
:1028F0000F910C94DF19DF91CF911F910F910895E3
:10290000CF93DF93CDB7DEB7C752D1400FB6F8945F
:10291000DEBF0FBECDBFC95DDE4F8881C752D1403B
:102920008E7FC95DDE4F8883C752D140CD5DDE4FBB
:102930001882C352D14081E0CA5DDE4F8883C652FF
:10294000D140CB5DDE4F1882C552D14085E0CC5DD1
:10295000DE4F8883C452D1401092B8018091B901F2
:1029600080788093B9018091B9018F778093B90104
:102970008091BA01807C8093BA018091BA018F7BEB
:102980008093BA018091BA018F778093BA018091C8
:102990006F00816080936F00CE5DDE4F8881C252F0
:1029A000D14080788160CE5DDE4F8883C252D140B5
:1029B000C95DDE4F8881C752D14080FD2AC0BE016B
:1029C0006F5F7F4FCE018E5D9E4F0E945D10C95D8F
:1029D000DE4F8881C752D14080FD10C0CF5DDE4FF1
:1029E0008881C152D14085FD09C0BE016F5F7F4F14
:1029F000CE018E5D9E4F0E942A14E9CFCE5DDE4F40
:102A00008881C252D14091E0980F9F778078892BBE
:102A1000CACF0E94D70FC95DDE4F0FB6F894DEBF54
:102A20000FBECDBFDF91CF9108950E94C0080E94D4
:102A3000A00F8091B901982F991F9927991F809114
:102A4000BA018F73880F892B90E00E9457220E9451
:102A50008014FDCF8091E80080FFFCCF089581E0D5
:102A60008093D70080EA8093D80082E189BD09B4C1
:102A700000FEFDCF80E98093D8001092E000109214
:102A8000C0011092BD018CE08093E200789408951B
:102A90008091C00108959FB7F8948091C001882368
:102AA00069F083E08093E9002BE68091E80085FDE2
:102AB00009C082FF03C02093E800F7CF9FBF8FEFCC
:102AC0009FEF08958091F1002091E80025FD03C05B
:102AD0002BE62093E8009FBF90E008952FB7F8946D
:102AE0008091C001811102C080E010C083E080931A
:102AF000E9008091F200811109C09091E80092FFF5
:102B0000F3CF95FDF1CF9BE69093E8002FBF08959A
:102B10008091C001882371F08FB7F89493E090936F
:102B2000E9002BE69091E80095FF03C02093E800B0
:102B3000F9CF8FBF08959091C001992371F09FB78D
:102B4000F89424E02093E9002091BE01222349F06B
:102B50002091E80025FD03C09FBF8FEF08951092DC
:102B6000BE012091E400275E34E04091E80045FD7D
:102B700012C09FBF9091E400291304C081E08093AC
:102B8000BE01EBCF9091C001992339F39FB7F89420
:102B90003093E900EACF8093F1008091E80085FD51
:102BA00003C08AE38093E80085E08093BF019FBF64
:102BB00080E008959091C0019923D1F09FB7F894D7
:102BC00024E02093E9002091E80025FD02C09FBF8A
:102BD0000FC08093F1008091E80085FD03C08AE377
:102BE0008093E80085E08093BF019FBF80E0089557
:102BF0008FEF08950F931F93CF93DF93DC01CB01E9
:102C00002091C001222371F02FB7F89434E0309363
:102C1000E9003091BE01332349F03091E80035FDE1
:102C200003C02FBF8FEF43C11092BE01C4E0D0E4B8
:102C30001AE305E0009709F439C13091E400375EEA
:102C40004091E80045FD12C02FBF2091E4003213EF
:102C500004C081E08093BE01E5CF2091C001222312
:102C600009F32FB7F894C093E900EACF3091F2004E
:102C7000ED2FE31B4E2F50E08417950708F4E82F43
:102C80008E1B91094E2F50E04134510508F001C1CF
:102C9000FA01E35AFF4F0C94B5213C913093F100B7
:102CA00011963C913093F10011963C913093F100D4
:102CB00011963C913093F10011963C913093F100C4
:102CC00011963C913093F10011963C913093F100B4
:102CD00011963C913093F10011963C913093F100A4
:102CE00011963C913093F10011963C913093F10094
:102CF00011963C913093F10011963C913093F10084
:102D000011963C913093F10011963C913093F10073
:102D100011963C913093F10011963C913093F10063
:102D200011963C913093F10011963C913093F10053
:102D300011963C913093F10011963C913093F10043
:102D400011963C913093F10011963C913093F10033
:102D500011963C913093F10011963C913093F10023
:102D600011963C913093F10011963C913093F10013
:102D700011963C913093F10011963C913093F10003
:102D800011963C913093F10011963C913093F100F3
:102D900011963C913093F10011963C913093F100E3
:102DA00011963C913093F10011963C913093F100D3
:102DB00011963C913093F10011963C913093F100C3
:102DC00011963C913093F10011963C913093F100B3
:102DD00011963C913093F10011963C913093F100A3
:102DE00011963C913093F10011963C913093F10093
:102DF00011963C913093F10011963C913093F10083
:102E000011963C913093F10011963C913093F10072
:102E100011963C913093F10011963C913093F10062
:102E200011963C913093F10011963C913093F10052
:102E300011963C913093F10011963C913093F10042
:102E400011963C913093F10011963C913093F10032
:102E500011963C913093F10011963C913093F10022
:102E600011963C913093F10011963C913093F10012
:102E700011963C913093F10011963C913093F10002
:102E800011963C913093F10011963C913093F100F2
:102E900011963C913093F10011963091E80035FF86
:102EA0001093E8000093BF012FBFC4CE80E0DF91F4
:102EB000CF911F910F9108958FB7F8949091BF0112
:102EC000992341F094E09093E9009AE39093E8000D
:102ED0001092BF018FBF0895609136017091370144
:102EE0008091380190913901089580913A010895B7
:102EF00080913B01089580913C0108958091BD012E
:102F000008959FB7F8942091C001222339F022E060
:102F10002093E9002091E80025FD03C09FBF8FEFBB
:102F2000089521EA2093F10020E22093F10010920D
:102F3000F1001092F1001092F1001092F10021E0E6
:102F40002093F1001092F1008093F1008AE38093C6
:102F5000E8009FBF80E008951F920F920FB60F9276
:102F600011248F939F938091E1001092E10083FFE1
:102F700011C01092E90091E09093EB001092EC00E8
:102F800092E19093ED0098E09093F0001092C001D0
:102F90001092BD0182FF13C08091C001882379F097
:102FA0008091BF01882359F081508093BF01811126
:102FB00006C084E08093E9008AE38093E8009F9153
:102FC0008F910F900FBE0F901F9018951F920F9228
:102FD0000FB60F921124FF920F931F932F933F93DD
:102FE0004F935F936F937F938F939F93AF93BF9311
:102FF000CF93DF93EF93FF931092E9008091E80065
:1030000083FF17C1F090F1008091F1000091F10071
:103010009091F10010E0192BC091F1009091F10016
:10302000D0E0D92B2091F1006091F10092EF9093C4
:10303000E800863009F049C08EE392E048E652E0AD
:10304000FC01A591B4910A171B07D9F4FC01329633
:10305000A591B491CA17DB07A1F4FC013496459100
:103060005491FC013696849130E0362B2F3F310588
:1030700019F010F02FEF30E0281708F4822F3EEF00
:103080000CC0079648175907D9F6D3C0490F511DF0
:10309000891B3093E8008823A9F09091E800292F3C
:1030A0002570D9F392FDC8C0982F813108F090E1C6
:1030B000FA01292F222351F364916093F1002150EA
:1030C0003196F8CF903149F3B7C0853049F48EEF8F
:1030D0008093E8000E942A1500680093E300ACC0CA
:1030E000893059F5F110A5C00093C0011092BD01BF
:1030F0001092BF018EEF8093E80041E08DEF92E0E7
:103100004093E9009C012F5F3F4FFC015491509385
:10311000EB00552359F0F90124912093EC009C0118
:103120002D5F3F4F3196E491E093ED004F5F4530C6
:1031300011F0C901E5CF8EE177C0883051F4F0E895
:10314000FF1277C00E942A158091C0018093F10080
:1031500049C0813281F481EAF8126BC00E942A15BD
:10316000E6E3F1E08DE391E021912093F1008E17E9
:103170009F07D1F737C08032A9F491E2F91259C004
:103180008091E80082FFFCCFE6E3F1E08DE391E07F
:103190002091F10021938E179F07D1F78BEF809339
:1031A000E80020C0823241F4E1E2FE1242C0009306
:1031B000BD010E942A1516C0811118C00E942A154F
:1031C000F2E8FF120AC0C093E9008091EB0085FB92
:1031D000882780F91092E90001C080E08093F10017
:1031E0001092F1008EEF8093E80026C0982F9D7F0B
:1031F0009130F9F492E0F9121CC0012BD1F4CF7791
:103200009FEF9C0F9430A8F49EEF9093E800C0933A
:10321000E900833071F089E18093EB0081E090E078
:1032200001C0880FCA95EAF78093EA001092EA007D
:1032300003C081E28093EB00FF91EF91DF91CF918A
:10324000BF91AF919F918F917F916F915F914F91BE
:103250003F912F911F910F91FF900F900FBE0F90F4
:103260001F9018959B01AC01F89460E079E08DE324
:1032700090E00E949321DA01C9010197A109B109E7
:10328000B695A795979587959093CD008093CC00A0
:1032900082E08093C80088E98093C90086E080932B
:1032A000CA0010920302109204021092C1011092FF
:1032B000C20178940895909104029F5F983208F0BB
:1032C00090E0209103029217E1F3E92FF0E0EB5F29
:1032D000FD4F80839093040288EB8093C90008958A
:1032E0009091C2018091C1019817D1F39091C101D1
:1032F0009F5F903408F090E0E92FF0E0ED53FE4F2F
:1033000080819093C10108958091C2019091C10183
:10331000891708F4805C891B08951F920F920FB6DD
:103320000F9211248F939F93EF93FF939091040238
:1033300080910302981304C088E98093C9000FC0EC
:10334000809103028F5F883208F080E0E82FF0E080
:10335000EB5FFD4F90819093CE0080930302FF912D
:10336000EF919F918F910F900FBE0F901F90189526
:103370001F920F920FB60F9211242F938F939F934A
:10338000EF93FF939091CE008091C2018F5F8034C4
:1033900008F080E02091C101821739F0E82FF0E0B9
:1033A000ED53FE4F90838093C201FF91EF919F9167
:1033B0008F912F910F900FBE0F901F901895CF9364
:1033C000DF9360E080E00E945B1CC4E3D2E069917F
:1033D00081E00E94001C84E0CC32D807C1F7DF9165
:1033E000CF910895E4E3F2E0119284E0EC32F80723
:1033F000D9F70895DC019B0184359105F8F4203359
:103400003105E0F4C90133E0959587953A95E1F7E8
:1034100034E5389FF001399FF00D1124EA0FFB1FAE
:10342000EC5CFD4F3081277081E090E001C0880F97
:103430002A95EAF7452B19F0832B80830895809510
:103440008323FBCF2F923F924F925F926F927F9296
:103450008F929F92AF92BF92CF92DF92EF92FF92A4
:103460000F931F93CF93DF93CDB7DEB72C970FB693
:10347000F894DEBF0FBECDBF8B879C877B016A01AE
:1034800059012B853C8524173507A1F56B0113C025
:1034900081E0C81AD1080FC0CA14DB0494F0A80157
:1034A000B6018B859C850E94FA19EA14FB0484F707
:1034B0003FEFC31AD30AEA14FB0474F7AC14BD043B
:1034C00074F72C960FB6F894DEBF0FBECDBFDF9118
:1034D000CF911F910F91FF90EF90DF90CF90BF9011
:1034E000AF909F908F907F906F905F904F903F90A4
:1034F0002F9008956A157B0501F5AB84BC8414C038
:1035000021E0A21AB10810C0AC14BD04D4F2A80185
:10351000B701C5010E94FA19AB85BC85AC15BD0584
:103520007CF7BFEFAB1ABB0A8B859C858C159D057C
:103530005CF7CA14DB045CF7C4CFAB85BC854A17C3
:103540005B0754F48F2D7501A62EB82E9B858C85B4
:103550005C874B87C92ED82E36012B853C85621A95
:10356000730A45018E189F08C401092C000CAA0B90
:10357000BB0B89839A83AB83BC83BC01CD010E94C2
:10358000CA201B012C01C301072C000CAA0BBB0B8A
:1035900089839A83AB83BC83BC01CD010E94CA207E
:1035A0009B01AC0129823A824B825C8269817A81DB
:1035B0008B819C810E945620462F572FBC014D8342
:1035C0005E836F83788720E030E0A9016D817E8182
:1035D0008F8198850E947A2187FF09C08D819E8105
:1035E000AF81B885B0588D839E83AF83B887512C47
:1035F000412C312C212C892D881F8827881FA82F2A
:10360000B0E0BA87A987161417040CF068C02B85A0
:103610003C85C216D3060CF454CFA801B7018B85A4
:103620009C850E94FA192D813E814F8158855982CF
:103630004A823B822C8269817A818B819C810E94A3
:10364000E51F562E472E382E292E20E030E040E090
:103650005FE369837A838B839C8369817A818B8121
:103660009C810E947A2187FD06C01814190464F415
:10367000AE14BF0464F4161417045CF58B859C85A6
:1036800001969C878B87BFCFEA14FB04A4F3A801A3
:10369000B7018B859C850E94FA1981E090E018148F
:1036A000190414F090E080E029853A85821B930B81
:1036B000E80EF91E20E030E040E85FE359824A82DC
:1036C0003B822C8269817A818B819C810E94E41FDC
:1036D000B8CFAB85BC851197BC87AB8794CF8B8562
:1036E0009C858C159D050CF098CFEBCE4F925F9288
:1036F0006F927F928F929F92AF92BF92CF92DF9202
:10370000EF92FF920F931F93CF93DF933B015901E9
:103710004052550B65E0649F9001659F300D112468
:10372000A901495F5C4F7A01EC012C0155E0450E7F
:10373000511C88248394912CF701C490A114B104E6
:1037400009F4C09410E000E0D12CA401002E02C0C6
:10375000440F551F0A94E2F74C215D21002E02C050
:10376000559547950A94E2F7B301600F711FCE019A
:103770000E94FA190F5F1F4F0830110531F7FFEF54
:10378000EF1AFF0A2196C415D505B1F6DF91CF9146
:103790001F910F91FF90EF90DF90CF90BF90AF906F
:1037A0009F908F907F906F905F904F900895CF92F1
:1037B000DF92EF92FF920F931F93CF93DF93F62E3A
:1037C000E72E8A01D22EC32EC82FD0E0F801ED0FCC
:1037D000F11D4081411109C0DF91CF911F910F91DF
:1037E000FF90EF90DF90CF9008952D2D3C2D6F2D01
:1037F0007E2D8C2F90E00E94761BCB5FDF5FE6CFA3
:1038000095B19F7D40E2849F90011124922B95B940
:103810005F9887E090E070E08F989B01082E02C0CF
:10382000359527950A94E2F720FF06C02E9A8F9AC5
:10383000019790F75F9A08952E98F9CFCF93C82FEC
:10384000579A249A259A269A879A2C985F9A2C9AA6
:1038500061E280E00E94001C6C2F606880E00E94A2
:10386000001C64E080E00E94001C63E180E00E9494
:10387000001C6CE080E00E94001C60E280E00E947E
:10388000001C6CE080E00E94001C60E480E00E946C
:10389000001C60E880E0CF910C94001CCF93DF9374
:1038A000C8EFD1E060E081E00E94001C2197D1F7D1
:1038B000DF91CF910895CF93C82F606480E00E947C
:1038C000001C6C2F606880E0CF910C94001CA0E17C
:1038D000B0E0EDE6FCE10C94BB217C011B016A0128
:1038E000FC0117821682838181FF44C39E012F5FF2
:1038F0003F4F3901F7019381F10193FD859193FFCA
:1039000081911F01882309F431C3853239F493FD75
:10391000859193FF81911F01853239F4B70190E0C1
:103920000E94502356016501E5CF10E0512C912CE7
:10393000FFE1F915D8F08B3279F038F4803279F064
:103940008332A1F4F92DF0612EC08D3261F0803305
:1039500069F4292D21602DC0392D3260932E892DD7
:103960008460982E2AC0E92DE86015C097FC2DC010
:1039700020ED280F2A3088F496FE06C03AE0139F07
:10398000200D1124122F19C08AE0589E200D1124F9
:10399000522EE92DE0629E2E10C08E3231F496FC3C
:1039A000E5C2F92DF0649F2E08C08C3621F4292D34
:1039B0002068922E02C0883641F4F10193FD859172
:1039C00093FF81911F018111B3CF9BEB980F93302F
:1039D00020F4992D9061805E07C09BE9980F933089
:1039E00008F066C1992D9F7E96FF16E09F73992E71
:1039F000853619F49064992E08C0863621F4392F43
:103A00003068932E02C01111115097FE07C01C336D
:103A100050F444244394410E27E00BC0183038F092
:103A200027E017E005C027E09CE3492E02C0212FC4
:103A3000412C560184E0A80EB11CF6016081718111
:103A400082819381042DA3010E9462226C01F9817D
:103A5000FC87F0FF02C0F3FF06C091FC06C092FE97
:103A600006C000E205C00DE203C00BE201C000E0A9
:103A70008C858C7019F001115AC29BC297FE10C040
:103A80004C0CFC85F4FF04C08A81813309F44A940C
:103A9000141474F528E0241578F588E0482E2CC01D
:103AA00096FC2AC0812F90E08C159D059CF03CEF80
:103AB000C3163FEFD30674F0892D8068982E0AC094
:103AC000E2E0F0E0EC0FFD1FE10FF11D808180339B
:103AD00019F411501111F4CF97FE0EC044244394F1
:103AE000410E812F90E0C816D9062CF41C1904C091
:103AF0004424439401C010E097FE06C01C141D042A
:103B000034F4C601019605C085E090E002C081E072
:103B100090E001110196112331F0212F30E02F5F49
:103B20003F4F820F931F252D30E08217930714F427
:103B3000581A01C0512C892D897049F4552039F04B
:103B4000B70180E290E00E9450235A94F7CF0023FF
:103B500029F0B701802F90E00E94502393FC09C008
:103B6000552039F0B70180E390E00E9450235A9429
:103B7000F7CF97FE4CC04601D7FE02C0812C912C96
:103B8000C60188199909F301E80FF91FFE87ED872F
:103B9000960124193109388B2F87012F10E01195D8
:103BA000019511093FEF8316930629F4B7018EE2C0
:103BB00090E00E945023C814D9044CF08F85988956
:103BC0008815990524F4ED85FE85818101C080E387
:103BD000F1E08F1A91082D853E852F5F3F4F3E877C
:103BE0002D87801691062CF0B70190E00E9450239B
:103BF000D9CFC814D90441F49A81963320F495336F
:103C000019F43C8534FF81E3B70190E04EC08A810E
:103C1000813319F09C859F7E9C87B70190E00E94BC
:103C20005023111105C094FC18C085E690E017C020
:103C3000B7018EE290E00E9450231E5F82E001E017
:103C4000080FF301E80FF11D8081B70190E00E9499
:103C50005023802F0113F3CFE6CF85E490E0B70126
:103C60000E945023D7FC06C0C114D10441F4EC8556
:103C7000E4FF05C0D194C194D1088DE201C08BE26C
:103C8000B70190E00E94502380E32AE0C216D104DD
:103C90002CF08F5FFAE0CF1AD108F7CFB70190E090
:103CA0000E945023B701C601C0960E94502354C100
:103CB000833631F0833779F0833509F056C020C060
:103CC000560132E0A30EB11CF6018081898301E028
:103CD00010E0630112C05601F2E0AF0EB11CF60114
:103CE000C080D18096FE03C0612F70E002C06FEFEC
:103CF0007FEFC6010E9445238C01F92DFF7714C088
:103D0000560122E0A20EB11CF601C080D18096FEC1
:103D100003C0612F70E002C06FEF7FEFC6010E9409
:103D20003A238C01F92DF0689F2EF3FD1AC0852DE2
:103D300090E008171907A8F4B70180E290E00E940C
:103D400050235A94F4CFF60197FC859197FE819108
:103D50006F01B70190E00E94502351105A94015016
:103D600011090115110579F7F7C0843611F089366C
:103D700061F5560197FE09C024E0A20EB11CF601C0
:103D800060817181828193810AC0F2E0AF0EB11C23
:103D9000F60160817181072E000C880B990BF92DBB
:103DA000FF769F2E97FF09C090958095709561953D
:103DB0007F4F8F4F9F4FF0689F2E2AE030E0A30186
:103DC0000E94E823C82EC6183FC0092D853721F46C
:103DD0000F7E2AE030E01DC0097F8F3691F018F485
:103DE000883559F0C3C0803719F0883711F0BEC04C
:103DF000006104FF09C0046007C094FE08C00660AB
:103E000006C028E030E005C020E130E002C020E13B
:103E100032E0560107FF09C084E0A80EB11CF6018C
:103E2000608171818281938108C0F2E0AF0EB11C84
:103E3000F6016081718180E090E0A3010E94E82397
:103E4000C82EC6180F77902E96FE0BC0092D0E7F38
:103E5000C11650F494FE0AC092FC08C0092D0E7ED3
:103E600005C0DC2C092D03C0DC2C01C0D12E04FFC1
:103E70000DC0FE01EC0DF11D8081803311F4097E2F
:103E800009C002FF06C0D394D39404C0802F867863
:103E900009F0D39403FD11C000FF06C01C2DD514FA
:103EA00080F4150D1D190DC0D51458F4B70180E22A
:103EB00090E00E945023D394F7CFD51410F45D18EE
:103EC00001C0512C04FF10C0B70180E390E00E94B4
:103ED000502302FF17C001FD03C088E790E002C035
:103EE00088E590E0B7010CC0802F867859F001FF7B
:103EF00002C08BE201C080E207FD8DE2B70190E0D5
:103F00000E945023C11638F4B70180E390E00E946C
:103F100050231150F7CFCA94F301EC0DF11D8081AD
:103F2000B70190E00E945023C110F5CF15C0F4E016
:103F3000F51560F584E0581A93FE1FC0011127C0E3
:103F40002C8523FF2AC00CE311E0392D3071932E0C
:103F5000F8018491811124C0552009F4E4CCB70103
:103F600080E290E00E9450235A94F6CFF7018681B8
:103F7000978126C08FEF9FEF23C0B70180E290E0CA
:103F80000E9450235A945110F8CFD8CF512CB7012A
:103F9000802F90E00E945023D3CF00E411E0D5CFD2
:103FA00091108052B70190E00E9450230F5F1F4F85
:103FB000CFCF23E0251510F483E0BDCF512CC0CF27
:103FC0006096E2E10C94D7215058BB27AA270E94A3
:103FD000FC1F0C9440210E94322138F00E943921AC
:103FE00020F039F49F3F19F426F40C942F210EF49D
:103FF000E095E7FB0C942921E92F0E94512158F309
:10400000BA17620773078407950720F079F4A6F5BD
:104010000C9473210EF4E0950B2EBA2FA02D0B01FA
:10402000B90190010C01CA01A0011124FF27591BFD
:1040300099F0593F50F4503E68F11A16F040A22F03
:10404000232F342F4427585FF3CF46953795279574
:10405000A795F0405395C9F77EF41F16BA0B620B73
:10406000730B840BBAF09150A1F0FF0FBB1F661FBA
:10407000771F881FC2F70EC0BA0F621F731F841FFD
:1040800048F4879577956795B795F7959E3F08F023
:10409000B0CF9395880F08F09927EE0F97958795E5
:1040A00008950E94052108F481E008950E946A2085
:1040B0000C9440210E94392158F00E94322140F096
:1040C00029F45F3F29F00C94292151110C9474219B
:1040D0000C942F210E94512168F39923B1F35523A9
:1040E00091F3951B550BBB27AA276217730784070B
:1040F00038F09F5F5F4F220F331F441FAA1FA9F3A1
:1041000035D00E2E3AF0E0E832D091505040E6958E
:10411000001CCAF72BD0FE2F29D0660F771F881FEF
:10412000BB1F261737074807AB07B0E809F0BB0BE2
:10413000802DBF01FF2793585F4F3AF09E3F5105F6
:1041400078F00C9429210C9474215F3FE4F3983E9D
:10415000D4F3869577956795B795F7959F5FC9F7DF
:10416000880F911D9695879597F90895E1E0660F60
:10417000771F881FBB1F621773078407BA0720F0D9
:10418000621B730B840BBA0BEE1F88F7E095089542
:10419000E89409C097FB3EF49095809570956195E1
:1041A0007F4F8F4F9F4F9923A9F0F92F96E9BB2797
:1041B0009395F695879577956795B795F111F8CF13
:1041C000FAF4BB0F11F460FF1BC06F5F7F4F8F4F7E
:1041D0009F4F16C0882311F096E911C0772321F074
:1041E0009EE8872F762F05C0662371F096E8862F0C
:1041F00070E060E02AF09A95660F771F881FDAF763
:10420000880F9695879597F90895990F0008550F8F
:10421000AA0BE0E8FEEF16161706E807F907C0F04C
:1042200012161306E407F50798F0621B730B840B54
:10423000950B39F40A2661F0232B242B252B21F42E
:1042400008950A2609F4A140A6958FEF811D811DCE
:10425000089597F99F6780E870E060E008959FEF08
:1042600080EC089500240A9416161706180609060D
:10427000089500240A9412161306140605060895DC
:10428000092E0394000C11F4882352F0BB0F40F464
:10429000BF2B11F460FF04C06F5F7F4F8F4F9F4FA4
:1042A000089557FD9058440F551F59F05F3F71F026
:1042B0004795880F97FB991F61F09F3F79F087958D
:1042C0000895121613061406551FF2CF4695F1DF16
:1042D00008C0161617061806991FF1CF86957105A6
:1042E000610508940895E894BB2766277727CB01DA
:1042F00097F908950E94052108F48FEF089597FB20
:10430000072E16F4009407D077FD09D00E94F22101
:1043100007FC05D03EF4909581959F4F08957095C8
:1043200061957F4F0895A1E21A2EAA1BBB1BFD01C8
:104330000DC0AA1FBB1FEE1FFF1FA217B307E40784
:10434000F50720F0A21BB30BE40BF50B661F771FDC
:10435000881F991F1A9469F76095709580959095BC
:104360009B01AC01BD01CF010895EE0FFF1F059029
:10437000F491E02D09942F923F924F925F926F92A9
:104380007F928F929F92AF92BF92CF92DF92EF92E5
:10439000FF920F931F93CF93DF93CDB7DEB7CA1B66
:1043A000DB0B0FB6F894DEBF0FBECDBF09942A8891
:1043B000398848885F846E847D848C849B84AA8439
:1043C000B984C884DF80EE80FD800C811B81AA81C6
:1043D000B981CE0FD11D0FB6F894DEBF0FBECDBF91
:1043E000ED010895AA1BBB1B51E107C0AA1FBB1F0B
:1043F000A617B70710F0A61BB70B881F991F5A9571
:10440000A9F780959095BC01CD0108958F929F9258
:10441000AF92BF92CF92DF92EF92FF92CF93DF9352
:10442000EC01688179818A819B8161157105810523
:10443000910521F464E279ED8BE597E02DE133EF0E
:1044400041E050E00E94462449015A019B01AC0121
:10445000A7EAB1E40E9465246B017C01ACEEB4EFE5
:10446000A50194010E947324DC01CB018C0D9D1DDC
:10447000AE1DBF1DB7FF03C00197A109B0488883D7
:104480009983AA83BB839F77DF91CF91FF90EF90B1
:10449000DF90CF90BF90AF909F908F9008950E9433
:1044A000062208958DE391E00E9406220895A0E07F
:1044B000B0E080933D0190933E01A0933F01B09303
:1044C00040010895283008F027E03327DA01990FDA
:1044D000311D87FD916000966105710539F43260E8
:1044E0002E5F3D9330E32A95E1F708959F3F30F02A
:1044F00080387105610509F03C5F3C5F3D93913068
:1045000008F08068911DDF93CF931F930F93FF9264
:10451000EF92192F987F9695E92F96959695E90F2A
:10452000FF27E256FE4F99273327EE24FF24A701E9
:10453000E70105900894079428F4360FE71EF81E4B
:10454000491F511D660F771F881F991F0694A1F7F9
:104550000590079428F4E70EF81E491F561FC11D49
:10456000770F881F991F661F0694A1F7059007947F
:1045700028F4F80E491F561FC71FD11D880F991F19
:10458000661F771F0694A1F70590079420F4490F42
:10459000561FC71FD81F990F661F771F881F0694C5
:1045A000A9F784911095177041F0D695C795579546
:1045B0004795F794E7941A95C1F7E4E4F1E068941D
:1045C0001590159135916591959105907FE27395C0
:1045D000E118F10A430B560BC90BD009C0F7E10CE7
:1045E000F11E431F561FC91FD01D7EF4703311F4F6
:1045F0008A95E6CFE894015030F0080F0AF40027BE
:10460000021708F4202F2395022F7A3328F079E33C
:104610007D932A95E9F710C07D932A9589F6069433
:1046200097956795379517951794E118F10A430BFD
:10463000560BC90BD00998F023957E9173957A3368
:1046400008F070E37C932013B8F77E9170617D933E
:1046500030F0839571E37D9370E32A95E1F711249F
:10466000EF90FF900F911F91CF91DF91992787FDD8
:1046700090950895FC010590615070400110D8F7A5
:10468000809590958E0F9F1F0895FC01615070409A
:1046900001900110D8F7809590958E0F9F1F089577
:1046A0000F931F93CF93DF93FB01238121FD03C061
:1046B0008FEF9FEF2CC022FF16C0468157812481C7
:1046C00035814217530744F4A081B1819D012F5FCA
:1046D0003F4F318320838C93268137812F5F3F4F5B
:1046E0003783268314C08B01EC01FB010084F18524
:1046F000E02D0995892BE1F6D80116968D919C91B4
:104700001797019617969C938E931697CE01DF917B
:10471000CF911F910F910895AEE0B0E0E2E9F3E28E
:104720000C94C9210D891E898F89988D26E02C83D0
:104730001A83098397FF02C080E090E801979E8367
:104740008D83AE01455E5F4F698D7A8DCE010196F6
:104750000E94671C4D815E8157FD0AC02F813885FC
:10476000421753070CF49A01F801E20FF31F10826D
:104770002E96E4E00C94E521AEE0B0E0E2ECF3E24A
:104780000C94C9218C01FA0186E08C831A83098379
:1047900077FF02C060E070E8CB0101979E838D83B4
:1047A000A901BF01CE0101960E94671C4D815E8167
:1047B00057FD0AC02F813885421753070CF49A0120
:1047C000F801E20FF31F10822E96E4E00C94E5212D
:1047D000FA01AA27283051F1203181F1E8946F9332
:1047E0006E7F6E5F7F4F8F4F9F4FAF4FB1E03ED0D8
:1047F000B4E03CD0670F781F891F9A1FA11D680F76
:10480000791F8A1F911DA11D6A0F711D811D911DA8
:10481000A11D20D009F468943F912AE0269F11241D
:104820003019305D3193DEF6CF010895462F477081
:10483000405D4193B3E00FD0C9F7F6CF462F4F70DC
:10484000405D4A3318F0495D31FD4052419302D03A
:10485000A9F7EACFB4E0A6959795879577956795E0
:10486000BA95C9F700976105710508959B01AC01E0
:104870000A2E06945795479537952795BA95C9F707
:10488000620F731F841F951FA01D0895052E97FBAF
:104890001EF400940E945D2457FD07D00E949321CE
:1048A00007FC03D04EF40C945D2450954095309550
:1048B00021953F4F4F4F5F4F08959095809570958C
:1048C00061957F4F8F4F9F4F08950E947824A59F39
:1048D000900DB49F900DA49F800D911D11240895FB
:1048E000B7FF0C9465240E946524821B930B0895E6
:1048F000A29FB001B39FC001A39F700D811D112421
:10490000911DB29F700D811D1124911D0895F89481
:02491000FFCFD7
:10491200000000002E010000000000000000000066
:104922000000003201000000000000000000C00191
:1049320007004E29E502C02902009810F203001177
:1049420007008028020000E10000000008010000CA
:10495200002564002020004C6972616E006E3130C7
:1049620034343637313100544A0047616D65206F67
:104972007665722100507265737320535733005469
:104982006F20726573746172742E00506C6561736E
:104992006520656E746572206E657874006C65764C
:1049A200656C207669612073657269616C004C5692
:1049B20025647C4C25647C53253032647C2530325E
:0849C200643A00253032640064
:00000001FF
