:100000000C9474020C9491020C9491020C94910241
:100010000C9491020C9491020C9491020C94910214
:100020000C9491020C9491020C947D160C94B716CA
:100030000C9491020C9491020C9491020C949102F4
:100040000C9491020C9491020C9491020C949102E4
:100050000C9455090C9491020C9491020C9426096D
:100060000C9491020C9489180C945E180C949102D3
:100070000C9491020C9491020C9491020C949102B4
:100080000C9491020C9491020C9491020C949102A4
:100090000C9491020C9491020C9491020C94910294
:1000A0000C9491020C9491020C949102A108B00856
:1000B000BF08CE08DE08ED08FB081E161A16161635
:1000C00012160E160A1606160216FE15FA15F61563
:1000D000F215EE15EA15E615E215DE15DA15D61558
:1000E000D215CE15CA15C615C215BE15BA15B61548
:1000F000B215AE15AA15A615A2159E159A15961538
:1001000092158E158A15861582157E157A15761527
:1001100072156E156A15661562155E155A15561517
:1001200052154E154A15461542153E153A15361507
:1001300032152E152A15261522151E156E616E0014
:10014000696E660000407A10F35A00A0724E1809DA
:100150000010A5D4E80000E87648170000E40B542E
:10016000020000CA9A3B000000E1F50500008096FD
:100170009800000040420F000000A086010000002F
:10018000102700000000E8030000000064000000E9
:1001900000000A00000000000100000000002C76B2
:1001A000D888DC674F0823DFC1DFAE59E1B1B796CD
:1001B000E5E3E453C63AE651997696E8E6C284262A
:1001C000EB898C9B62ED407C6FFCEFBC9C9F40F206
:1001D000BAA56FA5F490055A2AF75C936B6CF96782
:1001E0006DC11BFCE0E40D47FEF520E6B500D0ED47
:1001F000902E0300943577050080841E08000020AF
:100200004E0A000000C80C333333330F986E12834C
:100210001141EF8D2114893BE65516CFFEE6DB1820
:10022000D1844B381BF77C1D901DA4BBE4242032E5
:1002300084725E228100C9F124ECA1E53D27000112
:100240000000EB021200020000A8024300030000BD
:10025000A40204010309048E0214020309047602B5
:10026000160303090468020C0C033100320033004A
:1002700034003500000016035500530042002000F2
:10028000530065007200690061006C0000001403F7
:1002900059006F007500720020004E0061006D0073
:1002A000650000000403090409024300020100C0C4
:1002B00032090400000102020100052400100105BA
:1002C0002401010104240206052406000107058219
:1002D0000310004009040100020A000000070503A2
:1002E00002400000070584024000001201000202E3
:1002F000000010C0167A040001010203010001C1D0
:1003000012018036018136000000000000005F000D
:10031000000007000700147F147F14242A7F2A128C
:10032000231308646236495522500005030000007B
:100330001C2241000041221C0014083E0814080839
:100340003E080800503000000808080808006060F7
:10035000000020100804023E5149453E00427F4003
:100360000042615149462141454B311814127F101A
:1003700027454545393C4A4949300171090503364D
:1003800049494936064949291E00363600000056BB
:1003900036000008142241001414141414004122E1
:1003A00014080201510906324979413E7E111111AA
:1003B0007E7F494949363E414141227F4141221CCD
:1003C0007F494949417F090909013E4149497A7FED
:1003D0000808087F00417F41002040413F017F081D
:1003E0001422417F404040407F020C027F7F04087E
:1003F000107F3E4141413E7F090909063E4151219E
:100400005E7F09192946464949493101017F0101A9
:100410003F4040403F1F2040201F3F4038403F6347
:100420001408146307087008076151494543007FA9
:1004300041410002040810200041417F00040201F4
:100440000204404040404000010204002054545443
:10045000787F484444383844444420384444487FF2
:100460003854545418087E0901020C5252523E7FEF
:100470000804047800447D40002040443D007F1083
:1004800028440000417F40007C041804787C080464
:10049000047838444444387C14141408081414189C
:1004A0007C7C080404084854545420043F444020F1
:1004B0003C4040207C1C2040201C3C4030403C44C0
:1004C000281028440C5050503C4464544C440008BC
:1004D00036410000007F0000004136080010080887
:1004E000100878464146780011241FBECFEFDAE0AD
:1004F000DEBFCDBF11E0A0E0B1E0E4EBF6E402C066
:1005000005900D92AE3BB107D9F724E0AEEBB1E018
:1005100001C01D92A233B207E1F70E94E6130C94CA
:1005200058230C940000FC0180819181860F971F55
:10053000BA010E945020918380830895BF92CF9288
:10054000DF92EF92FF920F931F93CF93DF93CDB77C
:10055000DEB7C455D1090FB6F894DEBF0FBECDBFCC
:10056000082FE62EB22E5F934F9387E491E09F937E
:100570008F931F9284E58F93CE0101966C019F9318
:100580008F930E945D220E2C000CFF08002E000CA1
:10059000110B21E04AE451E0B701C8010E94A81AFA
:1005A0002B2DA601B701C8010E94A81A0FB6F89416
:1005B000DEBF0FBECDBFCC5ADF4F0FB6F894DEBF03
:1005C0000FBECDBFDF91CF911F910F91FF90EF90A4
:1005D000DF90CF90BF900895CF93DF93CDB7DEB774
:1005E000E2970FB6F894DEBF0FBECDBF9E01235C2D
:1005F0003F4F4BAD5CAD62E370E0CE0101960E94CF
:100600008D2221E0AE014F5F5F4F69AD7AAD8FA9BA
:1006100098AD0E94A81AE2960FB6F894DEBF0FBEFE
:10062000CDBFDF91CF9108956A3098F050E070E02F
:1006300020E330E0241B350B6217730754F4682F56
:1006400070E024E530E0241B350B81E0621773076E
:100650000CF080E00895DC01ED91FC91DB012D911F
:100660003C912E173F071CF0A1E0B0E002C0AFEFB5
:10067000BFEF2E1B3F0B2A9FF0012B9FF00D3A9FDF
:10068000F00D1124DC0112968D919C911397DB01E2
:1006900012962D913C911397281739071CF061E0B1
:1006A00070E002C06FEF7FEF281B390B269FC0015F
:1006B000279F900D369F900D1124483729F0493718
:1006C00021F08E0F9F1F0895CF010895CF92DF92E2
:1006D000FF920F931F93CF93DF93DA01EB01BC01DD
:1006E00040E050E02BECF22EF49EF001F59EF00D70
:1006F0001124E80FF91FE054FF4F208127FF16C097
:100700002F7730E0FB0100E010E00217130770F4D0
:10071000C080D180CA16DB0629F4C280D380CC16F3
:10072000DD0671F00F5F1F4F3496EFCF4F5F5F4FC5
:1007300065537F4F46305105B9F680E090E002C026
:1007400081E090E0DF91CF911F910F91FF90DF90BA
:10075000CF9008952F923F924F925F926F927F9227
:100760008F929F92AF92BF92CF92DF92EF92FF92C1
:100770000F931F93CF93DF93CDB7DEB72E970FB6AE
:10078000F894DEBF0FBECDBF9E878D871B01590138
:10079000F901408051806280838180FB772470F86A
:1007A00081FF87C085E090E021E030E0B901681B5F
:1007B000790B7C836B836A01C61AD70ACA01019739
:1007C0009A878987812C912C1A821982F10131979D
:1007D000FC87EB8771018B819C81E81AF90A40FE46
:1007E0003BC06D857E85672B71F40115110511F4F1
:1007F00040E004C00130110579F541E0B601C701C0
:100800000E94CB1829C00115110599F4FE82ED82D2
:10081000D886CF824D815E816F8178858D859E855A
:100820000E946603892BC1F081E090E09A8389835E
:1008300013C00130110581F4F401EE0FFF1FEE0F1C
:10084000FF1F6D857E85E60FF71FF182E082D38260
:10085000C2827FEF871A970A7694679457944794D9
:1008600081E0E81AF108EB85FC85EE15FF0509F03B
:10087000B6CFF501838181FD07C092E0769467943D
:10088000579447949A95D1F7F1E0CF1AD10869852A
:100890007A856C157D0509F09DCFED85FE85309735
:1008A00091F00130110579F4EC59FF4F918280826B
:1008B0000AC086E076946794579447948A95D1F756
:1008C00083E090E071CF89819A812E960FB6F894DB
:1008D000DEBF0FBECDBFDF91CF911F910F91FF9073
:1008E000EF90DF90CF90BF90AF909F908F907F90D0
:1008F0006F905F904F903F902F900895AF92BF926E
:10090000CF92DF92EF92FF920F931F93CF93DF93DB
:10091000FC016B01EA01DB0113968C9181FD02C0A1
:1009200043E001C045E0E280A380F080B1809E01F9
:100930006E2D8F2D0E941403282F882371F000E064
:1009400010E096014E2D5A2D6F2D7B2DCE010E9469
:10095000AA0321E0892B09F020E0822FDF91CF91BB
:100960001F910F91FF90EF90DF90CF90BF90AF90CD
:100970000895CF92DF92EF92FF920F931F93CF9340
:10098000DF93FC01EC59FF4F00811181FC0120E055
:1009900030E0EB01CC59DF4F2017310711F14881CE
:1009A0005981DB0180E090E084179507A1F0C080B9
:1009B000D180ED90FC901197CE14DF0449F4C280F1
:1009C000D3801296ED90FC901397CE14DF0439F08B
:1009D00001961496E9CF2F5F3F4F3496DDCF81E02B
:1009E00001C080E0DF91CF911F910F91FF90EF90B8
:1009F000DF90CF9008950F931F93CF93DF93CDB7E0
:100A0000DEB7C656D1090FB6F894DEBF0FBECDBF14
:100A1000FE01319626E6DF011D922A95E9F7DC01F9
:100A20000D911D912D913C9109831A832B833C8359
:100A300081E090E0A7969FAF8EAFA797CF010E946D
:100A4000B904CA59DF4F0FB6F894DEBF0FBECDBF51
:100A5000DF91CF911F910F910895EF92FF920F9325
:100A60001F93CF93DF93CDB7DEB7CC5CD1090FB620
:100A7000F894DEBF0FBECDBF8C017B016F5F7F4F4F
:100A800041E601960E942B030B9770F5F8019081C7
:100A9000892F817090FF29C0F7019081892F817083
:100AA00090FF23C0F8012581368143815481618103
:100AB000728101E010E0CE0189599F4F0E94AA0384
:100AC000F701258136814381548161817281CE0194
:100AD00001960E94AA03BE016F5F7F4FCE01895924
:100AE0009F4F0E94B90401C080E0C453DF4F0FB68E
:100AF000F894DEBF0FBECDBFDF91CF911F910F9154
:100B0000FF90EF900895EF92FF920F931F93CF9372
:100B1000DF93CDB7DEB7CC5CD1090FB6F894DEBF5A
:100B20000FBECDBF8C017B016E5F7F4F41E6029609
:100B30000E942B030B9710F5F8012089318944811D
:100B400055816281738101E010E0CE0189599F4F88
:100B50000E94AA03F701208931894481558162816D
:100B60007381CE0101960E94AA03BE016F5F7F4F81
:100B7000CE0189599F4F0E94B90401C080E0C4533F
:100B8000DF4F0FB6F894DEBF0FBECDBFDF91CF9120
:100B90001F910F91FF90EF900895EF92FF920F93A6
:100BA0001F93CF93DF93CDB7DEB7CC5CD1090FB6DF
:100BB000F894DEBF0FBECDBF8C01FB019081892F61
:100BC000817090FF2DC07B016F5F7F4F41E6C801B0
:100BD00002960E942B030B9710F5F80120893189AA
:100BE000448155816281738101E010E0CE01895911
:100BF0009F4F0E94AA03F7012581368143815481CA
:100C000061817281CE0101960E94AA03BE016F5FCD
:100C10007F4FCE0189599F4F0E94B90401C080E0E7
:100C2000C453DF4F0FB6F894DEBF0FBECDBFDF91C8
:100C3000CF911F910F91FF90EF900895CF92DF9287
:100C4000EF92FF920F931F93CF93DF937C01EB0101
:100C50008B010E531B4F6B018BE1C81A8BEFD80A27
:100C600081E090E00C151D05D1F0892B19F480E08E
:100C700090E012C0B8016D5D7F4FC7010E942D0545
:100C80008111F5CFB801C7010E942D0531E020E0A8
:100C9000811130E0832F922F095F1F4FE3CF009720
:100CA00051F0BE0164597A4FC7010E942D0531E011
:100CB000811130E0832FDF91CF911F910F91FF9031
:100CC000EF90DF90CF9008952F923F924F925F92D6
:100CD0006F927F928F929F92AF92BF92CF92DF924C
:100CE000EF92FF920F931F93CF93DF93CDB7DEB7B1
:100CF00064970FB6F894DEBF0FBECDBF9C838B8385
:100D00001B013A013C8B2B8B2801FC0180549F4F27
:100D1000DF01A817B90749F011961C921E9213968D
:100D20001C921E9212971496F4CF8B899C892816D8
:100D30003906F9F4C10164E570E00E9450207C019D
:100D40009301A1E0B0E0BE83AD8306E210E0AD8187
:100D5000BE811197BA83A983641475042CF44216DA
:100D600053060CF05AC136C1241535050CF068C184
:100D700031C16414750429F5C3010A9766E270E075
:100D80000E9450206C01BAE0CB0ED11C910101E011
:100D900010E044E5E42EF12CC80101979A83898381
:100DA000AB89BC892A163B062CF4A217B3070CF0BA
:100DB00054C110C18B899C89281739070CF05BC17D
:100DC00009C1AB89BC89A215B30554F4962D872DB2
:100DD0003201492E582E922D832D1D019B8B8C8B19
:100DE0006B897C8962197309072E000C880B990B9B
:100DF0000E949B1F6B877C878D879E87B201661937
:100E00007709072E000C880B990B0E949B1F4B0142
:100E10005C012B853C854D855E850E94271F6D8377
:100E20007E838F83988720E030E0A9010E944B20C9
:100E300087FF09C08D819E81AF81B885B0588D83B1
:100E40009E83AF83B887C12CD12C76011A82198278
:100E500020E030E0A9016B857C858D859E850E9410
:100E60004B2018160CF0B0C08B899C898215930515
:100E70000CF4B0C0C10164E570E00E945020988B72
:100E80008F8709811A81000F111F000F111FAB817D
:100E9000BC810A0F1B1FF80191838083C3010A974D
:100EA00066E270E00E9450200A96938382838981D3
:100EB0009A8101969A8389832D813E814F8158853D
:100EC000C701B6010E94B61E6B017C011A87098713
:100ED00020E030E040E05FE3C701B6010E944B2014
:100EE00087FF10C020E030E0A9016B857C858D85EF
:100EF0009E850E944B2018160CF062C0FFEF2F1A3F
:100F00003F0AA6CF20E030E0A901C501B4010E944C
:100F10004B2018160CF04FC0461457041CF3EF85F5
:100F2000F889A985BA851596FC93EE931497C301A9
:100F30000A9766E270E00E9450200A96A985BA8559
:100F400017969C938E931697E981FA813196FA83CE
:100F5000E98301E010E020E030E0A901C501B4011F
:100F60000E944B20181614F000E010E081E090E0A1
:100F70009A8B898B20E030E0A901C501B4010E9461
:100F8000221F87FD02C01A8A198AA989BA890A1BF9
:100F90001B0B600E711E20E030E040E85FE3C701EC
:100FA000B6010E94B51E6B017C01E985FA85349675
:100FB000FA87E9878DCF641475040CF0B0CF92CF17
:100FC00021E0221A310844CFAB89BC892A163B069E
:100FD0000CF050CFEB81FC81E054FF4FB981BF771B
:100FE00080818078B82BB08364960FB6F894DEBF0A
:100FF0000FBECDBFDF91CF911F910F91FF90EF906A
:10100000DF90CF90BF90AF909F908F907F906F9028
:101010005F904F903F902F900895F182E082C90138
:101020000A97B8010E9450200A96938382832F5F0B
:101030003F4F8D819E8101969E838D83349687CE0E
:10104000F182E082C9010A97B8010E9450200A96F5
:101050009383828321503109ECCFC901B7010E94EB
:10106000502091838083D382C2822F5F3F4F0F5FD6
:101070001F4F349691CEC901B7010E945020918331
:101080008083D382C28221503109F1CF20982198E8
:1010900027985098519886988598229A239A08956F
:1010A000E1E6F0E080E8808381E080838FE30E94C6
:1010B000EF1A0E941F1B85B5877F85BD85B58460AB
:1010C00085BD85B58D7F85BD85B58E7F85BDEEE6F9
:1010D000F0E0808181608083E1E8F0E08081877FBB
:1010E000808380818F7E808380818B7F80838081DD
:1010F0008D7F8083808181608083EFE6F0E0808156
:10110000816080837894479A0C944608FC01DC0146
:10111000AD5CBD4F9C91990F292F2E739C91907CB3
:10112000922B9C938C91982F9F718C91807C892B12
:101130008C93E730F10508F06BC0EA5AFF4F0C942E
:101140008620809133029FB195FB992790F98E7389
:10115000982B80913302807C892B8093330258C076
:10116000809134029FB196FB992790F98E73982B4A
:1011700080913402807C892B8093340249C0209175
:10118000350299B196959170822F8E73982B80912C
:101190003502807C892B809335023AC090913602CB
:1011A00023B19E73822F881F8827881F982B8091D8
:1011B0003602807C892B809336022AC02091370228
:1011C00093B196959170822F8E73982B80913702F0
:1011D000807C892B809337021BC09091380229B103
:1011E0009E73822F8170982B80913802807C892B8E
:1011F000809338020DC09091390223B19E73822FE3
:101200008170982B80913902807C892B80933902E0
:101210008C918F738F3119F48C9180648C938C91A5
:101220008F7319F48C918F7B8C93089580E090E0FC
:10123000FC01ED5CFD4F208126FD03C020812F774E
:10124000208301968730910599F708951F920F9298
:101250000FB60F9211242F933F934F935F936F9389
:101260007F938F939F93AF93BF93CF93DF93EF932E
:10127000FF93C0E0D0E0CE010E9486082196C730DF
:10128000D105C9F7FF91EF91DF91CF91BF91AF9158
:101290009F918F917F916F915F914F913F912F918E
:1012A0000F900FBE0F901F9018951F920F920FB6C0
:1012B0000F9211242F938F939F938091BF01982FAA
:1012C000991F9927991F8091C0018F73880F892BCF
:1012D0008F5F8F779091BF0180FB97F99093BF014B
:1012E00086959091C001907C892B8093C00180915C
:1012F000C00180688093C0018091BF01982F991F21
:101300009927991F8091C0018F73880F892B8A3785
:1013100031F58091BE012091BF01922F9F770196F8
:101320009F778093BE019F778091BF018078892B42
:101330008093BF018FE794E00197F1F700C00000B0
:101340008091BF018F778093BF018091C001807C25
:101350008093C0018091C00180648093C0019F91FF
:101360008F912F910F900FBE0F901F9018952F9275
:101370003F924F925F926F927F928F929F92AF9225
:10138000BF92CF92DF92EF92FF920F931F93CF9372
:10139000DF9300D000D0CDB7DEB7282E362E7A01ED
:1013A0008901A82E880FBB08FA01828193818A0DDA
:1013B0009B1D9A838983C62E660FDD0884819581E3
:1013C0008C0D9D1D9C838B8360897189A901CE0141
:1013D00001960E947E04882389F1F7016088718854
:1013E000F301838181FD02C043E001C045E0F701C4
:1013F0008480458092805380632D680D9801822DF2
:10140000890D0E9414038823C9F000E010E09301C5
:10141000482D542D692D752D80E090E00E94AA037F
:10142000F70182819381A80EB91EB382A2828481C2
:101430009581C80ED91ED582C48281E00F900F908D
:101440000F900F90DF91CF911F910F91FF90EF9030
:10145000DF90CF90BF90AF909F908F907F906F90D4
:101460005F904F903F902F900895AF92BF92CF9290
:10147000DF92EF92FF920F931F93CF93DF93EA01D6
:10148000CB80DC8049E04C1550F5A60155274F3242
:1014900051052CF5A980BA80A50155274335510582
:1014A000F4F47B018C0149815A816B817C81C901F3
:1014B0000E946603892B99F440E0B601C5010E94A1
:1014C000CB1889819A81080F191F1A8309836B81B0
:1014D0007C81E60EF71EFC82EB8281E001C080E099
:1014E000DF91CF911F910F91FF90EF90DF90CF9000
:1014F000BF90AF9008958837D1F4DB011196ED913C
:10150000FC911297DA018D919C91E817F90734F458
:10151000AB0160E070E081E090E024C08E179F078F
:101520001CF5AB0160E070E08FEF9FEF1BC08937C7
:10153000D9F4DB011396ED91FC911497DA01129620
:101540008D919C911397E817F90724F4AB0161E0A2
:1015500070E006C08E179F073CF4AB016FEF7FEF82
:1015600080E090E00C94350A80E008958F929F927D
:10157000BF92CF92DF92EF92FF920F931F93CF9380
:10158000DF9300D000D0CDB7DEB76C01809114019D
:101590009091150101969A8389838091160190910B
:1015A000170101969C838B838601075F1A4FE12CFC
:1015B000F12C85E0B82EBE9CF001BF9CF00D1124EB
:1015C000EC0DFD1DE85FFA4F808180FF35C00E9461
:1015D0002321980121503109490180FF08C049E7C2
:1015E000B801CE0101960E942B03892B79F448E7BC
:1015F000B801CE0101960E942B03892B39F0960188
:10160000AE014F5F5F4FB40188E706C09601AE019F
:101610004F5F5F4FB40189E70E947B0ABE9CF001D7
:10162000BF9CF00D1124EC0DFD1DE85FFA4F908179
:1016300080FB90F9908308C0F8016281738140E0DB
:10164000808191810E94CB18FFEFEF1AFF0A0B5F98
:101650001F4F24E1E216F10409F0ADCF0F900F9077
:101660000F900F90DF91CF911F910F91FF90EF900E
:10167000DF90CF90BF909F908F90089521E08030B1
:10168000920721F4FB01EA58FA4F06C082519140BB
:1016900059F4FB01EC58FA4F80818F77482F50E0C6
:1016A0003196208130E004C020E030E040E050E09E
:1016B000BA01C90108952F923F924F925F926F92A3
:1016C0007F928F929F92AF92BF92CF92DF92EF92D2
:1016D000FF920F931F93CF93DF9300D000D000D0E1
:1016E000CDB7DEB77C016B010E943E0B2B013C01A4
:1016F0001B017E826D82F7012089318900E010E0B4
:10170000A301C6010E94AA03892B29F55A824982A6
:101710007C826B82F70160897189A601CE010196F6
:101720000E947E048823B9F0F70120893189448121
:1017300055816281738180E090E00E94AA038981D3
:101740009A81AB81BC81F70182839383A483B583A3
:1017500001E010E002C000E010E053014301011578
:10176000110509F0CEC02BE0821691040CF456C08E
:101770003A8229829C828B82F70160897189A60155
:10178000CE0101960E947E048823C1F0F7012089D2
:101790003189448155816281738100E010E080E0ED
:1017A00090E00E94AA0389819A81AB81BC81F701F4
:1017B00082839383A483B58301E010E0F1E08F1A64
:1017C0009108CDCF3A822982BC82AB82F701608931
:1017D0007189A601CE0101960E947E04882319F129
:1017E000F70120893189448155816281738100E04C
:1017F00010E080E090E00E94AA0389819A81AB8189
:10180000BC81F70182839383A483B58381E090E058
:10181000FFEFAF1ABF0A892B09F073C020E3A216AD
:10182000B10484F203C080E090E0F2CF520124E5DD
:10183000421651040CF05EC05A8249828D819E810D
:101840009C838B83F70160897189A601CE01019683
:101850000E947E048823C9F0F701208931894481E0
:1018600055816281738100E010E080E090E00E9489
:10187000AA0389819A81AB81BC81F701828393831A
:10188000A483B58381E090E002C080E090E0FFEFA8
:101890004F1A5F0A892B59F234C0BA82A9828D810E
:1018A0009E819C838B83F70160897189A601CE019B
:1018B00001960E947E04882309F1F701208931896D
:1018C000448155816281738100E010E080E090E006
:1018D0000E94AA0389819A81AB81BC81F70182832E
:1018E0009383A483B58381E090E0F1E0AF1AB1085F
:1018F000892B39F41A141B0484F203C080E090E0B1
:10190000F4CF26960FB6F894DEBF0FBECDBFDF91A1
:10191000CF911F910F91FF90EF90DF90CF90BF90EC
:10192000AF909F908F907F906F905F904F903F907F
:101930002F900895CF93DF93FB012181233040F155
:1019400040E050E065E0649F9001659F300D1124F8
:10195000280F391FF901E85FFA4F708170FD13C03D
:10196000E901C75FDA4F8091020190910301A091D4
:101970000401B091050188839983AA83BB83808188
:101980008160808305C04F5F5F4F44315105D9F6B8
:10199000DF91CF9108950F931F93CF93DF93EC01C5
:1019A0008B018091370286FF07C09E0140E051E025
:1019B00060E08FEF0E94B7098091380286FF07C070
:1019C0009E0140E051E060E081E00E94B709809113
:1019D000350286FF07C09E0140E051E06FEF80E0D6
:1019E0000E94B7098091360286FF07C09E0140E041
:1019F00051E061E080E00E94B7098091390286FFE2
:101A00000DC08091390287FD09C0B801CE010E9446
:101A10009A0C809139028068809339028091340257
:101A200086FF0CC08091340287FD08C0C858DA4F89
:101A3000988191609883806880933402809133020A
:101A400086FF1DC08091330287FD19C08091BF01C0
:101A5000982F991F9927991F8091C0018F73880F24
:101A6000892B90E003975CF090916F0081E08927CB
:101A700080936F0080913302806880933302DF91FE
:101A8000CF911F910F9108955F926F927F928F92E5
:101A90009F92AF92BF92CF92DF92EF92FF920F93FD
:101AA0001F93CF93DF93CDB7DEB7C656D1090FB6DC
:101AB000F894DEBF0FBECDBF6C014B0160E071E05A
:101AC00082E191E00E948305882399F0B60180E0CD
:101AD00091E00E945B0BB60182E191E00E945B0BFA
:101AE0008091000197E0980F9770887F892B8093F1
:101AF000000176018EE3E81A8BEFF80AA12CB12CD5
:101B00003601EDE86E1AEAEF7E0A87E0582EB7013B
:101B100080E091E00E94CD05882309F1F4018181E4
:101B20008F5F8183F30180818F5F80835A9CF001F6
:101B30005B9CF00D1124EC0DFD1DEE53FB4F8081DD
:101B40008E7F8083F70125813681438154816181B5
:101B5000728100E010E080E090E00E94AA03B701EB
:101B60006D5D7F4F80E091E00E94CD05882311F1EB
:101B70008091000197E0980F9770887F892B809360
:101B800000015A9CF0015B9CF00D1124EC0DFD1D31
:101B9000EB51FB4F80818E7F8083F70120A531A51B
:101BA00046A157A164A175A100E010E080E090E09B
:101BB0000E94AA03FFEFAF1ABF0A87E0E80EF11CEC
:101BC000E5E0AE16B10409F0A2CF209122013091D8
:101BD00023014091160150911701609114017091F9
:101BE000150101E010E0CE0101960E94AA03360122
:101BF000F7EF6F1AFAEF7F0AA12CB12C15E01A9DAE
:101C000070011B9DF00C1124EC0CFD1C88EFE81AF0
:101C10008AEFF80AF701808180FF15C0BE016F5F6F
:101C20007F4FC3010E94FB04882369F0B60182E163
:101C300091E00E945B0BF70180818E7F8083F4012D
:101C400081818F5F8183FFEFAF1ABF0A85E0680E45
:101C5000711CE4E1AE16B10491F6CA59DF4F0FB61C
:101C6000F894DEBF0FBECDBFDF91CF911F910F91D2
:101C7000FF90EF90DF90CF90BF90AF909F908F90AC
:101C80007F906F905F9008950E94C31821E04DE40B
:101C900051E060E070E080E090E00E94A81A21E04E
:101CA00043E551E06AE070E080E090E00E94A81A0D
:101CB00021E04DE551E064E170E080E090E00E94B9
:101CC000A81A0E94B0182FEF84E39CE021508040B6
:101CD0009040E1F700C000008091330286FD03C010
:101CE0000E941609F9CF8091330287FDF9CF8068F1
:101CF0008093330208950E94C31821E040E651E02A
:101D000060E070E080E090E00E94A81A21E04BE6DD
:101D100051E06AE070E080E090E00E94A81A21E0C3
:101D200045E751E064E170E080E090E00E94A81A8D
:101D30000E94B0188091330286FD03C00E941609EC
:101D4000F9CF8091330287FDF9CF80688093330209
:101D50000895CF93DF93EB010E94C31821E041E87F
:101D600051E060E070E080E090E00E94A81A21E07D
:101D700043E951E06AE070E080E090E00E94A81A38
:101D80000E94B0188091330286FD03C00E9416099C
:101D9000F9CF8091330287FDF9CF806880933302B9
:101DA0008C8181608C83DF91CF910895CF93DF93F5
:101DB000CDB7DEB72E970FB6F894DEBF0FBECDBFFE
:101DC000FE01389627E0DF011D922A95E9F79E87EC
:101DD0008D8787E0DE01119601900D928A95E1F7DB
:101DE00029813A814B815C816D817E818F8190E078
:101DF0002E960FB6F894DEBF0FBECDBFDF91CF9108
:101E000008950F931F93CF93DF93EC01FC01EF53E1
:101E1000FF4F10821182128213820E94232180FFC1
:101E200002C08FEF01C081E0FE01E653FF4F8083C7
:101E30003A9780818F77FE0194E0899FE00DF11D34
:101E4000112460817181288139818E010B531F4FCC
:101E500062177307B1F0828193814A815B81841B91
:101E6000950B621B730B0E945020072E000C880BF1
:101E7000990B0E949B1FF801608371838283938377
:101E800009C0C753DF4F81E08883F80110821182B7
:101E900012821382DF91CF911F910F910895BF920B
:101EA000CF92DF92EF92FF920F931F93CF93DF9326
:101EB0007C01EB01FB01E858FA4F80818E7F808323
:101EC000F70180818F77813009F061C0FB01EA580A
:101ED000FA4F8081807880838BE0319680833397BE
:101EE000808180788F64808387E231968083E55B90
:101EF000F440808180688083E553FF4F8081806853
:101F00008083E553FF4F808180688083E553FF4FD6
:101F1000808180688083E553FF4F80818F77808345
:101F2000E553FF4F80818F77808309E110E02DE03A
:101F300030E04FE050E062E170E0CE010E946406C4
:101F40000DE210E029E130E043E250E069E170E0A9
:101F5000CE0185539F4F0E9464060AE010E02CE3F7
:101F600030E04AE050E06DE270E0CE018A569E4FCC
:101F70000E9464060EE110E028E430E049E150E000
:101F80006AE370E0CE018F599D4F0E946406F7010D
:101F900080818F77823011F40E940014F7018081D4
:101FA0008F7790E002971CF1FE01E054FF4F808193
:101FB0008F778083E553FF4F80818F778083E55350
:101FC000FF4F80818F778083E553FF4F80818F772C
:101FD0008083E553FF4F80818F778083E553FF4FE8
:101FE00080818F778083B701CE010E94A90EBE0148
:101FF00080E091E00E945B0BBE0182E191E00E94D3
:102000005B0BC12CD12C87E0B82EBC9C8001BD9C01
:10201000100D11240C0F1D1F7801FEE3EF1AFBEFCA
:10202000FF0A8CE291E00E94D60EF70120833183F3
:10203000428353836483758386830B511B4F84E2F1
:1020400091E00E94D60EF8012083318342835383AE
:10205000648375838683FFEFCF1ADF0A85E0C81695
:10206000D10499F680E090E035E0389FF001399F87
:10207000F00D1124EC0FFD1FE85FFA4F20812E7F39
:10208000208301968431910581F7C459DA4F88E2A3
:1020900091E00E94D60E288339834A835B836C8348
:1020A0007D838E83DF91CF911F910F91FF90EF90F1
:1020B000DF90CF90BF900C94C3189F92AF92BF92C5
:1020C000CF92DF92EF92FF920F931F93CF93DF9304
:1020D00000D000D0CDB7DEB77C018B01DB011596B7
:1020E000ED91FC911697838181FD03C033E0932E1F
:1020F00002C025E0922E0E94232164E570E00E9438
:1021000050209A8389830E94232166E270E00E9416
:1021100050200A969C838B8384E5C82ED12C96E2AE
:10212000A92EB12C9701492D6B8189810E9414033E
:10213000811110C00E942321B6010E9450209A8371
:1021400089830E942321B5010E9450200A969C8316
:102150008B83E8CFF80165817681A701CE010196D6
:102160000E947E04882331F3B701C8010E941E0635
:10217000882301F341E664E171E0CE0101960E94FB
:102180002B030A97B8F289819A81AB81BC81F8014F
:1021900081839283A383B4838081816080830F9045
:1021A0000F900F900F90DF91CF911F910F91FF90A3
:1021B000EF90DF90CF90BF90AF909F90089520E078
:1021C00030E047E0429FB001439F700D1124FC01B5
:1021D000E60FF71FEE53FB4F508150FD06C06E53C4
:1021E0007B4F680F791F0C945D102F5F3F4F253098
:1021F000310541F70895EF92FF920F931F93CF930C
:10220000DF93CDB7DEB727970FB6F894DEBF0FBECA
:10221000CDBF20E030E047E0429F8001439F100D9A
:102220001124080F191F78015BE1E51A5BEFF50A2D
:10223000F701508150FD2EC0BC01898181608983E6
:102240008091140190911501A0911601B091170190
:102250008A839B83AC83BD8384E291E09F838E83DA
:10226000CE0101960E941E068823D1F0F801EA51A2
:10227000FB4F8091140190911501A0911601B0912E
:10228000170180839183A283B383F70180818160EA
:10229000808306C02F5F3F4F2530310509F0BCCF4A
:1022A00027960FB6F894DEBF0FBECDBFDF91CF915A
:1022B0001F910F91FF90EF900895CF93DF9320919E
:1022C000C00126FF1DC0EC018091BE019091BF01AD
:1022D00080FD03C0CE010E94DF108091BE0190916D
:1022E000BF019F7763E070E00E945020892B19F4B2
:1022F000CE010E94FB108091C0018F7B8093C001B2
:102300008091C00187FF05C08091C0018F778093C5
:10231000C001DF91CF910895EF92FF920F931F9329
:10232000CF93DF93FB010EEB11E0D8018C91CFEB43
:10233000D1E098819F772CE3E22EF12CB7010E9427
:1023400050207F936F9381811F928F938091000122
:1023500087701F928F9380818F771F928F9384EA6B
:1023600091E09F938F931F921F921F921F920E9442
:10237000EC02F801808198819F77B7010E9450207C
:102380009F938F9389EB91E09F938F931F921F925E
:102390001F9285E48F930E94EC028DB79EB74696FC
:1023A0000FB6F8949EBF0FBE8DBFDF91CF911F91E6
:1023B0000F91FF90EF9008955F926F927F928F92AE
:1023C0009F92AF92BF92CF92DF92EF92FF920F93C4
:1023D0001F93CF93DF934C015B017C01C0E0D0E001
:1023E0008BEC582E5C9E30015D9E700C1124680CA5
:1023F000791CF301E054FF4F808187FD17C02196BF
:102400008BECE80EF11CC630D10561F7DF91CF915E
:102410001F910F91FF90EF90DF90CF90BF90AF9002
:102420009F908F907F906F905F9008958701C12C4F
:10243000D12C3F01F30180818F7790E0C816D90637
:10244000F4F6F801628173816A30710554F041E05D
:10245000A114B10409F440E0F801808191810E9447
:10246000CB18FFEFCF1ADF0A0C5F1F4FE3CFBF92ED
:10247000CF92DF92EF92FF920F931F93CF93DF9350
:10248000EC01209110013091110140910401509113
:102490000501609102017091030101E010E080E00C
:1024A00090E00E94AA0320912201309123014091E3
:1024B000160150911701609114017091150180E08F
:1024C00090E00E94AA037E018DE3E81A8BEFF80AE0
:1024D000C12CD12C87E0B82EBC9CF001BD9CF00D26
:1024E0001124EC0FFD1FEE53FB4F808180FF0DC0C8
:1024F000F70124813581428153816081718101E03E
:1025000010E080E090E00E94AA03BC9CF001BD9C1A
:10251000F00D1124EC0FFD1FEB51FB4F808180FF6C
:102520000DC0F70127A130A545A156A163A174A153
:1025300001E010E080E090E00E94AA03FFEFCF1AD4
:10254000DF0A87E0E80EF11CE5E0CE16D10421F6A3
:10255000FE01E459FA4F808180FF0FC0359620813B
:10256000318132974081518132976081718101E0E0
:1025700010E080E090E00E94AA036E01F7EFCF1A0E
:10258000FAEFDF0AE12CF12C15E01E9DF0011F9DF2
:10259000F00D1124EC0FFD1FE85FFA4F808180FFE2
:1025A00008C0F6016281738141E0808191810E94BF
:1025B000CB18FFEFEF1AFF0A85E0C80ED11CE4E14B
:1025C000EE16F10411F7DF91CF911F910F91FF905B
:1025D000EF90DF90CF90BF9008950F931F93CF930C
:1025E000DF938C01EB010E94160980910001877036
:1025F00029F4F80184818160848344C080916F0054
:1026000080FF0BC08091BE012091BF01922F9F7768
:10261000892B19F0CE010E945D118091C10190912A
:10262000C201019663E070E00E9450209093C201C5
:102630008093C101892B39F480916F0080FF03C022
:10264000CE010E94B60AB801CE010E94CB0CB8019F
:10265000CE010E94440DB801CE010E948C1161E0B0
:1026600070E0CE010E94DC11CE010E943712F80109
:10267000848180FF0E94B0188FE097E20197F1F704
:1026800000C00000DF91CF911F910F910895CF936B
:10269000DF93CDB7DEB7CE57D5400FB6F894DEBF87
:1026A0000FBECDBFC258DA4F8881CE57D5408E7F3E
:1026B000C258DA4F8883CE57D540C558DA4F1882B2
:1026C000CB57D54081E0C358DA4F8883CD57D540EA
:1026D000C458DA4F1882CC57D54085E08093120158
:1026E00080911301887F8093130185E0809300011E
:1026F00080910101887F809301011092BE01809139
:10270000BF0180788093BF018091BF018F77809354
:10271000BF018091C001807C8093C0018091C00185
:102720008F7B8093C0018091C0018F778093C0011F
:1027300080916F00816080936F00C658DA4F888166
:10274000CA57D54080788160C658DA4F8883CA5707
:10275000D540C258DA4F8881CE57D54080FD2AC077
:10276000BE016F5F7F4FCE0186589A4F0E944F0F78
:10277000C258DA4F8881CE57D54080FD10C0C75867
:10278000DA4F8881C957D54080FD09C0BE016F5F0F
:102790007F4FCE0186589A4F0E94ED12E9CFC6585E
:1027A000DA4F8881CA57D54091E0980F9F7780789B
:1027B000892BCACF0E947B0EC258DA4F0FB6F8940D
:1027C000DEBF0FBECDBFDF91CF9108950E945008AC
:1027D0000E94440E8091BF01982F991F9927991F3D
:1027E0008091C0018F73880F892B90E00E9428216F
:1027F0000E944713FDCF8091E80080FFFCCF089531
:1028000081E08093D70080EA8093D80082E189BD7F
:1028100009B400FEFDCF80E98093D8001092E0005B
:102820001092C6011092C3018CE08093E20078946C
:1028300008958091C60108959FB7F8948091C601CC
:10284000882369F083E08093E9002BE68091E8001B
:1028500085FD09C082FF03C02093E800F7CF9FBF2A
:102860008FEF9FEF08958091F1002091E80025FD02
:1028700003C02BE62093E8009FBF90E008952FB798
:10288000F8948091C601811102C080E010C083E0FD
:102890008093E9008091F200811109C09091E800D5
:1028A00092FFF3CF95FDF1CF9BE69093E8002FBF09
:1028B00008958091C601882371F08FB7F89493E052
:1028C0009093E9002BE69091E80095FF03C02093D8
:1028D000E800F9CF8FBF08959091C601992371F058
:1028E0009FB7F89424E02093E9002091C4012223AB
:1028F00049F02091E80025FD03C09FBF8FEF0895A8
:102900001092C4012091E400275E34E04091E80079
:1029100045FD12C09FBF9091E400291304C081E0DF
:102920008093C401EBCF9091C601992339F39FB7EF
:10293000F8943093E900EACF8093F1008091E800A9
:1029400085FD03C08AE38093E80085E08093C5019C
:102950009FBF80E008959091C6019923D1F09FB761
:10296000F89424E02093E9002091E80025FD02C0BE
:102970009FBF0FC08093F1008091E80085FD03C0E8
:102980008AE38093E80085E08093C5019FBF80E0E3
:1029900008958FEF08950F931F93CF93DF93DC017A
:1029A000CB012091C601222371F02FB7F89434E0B7
:1029B0003093E9003091C401332349F03091E800AD
:1029C00035FD03C02FBF8FEF43C11092C401C4E097
:1029D000D0E41AE305E0009709F439C13091E4002E
:1029E000375E4091E80045FD12C02FBF2091E40002
:1029F000321304C081E08093C401E5CF2091C60169
:102A0000222309F32FB7F894C093E900EACF30915D
:102A1000F200ED2FE31B4E2F50E08417950708F4CA
:102A2000E82F8E1B91094E2F50E04134510508F0DC
:102A300001C1FA01E35AFF4F0C9486203C91309378
:102A4000F10011963C913093F10011963C91309336
:102A5000F10011963C913093F10011963C91309326
:102A6000F10011963C913093F10011963C91309316
:102A7000F10011963C913093F10011963C91309306
:102A8000F10011963C913093F10011963C913093F6
:102A9000F10011963C913093F10011963C913093E6
:102AA000F10011963C913093F10011963C913093D6
:102AB000F10011963C913093F10011963C913093C6
:102AC000F10011963C913093F10011963C913093B6
:102AD000F10011963C913093F10011963C913093A6
:102AE000F10011963C913093F10011963C91309396
:102AF000F10011963C913093F10011963C91309386
:102B0000F10011963C913093F10011963C91309375
:102B1000F10011963C913093F10011963C91309365
:102B2000F10011963C913093F10011963C91309355
:102B3000F10011963C913093F10011963C91309345
:102B4000F10011963C913093F10011963C91309335
:102B5000F10011963C913093F10011963C91309325
:102B6000F10011963C913093F10011963C91309315
:102B7000F10011963C913093F10011963C91309305
:102B8000F10011963C913093F10011963C913093F5
:102B9000F10011963C913093F10011963C913093E5
:102BA000F10011963C913093F10011963C913093D5
:102BB000F10011963C913093F10011963C913093C5
:102BC000F10011963C913093F10011963C913093B5
:102BD000F10011963C913093F10011963C913093A5
:102BE000F10011963C913093F10011963C91309395
:102BF000F10011963C913093F10011963C91309385
:102C0000F10011963C913093F10011963C91309374
:102C1000F10011963C913093F10011963C91309364
:102C2000F10011963C913093F10011963C91309354
:102C3000F10011963C913093F10011963091E8002B
:102C400035FF1093E8000093C5012FBFC4CE80E08C
:102C5000DF91CF911F910F9108958FB7F8949091C4
:102C6000C501992341F094E09093E9009AE3909391
:102C7000E8001092C5018FBF089560913C017091EA
:102C80003D0180913E0190913F0108958091400166
:102C900008958091410108958091420108958091A5
:102CA000C30108959FB7F8942091C601222339F0FB
:102CB00022E02093E9002091E80025FD03C09FBF9A
:102CC0008FEF089521EA2093F10020E22093F10094
:102CD0001092F1001092F1001092F1001092F100A8
:102CE00021E02093F1001092F1008093F1008AE33B
:102CF0008093E8009FBF80E008951F920F920FB667
:102D00000F9211248F939F938091E1001092E10024
:102D100083FF11C01092E90091E09093EB001092B4
:102D2000EC0092E19093ED0098E09093F000109207
:102D3000C6011092C30182FF13C08091C60188238F
:102D400079F08091C501882359F081508093C501A5
:102D5000811106C084E08093E9008AE38093E80053
:102D60009F918F910F900FBE0F901F9018951F92FB
:102D70000F920FB60F921124FF920F931F932F9370
:102D80003F934F935F936F937F938F939F93AF93F3
:102D9000BF93CF93DF93EF93FF931092E90080915D
:102DA000E80083FF17C1F090F1008091F1000091DD
:102DB000F1009091F10010E0192BC091F100909179
:102DC000F100D0E0D92B2091F1006091F10092EF59
:102DD0009093E800863009F049C08EE392E048E61F
:102DE00052E0FC01A591B4910A171B07D9F4FC012C
:102DF0003296A591B491CA17DB07A1F4FC01349671
:102E000045915491FC013696849130E0362B2F3F4A
:102E1000310519F010F02FEF30E0281708F4822F59
:102E20003EEF0CC0079648175907D9F6D3C0490F93
:102E3000511D891B3093E8008823A9F09091E80088
:102E4000292F2570D9F392FDC8C0982F813108F041
:102E500090E1FA01292F222351F364916093F1004C
:102E600021503196F8CF903149F3B7C0853049F4FD
:102E70008EEF8093E8000E94FB1300680093E3004C
:102E8000ACC0893059F5F110A5C00093C60110926D
:102E9000C3011092C5018EEF8093E80041E08DEFF1
:102EA00092E04093E9009C012F5F3F4FFC01549159
:102EB0005093EB00552359F0F90124912093EC0035
:102EC0009C012D5F3F4F3196E491E093ED004F5F01
:102ED000453011F0C901E5CF8EE177C0883051F45B
:102EE000F0E8FF1277C00E94FB138091C601809327
:102EF000F10049C0813281F481EAF8126BC00E946E
:102F0000FB13ECE3F1E083E491E021912093F100E5
:102F10008E179F07D1F737C08032A9F491E2F912DA
:102F200059C08091E80082FFFCCFECE3F1E083E43C
:102F300091E02091F10021938E179F07D1F78BEF3D
:102F40008093E80020C0823241F4E1E2FE1242C0E8
:102F50000093C3010E94FB1316C0811118C00E9488
:102F6000FB13F2E8FF120AC0C093E9008091EB0066
:102F700085FB882780F91092E90001C080E08093EA
:102F8000F1001092F1008EEF8093E80026C0982F98
:102F90009D7F9130F9F492E0F9121CC0012BD1F41D
:102FA000CF779FEF9C0F9430A8F49EEF9093E800AA
:102FB000C093E900833071F089E18093EB0081E0F8
:102FC00090E001C0880FCA95EAF78093EA0010925A
:102FD000EA0003C081E28093EB00FF91EF91DF9163
:102FE000CF91BF91AF919F918F917F916F915F91A1
:102FF0004F913F912F911F910F91FF900F900FBE16
:103000000F901F9018959B01AC01F89460E079E057
:103010008DE390E00E946420DA01C9010197A109C3
:10302000B109B695A795979587959093CD00809314
:10303000CC0082E08093C80088E98093C90086E0D4
:103040008093CA001092090210920A021092C701DE
:103050001092C8017894089590910A029F5F983267
:1030600008F090E0209109029217E1F3E92FF0E0D7
:10307000E55FFD4F808390930A0288EB8093C9003F
:1030800008959091C8018091C7019817D1F390914C
:10309000C7019F5F903408F090E0E92FF0E0E7531C
:1030A000FE4F80819093C70108958091C80190914F
:1030B000C701891708F4805C891B08951F920F923D
:1030C0000FB60F9211248F939F93EF93FF939091DC
:1030D0000A0280910902981304C088E98093C9000C
:1030E0000FC0809109028F5F883208F080E0E82FDE
:1030F000F0E0E55FFD4F90819093CE008093090250
:10310000FF91EF919F918F910F900FBE0F901F90A5
:1031100018951F920F920FB60F9211242F938F9331
:103120009F93EF93FF939091CE008091C8018F5FA2
:10313000803408F080E02091C701821739F0E82F31
:10314000F0E0E753FE4F90838093C801FF91EF9129
:103150009F918F912F910F900FBE0F901F901895F8
:10316000CF93DF9360E080E00E942C1BCAE3D2E0A3
:10317000699181E00E94D11A84E0C233D807C1F777
:10318000DF91CF910895EAE3F2E0119284E0E23317
:10319000F807D9F70895DC019B0184359105F8F40F
:1031A00020333105E0F4C90133E0959587953A95D0
:1031B000E1F734E5389FF001399FF00D1124EA0F53
:1031C000FB1FE65CFD4F3081277081E090E001C07D
:1031D000880F2A95EAF7452B19F0832B80830895F1
:1031E00080958323FBCF2F923F924F925F926F92F5
:1031F0007F928F929F92AF92BF92CF92DF92EF9287
:10320000FF920F931F93CF93DF93CDB7DEB72C9729
:103210000FB6F894DEBF0FBECDBF8B879C877B01B6
:103220006A0159012B853C8524173507A1F56B01EF
:1032300013C081E0C81AD1080FC0CA14DB0494F08F
:10324000A801B6018B859C850E94CB18EA14FB046B
:1032500084F73FEFC31AD30AEA14FB0474F7AC14E3
:10326000BD0474F72C960FB6F894DEBF0FBECDBF29
:10327000DF91CF911F910F91FF90EF90DF90CF9052
:10328000BF90AF909F908F907F906F905F904F9086
:103290003F902F9008956A157B0501F5AB84BC849F
:1032A00014C021E0A21AB10810C0AC14BD04D4F2BD
:1032B000A801B701C5010E94CB18AB85BC85AC1530
:1032C000BD057CF7BFEFAB1ABB0A8B859C858C15BF
:1032D0009D055CF7CA14DB045CF7C4CFAB85BC85E5
:1032E0004A175B0754F48F2D7501A62EB82E9B85C7
:1032F0008C855C874B87C92ED82E36012B853C8563
:10330000621A730A45018E189F08C401092C000C2B
:10331000AA0BBB0B89839A83AB83BC83BC01CD0111
:103320000E949B1F1B012C01C301072C000CAA0B40
:10333000BB0B89839A83AB83BC83BC01CD010E9404
:103340009B1F9B01AC0129823A824B825C8269817E
:103350007A818B819C810E94271F462F572FBC01A9
:103360004D835E836F83788720E030E0A9016D8113
:103370007E818F8198850E944B2087FF09C08D81B7
:103380009E81AF81B885B0588D839E83AF83B88707
:10339000512C412C312C212C892D881F8827881FE6
:1033A000A82FB0E0BA87A987161417040CF068C0DC
:1033B0002B853C85C216D3060CF454CFA801B70167
:1033C0008B859C850E94CB182D813E814F8158852D
:1033D00059824A823B822C8269817A818B819C81CD
:1033E0000E94B61E562E472E382E292E20E030E0A1
:1033F00040E05FE369837A838B839C8369817A8170
:103400008B819C810E944B2087FD06C018141904F3
:1034100064F4AE14BF0464F4161417045CF58B85D1
:103420009C8501969C878B87BFCFEA14FB04A4F38D
:10343000A801B7018B859C850E94CB1881E090E0A4
:103440001814190414F090E080E029853A85821B55
:10345000930BE80EF91E20E030E040E85FE359826C
:103460004A823B822C8269817A818B819C810E9475
:10347000B51EB8CFAB85BC851197BC87AB8794CF01
:103480008B859C858C159D050CF098CFEBCE4F92CB
:103490005F926F927F928F929F92AF92BF92CF92E4
:1034A000DF92EF92FF920F931F93CF93DF933B0135
:1034B00059014052550B65E0649F9001659F300DA6
:1034C0001124A901495F5C4F7A01EC012C0155E000
:1034D000450E511C88248394912CF701C490A114AB
:1034E000B10409F4C09410E000E0D12CA401002E36
:1034F00002C0440F551F0A94E2F74C215D21002EB3
:1035000002C0559547950A94E2F7B301600F711F09
:10351000CE010E94CB180F5F1F4F0830110531F705
:10352000FFEFEF1AFF0A2196C415D505B1F6DF911A
:10353000CF911F910F91FF90EF90DF90CF90BF90B0
:10354000AF909F908F907F906F905F904F90089575
:10355000CF92DF92EF92FF920F931F93CF93DF935F
:10356000F62EE72E8A01D22EC32EC82FD0E0F80106
:10357000ED0FF11D4081411109C0DF91CF911F91E5
:103580000F91FF90EF90DF90CF9008952D2D3C2D5F
:103590006F2D7E2D8C2F90E00E94471ACB5FDF5F4E
:1035A000E6CF95B19F7D40E2849F90011124922B3C
:1035B00095B95F9887E090E070E08F989B01082EA6
:1035C00002C0359527950A94E2F720FF06C02E9A8F
:1035D0008F9A019790F75F9A08952E98F9CFCF931D
:1035E000C82F579A249A259A269A879A2C985F9AD8
:1035F0002C9A61E280E00E94D11A6C2F606880E012
:103600000E94D11A64E080E00E94D11A63E180E058
:103610000E94D11A6CE080E00E94D11A60E280E042
:103620000E94D11A6CE080E00E94D11A60E480E030
:103630000E94D11A60E880E0CF910C94D11ACF9308
:10364000DF93C8EFD1E060E081E00E94D11A2197BA
:10365000D1F7DF91CF910895CF93C82F606480E0B8
:103660000E94D11A6C2F606880E0CF910C94D11A1F
:10367000A0E1B0E0EEE3FBE10C948C207C011B01A7
:103680006A01FC0117821682838181FF44C39E0177
:103690002F5F3F4F3901F7019381F10193FD859130
:1036A00093FF81911F01882309F431C3853239F4D6
:1036B00093FD859193FF81911F01853239F4B70104
:1036C00090E00E94212256016501E5CF10E0512CC7
:1036D000912CFFE1F915D8F08B3279F038F4803273
:1036E00079F08332A1F4F92DF0612EC08D3261F0B2
:1036F000803369F4292D21602DC0392D3260932E3D
:10370000892D8460982E2AC0E92DE86015C097FCA9
:103710002DC020ED280F2A3088F496FE06C03AE02E
:10372000139F200D1124122F19C08AE0589E200DDE
:103730001124522EE92DE0629E2E10C08E3231F4FB
:1037400096FCE5C2F92DF0649F2E08C08C3621F45A
:10375000292D2068922E02C0883641F4F10193FD94
:10376000859193FF81911F018111B3CF9BEB980F3E
:10377000933020F4992D9061805E07C09BE9980FEB
:10378000933008F066C1992D9F7E96FF16E09F73D7
:10379000992E853619F49064992E08C0863621F446
:1037A000392F3068932E02C01111115097FE07C0B7
:1037B0001C3350F444244394410E27E00BC01830CE
:1037C00038F027E017E005C027E09CE3492E02C04F
:1037D000212F412C560184E0A80EB11CF601608116
:1037E000718182819381042DA3010E9433216C0198
:1037F000F981FC87F0FF02C0F3FF06C091FC06C010
:1038000092FE06C000E205C00DE203C00BE201C05B
:1038100000E08C858C7019F001115AC29BC297FE92
:1038200010C04C0CFC85F4FF04C08A81813309F47C
:103830004A94141474F528E0241578F588E0482E8D
:103840002CC096FC2AC0812F90E08C159D059CF021
:103850003CEFC3163FEFD30674F0892D8068982E95
:103860000AC0E2E0F0E0EC0FFD1FE10FF11D8081E6
:10387000803319F411501111F4CF97FE0EC0442477
:103880004394410E812F90E0C816D9062CF41C19E0
:1038900004C04424439401C010E097FE06C01C14E9
:1038A0001D0434F4C601019605C085E090E002C015
:1038B00081E090E001110196112331F0212F30E0D9
:1038C0002F5F3F4F820F931F252D30E08217930704
:1038D00014F4581A01C0512C892D897049F45520CF
:1038E00039F0B70180E290E00E9421225A94F7CF8C
:1038F000002329F0B701802F90E00E94212293FC41
:1039000009C0552039F0B70180E390E00E942122E0
:103910005A94F7CF97FE4CC04601D7FE02C0812CC7
:10392000912CC60188199909F301E80FF91FFE8748
:10393000ED87960124193109388B2F87012F10E06C
:103940001195019511093FEF8316930629F4B701EC
:103950008EE290E00E942122C814D9044CF08F8599
:1039600098898815990524F4ED85FE85818101C02B
:1039700080E3F1E08F1A91082D853E852F5F3F4F40
:103980003E872D87801691062CF0B70190E00E94AB
:103990002122D9CFC814D90441F49A81963320F456
:1039A000953319F43C8534FF81E3B70190E04EC0B4
:1039B0008A81813319F09C859F7E9C87B70190E0B6
:1039C0000E942122111105C094FC18C085E690E0E8
:1039D00017C0B7018EE290E00E9421221E5F82E0B4
:1039E00001E0080FF301E80FF11D8081B70190E0BD
:1039F0000E942122802F0113F3CFE6CF85E490E0CF
:103A0000B7010E942122D7FC06C0C114D10441F4A1
:103A1000EC85E4FF05C0D194C194D1088DE201C0CA
:103A20008BE2B70190E00E94212280E32AE0C216D7
:103A3000D1042CF08F5FFAE0CF1AD108F7CFB7018D
:103A400090E00E942122B701C601C0960E94212267
:103A500054C1833631F0833779F0833509F056C08D
:103A600020C0560132E0A30EB11CF601808189838B
:103A700001E010E0630112C05601F2E0AF0EB11C8C
:103A8000F601C080D18096FE03C0612F70E002C0B5
:103A90006FEF7FEFC6010E9416228C01F92DFF7790
:103AA00014C0560122E0A20EB11CF601C080D180E4
:103AB00096FE03C0612F70E002C06FEF7FEFC6017A
:103AC0000E940B228C01F92DF0689F2EF3FD1AC085
:103AD000852D90E008171907A8F4B70180E290E05F
:103AE0000E9421225A94F4CFF60197FC859197FE0B
:103AF00081916F01B70190E00E94212251105A94E8
:103B0000015011090115110579F7F7C0843611F03C
:103B1000893661F5560197FE09C024E0A20EB11C5A
:103B2000F60160817181828193810AC0F2E0AF0E5B
:103B3000B11CF60160817181072E000C880B990B76
:103B4000F92DFF769F2E97FF09C09095809570956F
:103B500061957F4F8F4F9F4FF0689F2E2AE030E096
:103B6000A3010E94B922C82EC6183FC0092D85376F
:103B700021F40F7E2AE030E01DC0097F8F3691F0DE
:103B800018F4883559F0C3C0803719F0883711F020
:103B9000BEC0006104FF09C0046007C094FE08C0F5
:103BA000066006C028E030E005C020E130E002C039
:103BB00020E132E0560107FF09C084E0A80EB11CE5
:103BC000F601608171818281938108C0F2E0AF0EBD
:103BD000B11CF6016081718180E090E0A3010E9438
:103BE000B922C82EC6180F77902E96FE0BC0092D4D
:103BF0000E7FC11650F494FE0AC092FC08C0092D35
:103C00000E7E05C0DC2C092D03C0DC2C01C0D12E9A
:103C100004FF0DC0FE01EC0DF11D8081803311F415
:103C2000097E09C002FF06C0D394D39404C0802F3C
:103C3000867809F0D39403FD11C000FF06C01C2D47
:103C4000D51480F4150D1D190DC0D51458F4B70105
:103C500080E290E00E942122D394F7CFD51410F493
:103C60005D1801C0512C04FF10C0B70180E390E043
:103C70000E94212202FF17C001FD03C088E790E0E7
:103C800002C088E590E0B7010CC0802F867859F01B
:103C900001FF02C08BE201C080E207FD8DE2B701A7
:103CA00090E00E942122C11638F4B70180E390E031
:103CB0000E9421221150F7CFCA94F301EC0DF11D9F
:103CC0008081B70190E00E942122C110F5CF15C07C
:103CD000F4E0F51560F584E0581A93FE1FC0011159
:103CE00027C02C8523FF2AC00CE311E0392D307149
:103CF000932EF8018491811124C0552009F4E4CC5D
:103D0000B70180E290E00E9421225A94F6CFF70199
:103D10008681978126C08FEF9FEF23C0B70180E295
:103D200090E00E9421225A945110F8CFD8CF512C04
:103D3000B701802F90E00E942122D3CF00E411E050
:103D4000D5CF91108052B70190E00E9421220F5FE1
:103D50001F4FCFCF23E0251510F483E0BDCF512CAA
:103D6000C0CF6096E2E10C94A8205058BB27AA2748
:103D70000E94CD1E0C9411200E94032038F00E9456
:103D80000A2020F039F49F3F19F426F40C94002007
:103D90000EF4E095E7FB0C94FA1FE92F0E94222015
:103DA00058F3BA17620773078407950720F079F470
:103DB000A6F50C9444200EF4E0950B2EBA2FA02DFE
:103DC0000B01B90190010C01CA01A0011124FF27C8
:103DD000591B99F0593F50F4503E68F11A16F040C3
:103DE000A22F232F342F4427585FF3CF46953795C2
:103DF0002795A795F0405395C9F77EF41F16BA0B87
:103E0000620B730B840BBAF09150A1F0FF0FBB1F34
:103E1000661F771F881FC2F70EC0BA0F621F731F7D
:103E2000841F48F4879577956795B795F7959E3FDA
:103E300008F0B0CF9395880F08F09927EE0F97956B
:103E4000879508950E94D61F08F481E008950E9486
:103E50003B1F0C9411200E940A2058F00E9403205E
:103E600040F029F45F3F29F00C94FA1F51110C9493
:103E700045200C9400200E94222068F39923B1F37E
:103E8000552391F3951B550BBB27AA276217730780
:103E9000840738F09F5F5F4F220F331F441FAA1F14
:103EA000A9F335D00E2E3AF0E0E832D091505040D0
:103EB000E695001CCAF72BD0FE2F29D0660F771F7E
:103EC000881FBB1F261737074807AB07B0E809F064
:103ED000BB0B802DBF01FF2793585F4F3AF09E3FE9
:103EE000510578F00C94FA1F0C9445205F3FE4F3E1
:103EF000983ED4F3869577956795B795F7959F5F2C
:103F0000C9F7880F911D9695879597F90895E1E077
:103F1000660F771F881FBB1F621773078407BA07D6
:103F200020F0621B730B840BBA0BEE1F88F7E09531
:103F30000895E89409C097FB3EF49095809570959C
:103F400061957F4F8F4F9F4F9923A9F0F92F96E9E5
:103F5000BB279395F695879577956795B795F1115A
:103F6000F8CFFAF4BB0F11F460FF1BC06F5F7F4FF7
:103F70008F4F9F4F16C0882311F096E911C0772309
:103F800021F09EE8872F762F05C0662371F096E812
:103F9000862F70E060E02AF09A95660F771F881FE1
:103FA000DAF7880F9695879597F90895990F000885
:103FB000550FAA0BE0E8FEEF16161706E807F907FB
:103FC000C0F012161306E407F50798F0621B730B96
:103FD000840B950B39F40A2661F0232B242B252B17
:103FE00021F408950A2609F4A140A6958FEF811DBA
:103FF000811D089597F99F6780E870E060E008955B
:104000009FEF80EC089500240A94161617061806F0
:104010000906089500240A941216130614060506CC
:104020000895092E0394000C11F4882352F0BB0F5D
:1040300040F4BF2B11F460FF04C06F5F7F4F8F4FC0
:104040009F4F089557FD9058440F551F59F05F3FFB
:1040500071F04795880F97FB991F61F09F3F79F0AA
:1040600087950895121613061406551FF2CF46952C
:10407000F1DF08C0161617061806991FF1CF8695AE
:104080007105610508940895E894BB276627772792
:10409000CB0197F908950E94D61F08F48FEF089579
:1040A00097FB072E16F4009407D077FD09D00E94E5
:1040B000C32007FC05D03EF4909581959F4F08954D
:1040C000709561957F4F0895A1E21A2EAA1BBB1B24
:1040D000FD010DC0AA1FBB1FEE1FFF1FA217B307D4
:1040E000E407F50720F0A21BB30BE40BF50B661FEA
:1040F000771F881F991F1A9469F7609570958095AE
:1041000090959B01AC01BD01CF010895EE0FFF1FFB
:104110000590F491E02D09942F923F924F925F9277
:104120006F927F928F929F92AF92BF92CF92DF92C7
:10413000EF92FF920F931F93CF93DF93CDB7DEB72C
:10414000CA1BDB0B0FB6F894DEBF0FBECDBF0994C0
:104150002A88398848885F846E847D848C849B8417
:10416000AA84B984C884DF80EE80FD800C811B8125
:10417000AA81B981CE0FD11D0FB6F894DEBF0FBE54
:10418000CDBFED010895AA1BBB1B51E107C0AA1FBB
:10419000BB1FA617B70710F0A61BB70B881F991FE8
:1041A0005A95A9F780959095BC01CD0108958F92FD
:1041B0009F92AF92BF92CF92DF92EF92FF92CF93F6
:1041C000DF93EC01688179818A819B81611571059A
:1041D0008105910521F464E279ED8BE597E02DE10D
:1041E00033EF41E050E00E94172349015A019B013F
:1041F000AC01A7EAB1E40E9436236B017C01ACEE6E
:10420000B4EFA50194010E944423DC01CB018C0D85
:104210009D1DAE1DBF1DB7FF03C00197A109B0488A
:1042200088839983AA83BB839F77DF91CF91FF9087
:10423000EF90DF90CF90BF90AF909F908F900895B8
:104240000E94D720089583E491E00E94D72008952A
:10425000A0E0B0E08093430190934401A093450116
:10426000B09346010895283008F027E03327DA019B
:10427000990F311D87FD916000966105710539F434
:1042800032602E5F3D9330E32A95E1F708959F3F1A
:1042900030F080387105610509F03C5F3C5F3D936B
:1042A000913008F08068911DDF93CF931F930F9397
:1042B000FF92EF92192F987F9695E92F96959695F4
:1042C000E90FFF27E256FE4F99273327EE24FF24FC
:1042D000A701E70105900894079428F4360FE71E1C
:1042E000F81E491F511D660F771F881F991F0694DE
:1042F000A1F70590079428F4E70EF81E491F561FF2
:10430000C11D770F881F991F661F0694A1F705909E
:10431000079428F4F80E491F561FC71FD11D880F98
:10432000991F661F771F0694A1F70590079420F444
:10433000490F561FC71FD81F990F661F771F881F69
:104340000694A9F784911095177041F0D695C795FA
:1043500057954795F794E7941A95C1F7E4E4F1E08F
:1043600068941590159135916591959105907FE22E
:104370007395E118F10A430B560BC90BD009C0F72E
:10438000E10CF11E431F561FC91FD01D7EF4703370
:1043900011F48A95E6CFE894015030F0080F0AF442
:1043A0000027021708F4202F2395022F7A3328F0D4
:1043B00079E37D932A95E9F710C07D932A9589F6D4
:1043C000069497956795379517951794E118F10A14
:1043D000430B560BC90BD00998F023957E9173952A
:1043E0007A3308F070E37C932013B8F77E91706104
:1043F0007D9330F0839571E37D9370E32A95E1F727
:104400001124EF90FF900F911F91CF91DF91992789
:1044100087FD90950895FC01059061507040011052
:10442000D8F7809590958E0F9F1F0895FC016150DD
:10443000704001900110D8F7809590958E0F9F1FC6
:1044400008950F931F93CF93DF93FB01238121FDE9
:1044500003C08FEF9FEF2CC022FF16C0468157810B
:10446000248135814217530744F4A081B1819D0115
:104470002F5F3F4F318320838C93268137812F5FBD
:104480003F4F3783268314C08B01EC01FB0100846E
:10449000F185E02D0995892BE1F6D80116968D91CD
:1044A0009C911797019617969C938E931697CE0121
:1044B000DF91CF911F910F910895AEE0B0E0E3E658
:1044C000F2E20C949A200D891E898F89988D26E03E
:1044D0002C831A83098397FF02C080E090E801973C
:1044E0009E838D83AE01455E5F4F698D7A8DCE01CF
:1044F00001960E94381B4D815E8157FD0AC02F81B5
:104500003885421753070CF49A01F801E20FF31FA4
:1045100010822E96E4E00C94B620AEE0B0E0E3E921
:10452000F2E20C949A208C01FA0186E08C831A83C3
:10453000098377FF02C060E070E8CB0101979E839A
:104540008D83A901BF01CE0101960E94381B4D81C8
:104550005E8157FD0AC02F813885421753070CF43E
:104560009A01F801E20FF31F10822E96E4E00C94FA
:10457000B620FA01AA27283051F1203181F1E894C0
:104580006F936E7F6E5F7F4F8F4F9F4FAF4FB1E046
:104590003ED0B4E03CD0670F781F891F9A1FA11D41
:1045A000680F791F8A1F911DA11D6A0F711D811D42
:1045B000911DA11D20D009F468943F912AE0269F07
:1045C00011243019305D3193DEF6CF010895462F66
:1045D0004770405D4193B3E00FD0C9F7F6CF462F47
:1045E0004F70405D4A3318F0495D31FD40524193B0
:1045F00002D0A9F7EACFB4E0A6959795879577956D
:104600006795BA95C9F700976105710508959B01F3
:10461000AC010A2E06945795479537952795BA957C
:10462000C9F7620F731F841F951FA01D0895052EE3
:1046300097FB1EF400940E942E2357FD07D00E9482
:10464000642007FC03D04EF40C942E235095409523
:10465000309521953F4F4F4F5F4F0895909580952E
:10466000709561957F4F8F4F9F4F08950E9449230A
:10467000A59F900DB49F900DA49F800D911D1124B6
:104680000895B7FF0C9436230E943623821B930BA8
:104690000895A29FB001B39FC001A39F700D811D1B
:1046A0001124911DB29F700D811D1124911D08953B
:0446B000F894FFCFAC
:1046B40000000000000000000000000000000000F6
:1046C40034010000000000000000000000000000B1
:1046D40000003801C00107004E29E502C02902008C
:1046E4009810F203001107008028020000E1000086
:1046F400000008010000002564002020004C6972BD
:10470400616E006E313034343637313100544A0032
:1047140047616D65206F7665722100507265737311
:104724002053573300546F20726573746172742E72
:1047340000506C6561736520656E746572206E65EA
:104744007874006C6576656C207669612073657297
:1047540069616C004C5625647C4C25647C5325307F
:0E47640032647C253032643A00253032640025
:00000001FF
