:100000000C949A020C94B7020C94B7020C94B702A9
:100010000C94B7020C94B7020C94B7020C94B7027C
:100020000C94B7020C94B7020C9410200C944A2044
:100030000C94B7020C94B7020C94B7020C94B7025C
:100040000C94B7020C94B7020C94B7020C94B7024C
:100050000C94CB0B0C94B7020C94B7020C949C0B31
:100060000C94B7020C941C220C94F1210C94B7024E
:100070000C94B7020C94B7020C94B7020C94B7021C
:100080000C94B7020C94B7020C94B7020C94B7020C
:100090000C94B7020C94B7020C94B7020C94B702FC
:1000A0000C94B7020C94B7020C94B702170B260BF2
:1000B000350B440B540B630B710BB11FAD1FA91F04
:1000C000A51FA11F9D1F991F951F911F8D1F891F80
:1000D000851F811F7D1F791F751F711F6D1F691F70
:1000E000651F611F5D1F591F551F511F4D1F491F60
:1000F000451F411F3D1F391F351F311F2D1F291F50
:10010000251F211F1D1F191F151F111F0D1F091F3F
:10011000051F011FFD1EF91EF51EF11EED1EE91E35
:10012000E51EE11EDD1ED91ED51ED11ECD1EC91E27
:10013000C51EC11EBD1EB91EB51EB11E084AD73B45
:100140003BCE016E84BCBFFDC12F3D6C74319ABDA6
:1001500056833DDA3D00C77F11BED9E4BB4C3E91CA
:100160006BAAAABE000000803F05A84CCDB2D44EB9
:10017000B93836A9020C50B9918688083CA6AAAABB
:100180002ABE000000803F006E616E00696E66004E
:1001900000407A10F35A00A0724E18090010A5D43E
:1001A000E80000E87648170000E40B54020000CA9B
:1001B0009A3B000000E1F5050000809698000000E1
:1001C00040420F000000A086010000001027000040
:1001D0000000E803000000006400000000000A00C6
:1001E000000000000100000000002C76D888DC67C9
:1001F0004F0823DFC1DFAE59E1B1B796E5E3E45321
:10020000C63AE651997696E8E6C28426EB898C9B3D
:1002100062ED407C6FFCEFBC9C9F40F2BAA56FA5DD
:10022000F490055A2AF75C936B6CF9676DC11BFC5F
:10023000E0E40D47FEF520E6B500D0ED902E03007A
:10024000943577050080841E080000204E0A0000C7
:1002500000C80C333333330F986E12831141EF8D86
:100260002114893BE65516CFFEE6DB18D1844B38C6
:100270001BF77C1D901DA4BBE424203284725E22F7
:100280008100C9F124ECA1E53D27000100003703FE
:100290001200020000F4024300030000F002040117
:1002A000030904DA021402030904C2021603030953
:1002B00004B4020C0C03310032003300340035006A
:1002C0000000160355005300420020005300650053
:1002D0007200690061006C000000140359006F0097
:1002E0007500720020004E0061006D006500000086
:1002F0000403090409024300020100C0320904009A
:100300000001020201000524001001052401010181
:10031000042402060524060001070582031000409C
:1003200009040100020A0000000705030240000062
:10033000070584024000001201000202000010C004
:10034000167A040001010203010001C11201803686
:10035000018136000000000000005F00000007007F
:100360000700147F147F14242A7F2A1223130864A1
:100370006236495522500005030000001C2241004E
:100380000041221C0014083E081408083E0808001A
:1003900050300000080808080800606000002010C5
:1003A0000804023E5149453E00427F4000426151EF
:1003B00049462141454B311814127F1027454545C8
:1003C000393C4A49493001710905033649494936E2
:1003D000064949291E00363600000056360000083E
:1003E00014224100141414141400412214080201B0
:1003F000510906324979413E7E1111117E7F4949EA
:1004000049363E414141227F4141221C7F494949B1
:10041000417F090909013E4149497A7F0808087F5F
:1004200000417F41002040413F017F081422417F6D
:10043000404040407F020C027F7F0408107F3E4115
:1004400041413E7F090909063E4151215E7F09195C
:100450002946464949493101017F01013F40404059
:100460003F1F2040201F3F4038403F631408146363
:1004700007087008076151494543007F4141000268
:10048000040810200041417F0004020102044040A2
:10049000404040000102040020545454787F4844F6
:1004A00044383844444420384444487F38545454F1
:1004B00018087E0901020C5252523E7F080404784B
:1004C00000447D40002040443D007F10284400004F
:1004D000417F40007C041804787C08040478384488
:1004E0004444387C14141408081414187C7C080440
:1004F00004084854545420043F4440203C404020C9
:100500007C1C2040201C3C4030403C4428102844A7
:100510000C5050503C4464544C4400083641000098
:10052000007F0000004136080010080810087846D7
:100530004146780011241FBECFEFDAE0DEBFCDBF09
:1005400011E0A0E0B1E0EEE3FDE502C005900D9200
:10055000AE3BB107D9F724E0AEEBB1E001C01D928C
:10056000A234B207E1F70E94871D0C949D2E0C94D3
:100570000000FC0180819181860F971FBA010E94C3
:10058000952B918380830895BF92CF92DF92EF9253
:10059000FF920F931F93CF93DF93CDB7DEB7C45570
:1005A000D1090FB6F894DEBF0FBECDBF082FE62EDF
:1005B000B22E5F934F9387E491E09F938F931F92A6
:1005C00084E58F93CE0101966C019F938F930E94D7
:1005D000A22D0E2C000CFF08002E000C110B21E0A8
:1005E0004AE451E0B701C8010E943B242B2DA6012B
:1005F000B701C8010E943B240FB6F894DEBF0FBEBE
:10060000CDBFCC5ADF4F0FB6F894DEBF0FBECDBFC3
:10061000DF91CF911F910F91FF90EF90DF90CF90DE
:10062000BF900895CF93DF93CDB7DEB7E2970FB6B3
:10063000F894DEBF0FBECDBF9E01235C3F4F4BAD94
:100640005CAD62E370E0CE0101960E94D22D21E004
:10065000AE014F5F5F4F69AD7AAD8FA998AD0E9433
:100660003B24E2960FB6F894DEBF0FBECDBFDF91FC
:10067000CF9108958F929F92AF92BF92CF92DF92C7
:10068000EF92FF92CF93DF93EC01688179818A81A9
:100690009B810E94282B6B017C016C817D818E8166
:1006A0009F810E94282B4B015C01C701B6010E946B
:1006B00060296B01C501B4010E9460297B01C7015B
:1006C000B601DF91CF91FF90EF90DF90CF90BF9078
:1006D000AF909F908F900895EF92FF920F931F938A
:1006E000CF93DF93EC0100E010E07C0180E6E80EA0
:1006F000F11CF701808190E00817190774F46A81F2
:100700007B816A3071052CF041E0888199810E94DB
:100710005E220F5F1F4F2496ECCFDF91CF911F9188
:100720000F91FF90EF900895FC01428153814A3070
:100730005105A4F070E020E330E0261B370B421790
:10074000530764F44081518157FD08C024E530E02F
:10075000261B370B81E0421753070CF080E0089509
:100760007F928F929F92AF92BF92CF92DF92EF9241
:10077000FF920F931F93CF93DF934C015B01742E75
:10078000FC01C280D380B6010D2C000C880B990BA4
:100790000E9498290E94282B0E946029CB010A9769
:1007A000C6E2D0E0BE010E94952B8C01065F1F4F70
:1007B000F501E280F380B7010F2C000C880B990B38
:1007C0000E9498290E94282B0E946029CB010A9739
:1007D000BE010E94952BEC012A96F4016081718183
:1007E000072E000C880B990B0E9498290E94282B39
:1007F0000E9460294B01F5016081718168157905BE
:1008000024F0AA24A394B12C03C0AA24AA94BA2C3D
:10081000072E000C880B990B0E9498290E94282B08
:100820000E946029E4E5F0E0CB01BF010E94952B16
:100830009C01C401BF010E94952B281B390B2A9DE6
:10084000C0012B9D900D3A9D900D1124EC14FD04D8
:100850001CF041E050E002C04FEF5FEFC01BD10B36
:10086000C49F9001C59F300DD49F300D1124F8E72F
:100870007F1639F049E7741619F0820F931F01C0F3
:10088000C901DF91CF911F910F91FF90EF90DF9001
:10089000CF90BF90AF909F908F907F9008952F92B0
:1008A0003F924F925F926F927F928F929F92AF9200
:1008B000BF92CF92DF92EF92FF920F931F93CF934D
:1008C000DF93CDB7DEB7C557D1090FB6F894DEBFB9
:1008D0000FBECDBFE2969FAF8EAFE2978B01FB01BB
:1008E00060817181828193810E94282B0E946029FE
:1008F0002B013C011B01F801648175818681978180
:100900000E94282B0E9460296B017C01A4967FAF76
:100910006EAFA497F80160857185828593850E94EA
:10092000282B0E9460294B015C01A8967FAF6EAF17
:10093000A897F80164857585868597850E94282B80
:100940000E946029AA967FAF6EAFAA97FE013196EA
:100950009E012F593F4FDF01A217B30749F01196AF
:100960001C921E9213961C921E9212971496F4CF0C
:10097000A8962EAD3FADA8972216330609F048C0C1
:10098000C10164E570E00E94952B9C0101E010E03C
:1009900056E2E52EF12CA80141505109A6965FAF11
:1009A0004EAFA697A4968EAD9FADA497AA964EADD6
:1009B0005FADAA9784179507ACF44C155D050CF450
:1009C000CEC131832083C6010A97B7010E94952BBF
:1009D0000A96938382834FEFC41AD40A0F5F1F4F86
:1009E0003496D9CFAA968EAD9FADAA97C816D906D0
:1009F0000CF4B5C131832083C6010A97B7010E9468
:100A0000952B0A969383828351E0C51AD108E6CFCD
:100A1000A4962EAD3FADA497AA964EAD5FADAA9712
:100A20002417350709F042C0C6010A9766E270E054
:100A30000E94952B9C01265F3F4F01E010E044E5AA
:100A4000E42EF12CC8010197A6969FAF8EAFA69712
:100A5000A8964EAD5FADA897241635069CF44415B4
:100A600055050CF47CC1C201B7010E94952B9183FE
:100A70008083338322838FEF481A580A0F5F1F4FFA
:100A80003496E0CFA8968EAD9FADA897481659062C
:100A90000CF465C1C201B7010E94952B918380833C
:100AA0003383228391E0491A5108E8CFA896EEAD2E
:100AB000FFADA897E215F3056CF4A4967FAF6EAF77
:100AC000A497AA96DFAECEAEAA971401A8965FAE01
:100AD0004EAEA897A8966EAD7FADA8976219730920
:100AE000072E000C880B990B0E949829E0966CAF9A
:100AF0007DAF8EAF9FAFE097AA966EAD7FADAA9700
:100B0000A4962EAD3FADA497621B730B072E000C6D
:100B1000880B990B0E9498294B015C01E0962CAD43
:100B20003DAD4EAD5FADE0970E94EE282B013C013C
:100B300020E030E0A9010E94AE2A87FF04C077FAC6
:100B4000709477F87094C12CD12C7601A6961FAEC4
:100B50001EAEA69720E030E0A901E0966CAD7DAD19
:100B60008EAD9FADE0970E94AE2A18160CF0EFC034
:100B7000A8968EAD9FADA897821593050CF4EFC093
:100B8000C10164E570E00E94952BE4969FAF8EAFA3
:100B9000E497A6968EAD9FADA697880F991F880FF4
:100BA000991F01E010E00C0F1D1F080F191FE4969C
:100BB0002EAD3FADE497F80131832083A4968EAD2E
:100BC0009FADA4970A9766E270E00E94952B0A9663
:100BD00093838283A6964EAD5FADA6974F5F5F4F1E
:100BE000A6965FAF4EAFA697A3019201C701B601CB
:100BF0000E9449286B017C01AC961FAF0EAFAC97E9
:100C000020E030E040E05FE3C701B6010E94AE2A79
:100C100087FF12C020E030E0A901E0966CAD7DAD09
:100C20008EAD9FADE0970E94AE2A18160CF08BC0D7
:100C30003FEF231A330A8ECF20E030E0A901C5012F
:100C4000B4010E94AE2A18160CF070C0AA964EADE0
:100C50005FADAA97A4968EAD9FADA497481759078C
:100C6000CCF2E4962EAD3FADE497AC96EEADFFAD81
:100C7000AC9735832483A4968EAD9FADA4970A9735
:100C800066E270E00E94952B0A9697838683A6966B
:100C90004EAD5FADA6974F5F5F4FA6965FAF4EAF6D
:100CA000A69781E090E0E6969FAF8EAFE69720E0B2
:100CB00030E0A901C501B4010E94AE2A181624F043
:100CC000E6961FAE1EAEE69701E010E020E030E0B1
:100CD000A901C501B4010E94E42887FD02C000E01B
:100CE00010E0E6968EAD9FADE697801B910BA49623
:100CF000EEADFFADA497E80FF91FA496FFAFEEAFDE
:100D0000A49720E030E040E85FE3C701B6010E940D
:100D100048286B017C01AC962EAD3FADAC972C5FA3
:100D20003F4FAC963FAF2EAFAC976ACFAA96EEADD1
:100D3000FFADAA97A4962EAD3FADA4972E173F07FF
:100D40000CF08FCF67CF41E0241A310803CFA8966B
:100D5000EEADFFADA8972E163F060CF011CFA5966D
:100D6000FFADA597A296FFAFA29781E6FE0131964F
:100D7000E296AEADBFADE29701900D928A95E1F794
:100D8000E2968EAD9FADE297CB58DF4F0FB6F89449
:100D9000DEBF0FBECDBFDF91CF911F910F91FF90AE
:100DA000EF90DF90CF90BF90AF909F908F907F900B
:100DB0006F905F904F903F902F900895BF92CF9289
:100DC000DF92EF92FF920F931F93CF93DF93CDB7F4
:100DD000DEB7CD56D1090FB6F894DEBF0FBECDBF3A
:100DE0006C01AE964CAF5DAF6EAF7FAFAE978C012E
:100DF000E12CF12C82E1B82EBE9CF001BF9CF00DDD
:100E00001124EC0DFD1D808980FF52C0C8010E9495
:100E10003A03AA966CAF7DAF8EAF9FAFAA97C80179
:100E200008960E943A03A6966CAF7DAF8EAF9FAF37
:100E3000A69741E6BE016A597F4FCE0186599F4F62
:100E40000E94B0030C9758F041E6BE016E597F4FE7
:100E5000CE0186599F4F0E94B0030C9748F5B80108
:100E6000CE0101960E944F04A2968FADA29790E00A
:100E7000AC964EAD5FADAC97AE966EAD7FADAE9716
:100E8000FE01319620E030E0281739078CF4A0816C
:100E9000B181A417B50741F4A281B381A617B707A2
:100EA00019F481E090E010C02F5F3F4F3496ECCFF3
:100EB0008FEFE81AF80A0E5E1F4F86E0E816F1047D
:100EC00009F09ACF80E090E0C359DF4F0FB6F89455
:100ED000DEBF0FBECDBFDF91CF911F910F91FF906D
:100EE000EF90DF90CF90BF9008952F923F924F9256
:100EF0005F926F927F928F929F92AF92BF92CF92AA
:100F0000DF92EF92FF920F931F93CF93DF93CDB7B2
:100F1000DEB72E970FB6F894DEBF0FBECDBFF90136
:100F200021E0E033F20709F495C0408051806280EF
:100F3000238120FB772470F821FF8FC025E030E06B
:100F4000FC87EB871B019E878D8781E090E0BC01C9
:100F5000621B730B7A8369836A01C61AD70ACA01B6
:100F6000019798878F83A12CB12C812C912CF101B2
:100F70003197FA87E987710189819A81E81AF90A1C
:100F800040FE3AC06D857E85672B71F40115110511
:100F900011F440E004C00130110571F541E0B601E3
:100FA000C7010E945E2228C00115110591F4FC8240
:100FB000EB82DE82CD824B815C816D817E818D856D
:100FC0009E850E94DE06892BB9F088248394912C9B
:100FD00013C00130110581F4F501EE0FFF1FEE0F74
:100FE000FF1F8D859E85E80FF91FF182E082D38275
:100FF000C2829FEFA91AB90A7694679457944794CE
:10100000E1E0EE1AF10869857A856E157F0509F031
:10101000B7CFEB85FC85838181FD07C032E07694F4
:101020006794579447943A95D1F7F1E0CF1AD108D5
:101030006F8178856C157D0509F09DCFED85FE8566
:101040003097A9F00130110591F4EC59FF4FB182AE
:10105000A0820DC0812C912C0AC026E07694679462
:10106000579447942A95D1F723E030E069CFC40123
:101070002E960FB6F894DEBF0FBECDBFDF91CF9195
:101080001F910F91FF90EF90DF90CF90BF90AF90A6
:101090009F908F907F906F905F904F903F902F9098
:1010A00008954F925F926F927F928F929F92AF922C
:1010B000BF92CF92DF92EF92FF920F931F93CF9345
:1010C000DF93EC016B017A01FB01838181FD02C09A
:1010D00063E001C065E0A701CE010E949403282FC0
:1010E000882369F16A817B81072E000C880B990B9C
:1010F0000E9498290E94282B4B015C01688179810C
:10110000072E000C880B990B0E9498290E94282B0F
:101110002B013C01C501B4010E9460294B015C0117
:10112000C301B2010E94602900E010E09601A40111
:10113000C7010E94750721E0892B09F020E0822F6A
:10114000DF91CF911F910F91FF90EF90DF90CF90A3
:10115000BF90AF909F908F907F906F905F904F90D7
:101160000895CF92DF92EF92FF920F931F93CF9348
:10117000DF93FC01EC59FF4F00811181FC0120E05D
:1011800030E0EB01CC59DF4F2017310711F14881D6
:101190005981DB0180E090E084179507A1F0C080C1
:1011A000D180ED90FC901197CE14DF0449F4C280F9
:1011B000D3801296ED90FC901397CE14DF0439F093
:1011C00001961496E9CF2F5F3F4F3496DDCF81E033
:1011D00001C080E0DF91CF911F910F91FF90EF90C0
:1011E000DF90CF9008950F931F93CF93DF93CDB7E8
:1011F000DEB7C656D1090FB6F894DEBF0FBECDBF1D
:10120000FE01319626E6DF011D922A95E9F7DC0101
:101210000D911D912D913C9109831A832B833C8361
:1012200081E090E0A7969FAF8EAFA797CF010E9475
:10123000B108CA59DF4F0FB6F894DEBF0FBECDBF5D
:10124000DF91CF911F910F910895EF92FF920F932D
:101250001F93CF93DF93CDB7DEB7CC5CD1090FB628
:10126000F894DEBF0FBECDBF8C017B016F5F7F4F57
:1012700041E601960E94B0030B9770F5F80190814A
:10128000892F817090FF29C0F7019081892F81708B
:1012900090FF23C0F801258136814381548161810B
:1012A000728101E010E0CE0189599F4F0E947507BD
:1012B000F701258136814381548161817281CE019C
:1012C00001960E947507BE016F5F7F4FCE0189595D
:1012D0009F4F0E94B10801C080E0C453DF4F0FB69A
:1012E000F894DEBF0FBECDBFDF91CF911F910F915C
:1012F000FF90EF9008958F929F92AF92BF92CF92FE
:10130000DF92EF92FF920F931F93CF93DF93CDB7AE
:10131000DEB7C45DD1090FB6F894DEBF0FBECDBFF6
:101320008C017B010E943A03CF52DF4F688379839F
:101330008A839B83C15DD040C7010E943A03C35397
:10134000DF4F688379838A839B83CD5CD04041E6FD
:10135000BE0163537F4FCE018F529F4F0E94B00357
:101360000B97E0F5F801C084D18464817581868192
:1013700097810E9460294B015C01F80160817181B5
:10138000828193810E94602901E010E09601A4010E
:10139000CE0189599F4F0E947507F701C084D184FF
:1013A00064817581868197810E9460294B015C016F
:1013B000F70160817181828193810E946029960189
:1013C000A401CE0101960E947507BE016F5F7F4F99
:1013D000CE0189599F4F0E94B10801C080E0CC52D4
:1013E000DF4F0FB6F894DEBF0FBECDBFDF91CF91B8
:1013F0001F910F91FF90EF90DF90CF90BF90AF9033
:101400009F908F9008958F929F92AF92BF92CF92AC
:10141000DF92EF92FF920F931F93CF93DF93CDB79D
:10142000DEB7C05DD1090FB6F894DEBF0FBECDBFE9
:10143000FB01208120FD02C080E045C07B018C01C2
:101440000E943A03C353DF4F688379838A839B8367
:10145000CD5CD040B7016F5F7F4F41E6CE01835333
:101460009F4F0E94B0030B9738F7F801C084D184D6
:1014700064817581868197810E9460294B015C019E
:10148000F80160817181828193810E94602901E06D
:1014900010E09601A401CE0189599F4F0E94750763
:1014A000F701258136814381548161817281CE01AA
:1014B00001960E947507BE016F5F7F4FCE0189596B
:1014C0009F4F0E94B108C053DF4F0FB6F894DEBFA4
:1014D0000FBECDBFDF91CF911F910F91FF90EF9085
:1014E000DF90CF90BF90AF909F908F900895CF9254
:1014F000DF92EF92FF920F931F93CF93DF937C01C4
:10150000EB018B0104591F4F6B018FE8C80ED11CF2
:1015100081E090E00C151D05D1F0892B19F480E0D5
:1015200090E012C0B8016D5D7F4FC7010E94250990
:101530008111F5CFB801C7010E94250931E020E0F3
:10154000811130E0832F922F095F1F4FE3CF009767
:1015500051F0BE01635E7E4FC7010E94250931E054
:10156000811130E0832FDF91CF911F910F91FF9078
:10157000EF90DF90CF900895209821982798509869
:10158000519886988598229A239A0895E1E6F0E08A
:1015900080E8808381E080838FE30E9482240E9420
:1015A000B22485B5877F85BD85B5846085BD85B549
:1015B0008D7F85BD85B58E7F85BDEEE6F0E08081AF
:1015C00081608083E1E8F0E08081877F8083808193
:1015D0008F7E808380818B7F808380818D7F8083DD
:1015E000808181608083EFE6F0E08081816080838C
:1015F0007894479A0C94BC0AFC01DC01AD5BBD4FAA
:101600009C91990F292F2E739C91907C922B9C93E7
:101610008C91982F9F718C91807C892B8C93E730D3
:10162000F10508F06BC0EA5AFF4F0C94CB2B809168
:1016300043029FB195FB992790F98E73982B809167
:101640004302807C892B8093430258C080914402DE
:101650009FB196FB992790F98E73982B8091440245
:10166000807C892B8093440249C02091450299B126
:1016700096959170822F8E73982B80914502807C75
:10168000892B809345023AC09091460223B19E7304
:10169000822F881F8827881F982B80914602807C84
:1016A000892B809346022AC02091470293B19695D8
:1016B0009170822F8E73982B80914702807C892BAA
:1016C000809347021BC09091480229B19E73822FDC
:1016D0008170982B80914802807C892B80934802EE
:1016E0000DC09091490223B19E73822F8170982B77
:1016F00080914902807C892B809349028C918F7361
:101700008F3119F48C9180648C938C918F7319F4C0
:101710008C918F7B8C93089580E090E0FC01ED5BD1
:10172000FD4F208126FD03C020812F772083019665
:101730008730910599F708951F920F920FB60F9277
:1017400011242F933F934F935F936F937F938F93C6
:101750009F93AF93BF93CF93DF93EF93FF93C0E03B
:10176000D0E0CE010E94FC0A2196C730D105C9F70E
:10177000FF91EF91DF91CF91BF91AF919F918F91A9
:101780007F916F915F914F913F912F910F900FBE7D
:101790000F901F9018951F920F920FB60F92112461
:1017A0002F938F939F938091BF01982F991F992713
:1017B000991F8091C0018F73880F892B8F5F8F775E
:1017C0009091BF0180FB97F99093BF01869590910E
:1017D000C001907C892B8093C0018091C0018068FA
:1017E0008093C0018091BF01982F991F9927991F5D
:1017F0008091C0018F73880F892B8A3731F58091D2
:10180000BE012091BF01922F9F7701969F77809311
:10181000BE019F778091BF018078892B8093BF01A3
:101820008FE794E00197F1F700C000008091BF01BD
:101830008F778093BF018091C001807C8093C0012D
:101840008091C00180648093C0019F918F912F91FE
:101850000F900FBE0F901F901895CF93DF930E94AB
:10186000682CC0E1D1E068E671E00E94952B9F876B
:101870008E870E94682C64E070E00E94952BBC016A
:101880006C5F7F4F072E000C880B990B0E949829E4
:1018900020E030E040E251E40E94EE286A877B8736
:1018A0008C879D87DF91CF9108954F925F926F92C1
:1018B0007F92AF92BF92CF92DF92EF92FF920F93FF
:1018C0001F93CF93DF93CDB7DEB72C970FB6F89465
:1018D000DEBF0FBECDBF2D833E834F835887698700
:1018E0007A878B879C875801CE0105960E943A0320
:1018F00069837A838B839C83D80118966D917C9140
:101900001997A701CE0101960E945108811118C0B4
:10191000F6019281969596959695A9F1D80118961B
:10192000ED91FC911997838181FD02C063E001C0B4
:1019300065E0A701CE0101960E949403882319F166
:10194000F501E084F18464817581868197810E942C
:1019500060292B013C01D5016D917D918D919C9168
:101960000E94602900E010E09701A20180E090E071
:101970000E94750788E0FE013596D50101900D9211
:101980008A95E1F781E02C960FB6F894DEBF0FBE82
:10199000CDBFDF91CF911F910F91FF90EF90DF901E
:1019A000CF90BF90AF907F906F905F904F900895D1
:1019B0004F925F926F927F928F929F92AF92BF925F
:1019C000CF92DF92EF92FF920F931F93CF93DF930B
:1019D000CDB7DEB760970FB6F894DEBF0FBECDBFB0
:1019E00029873A874B875C876D877E878F87988B9F
:1019F000B801110F880B990B0E94982925E33AEF43
:101A00004EE85CE30E94BB2A4B015C010E94E9287E
:101A10002B013C01C501B4010E944C2BA70196018A
:101A20000E94BB2A2D853E854F8558890E944928F2
:101A3000162FA72EB82E092FA7019601C301B201B8
:101A40000E94BB2A9B01AC0169857A858B859C85A8
:101A50000E9449289B01AB01BC0149835A836B83D7
:101A60007C83812F9A2DAB2DB02F8D839E83AF83E6
:101A7000B8873A814B815C81612F7E818F81988507
:101A800060960FB6F894DEBF0FBECDBFDF91CF9149
:101A90001F910F91FF90EF90DF90CF90BF90AF908C
:101AA0009F908F907F906F905F904F900895CF920E
:101AB000DF92EF92FF920F931F93CF93DF937C01FE
:101AC0008B01EA016901A90161E0CE0101960E9442
:101AD0009403811102C080E01DC049815A816B814D
:101AE0007C81C6010E94DE06892BA9F76B817C816F
:101AF00040E089819A810E945E2289819A81E80E64
:101B0000F91EFA82E9828B819C81080F191F1C83C0
:101B10000B8381E0DF91CF911F910F91FF90EF90A8
:101B2000DF90CF9008958837D1F4DB011196ED91C5
:101B3000FC911297DA018D919C91E817F90734F422
:101B4000AB0160E070E081E090E024C08E179F0759
:101B50001CF5AB0160E070E08FEF9FEF1BC0893791
:101B6000D9F4DB011396ED91FC911497DA011296EA
:101B70008D919C911397E817F90724F4AB0161E06C
:101B800070E006C08E179F073CF4AB016FEF7FEF4C
:101B900080E090E00C94570D80E008953F924F92C2
:101BA0005F926F927F928F929F92AF92BF92CF92ED
:101BB000DF92EF92FF920F931F93CF93DF9300D0AA
:101BC00000D0CDB7DEB77C0160911001709111019A
:101BD00080911201909113010E94282B0E9460298C
:101BE0006F5F7F4F7A836983609114017091150153
:101BF00080911601909117010E94282B0E94602964
:101C00006F5F7F4F7C836B8387010D541F4FC12C07
:101C1000D12C85E0382E3C9CF0013D9CF00D112428
:101C2000EE0DFF1DEE54FF4F808180FF35C00E94F6
:101C3000682C980121503109590180FF08C049E7FB
:101C4000B801CE0101960E94B003892B79F448E7D0
:101C5000B801CE0101960E94B003892B39F097019B
:101C6000AE014F5F5F4FB50188E706C09701AE0137
:101C70004F5F5F4FB50189E70E94930D3C9CF001D7
:101C80003D9CF00D1124EE0DFF1DEE54FF4F908191
:101C900080FB90F990832AC0F80162817381072E3E
:101CA000000C880B990B0E9498290E94282B2B016D
:101CB0003C01F80160817181072E000C880B990BA3
:101CC0000E9498290E94282B4B015C01C301B2019C
:101CD0000E9460292B013C01C501B4010E946029CA
:101CE000DC01CB0140E0B2010E945E22FFEFCF1A7F
:101CF000DF0A0B5F1F4F24E1C216D10409F08BCF1E
:101D00000F900F900F900F90DF91CF911F910F9137
:101D1000FF90EF90DF90CF90BF90AF909F908F900B
:101D20007F906F905F904F903F900895BF92CF92B9
:101D3000DF92EF92FF920F931F93CF93DF93CDB774
:101D4000DEB728970FB6F894DEBF0FBECDBF8B016C
:101D500021E080309207C9F4FB01EA5DFE4FF0807C
:101D60006F2D6F7770E080E090E00E949629E62E5C
:101D7000B72E6C01FF1CFF24FF1CF801E95DFE4F2C
:101D800060816F71660F6F291EC08051914009F507
:101D9000FB01EC5DFE4F6081862F869586958695CA
:101DA00031961081612F63706295660F607E682B9B
:101DB00070E080E090E00E949629E62EB72E6C013C
:101DC000612F6695669570E080E090E00E9496290C
:101DD00008C060E070E080E090E0E12CB12CC12C04
:101DE000D12C0E2D1B2D960109831A832B833C8346
:101DF0008B019C010D831E832F8338872E2D3A8102
:101E00004B815C817E818F81988528960FB6F894EE
:101E1000DEBF0FBECDBFDF91CF911F910F91FF901D
:101E2000EF90DF90CF90BF9008952F923F924F9206
:101E30005F926F927F928F929F92AF92BF92CF925A
:101E4000DF92EF92FF920F931F93CF93DF93CDB763
:101E5000DEB766970FB6F894DEBF0FBECDBF7C012C
:101E60006B015E8B4D8B0E94960E29833A834B83C8
:101E70005C836D837E838F83988789809A80AB8013
:101E8000BC804D805E806F807884F701208431842F
:101E9000C301B2010E9460296D877E878F87988B6E
:101EA000C501B4010E94602900E010E091014D8558
:101EB0005E85C6010E947507892B09F058C020E095
:101EC00030E0A901C501B4010E9449280E9460299F
:101ED0007A87698720E030E0A901C301B2010E943E
:101EE00049280E9460297C876B87F701608571858E
:101EF000A601CE0109960E9451088823C1F1F7017D
:101F00002084318464817581868197810E94602953
:101F10006D877E878F87988BF701608171818281C1
:101F200093810E94602991014D855E8580E090E05B
:101F30000E94750769857A85072E000C880B990B1E
:101F40000E949829F70160837183828393836B8554
:101F50007C85072E000C880B990B0E949829F701AD
:101F6000648375838683978301E010E002C000E0FC
:101F700010E0212C312C0115110509F0F3C1B1013C
:101F8000032C000C880B990B0E949829A301920145
:101F90000E9449286D877E878F87988B20E030E0EC
:101FA00040E251E40E94AE2A18160CF05FC020E017
:101FB00030E0A901C501B4010E9449280E946029AE
:101FC0007A8769876D857E858F8598890E946029CB
:101FD0007C876B87F70160857185A601CE01099624
:101FE0000E9451088823F1F1F7010084F185E02D6A
:101FF000FE87ED87F70164817581868197810E9454
:102000006029698B7A8B8B8B9C8BF7016081718146
:10201000828193810E94602900E010E02D853E8539
:1020200049895A8980E090E00E94750769857A8520
:10203000072E000C880B990B0E949829F7016083EA
:102040007183828393836B857C85072E000C880BBC
:10205000990B0E949829F70164837583868397837F
:1020600001E010E0F1E02F1A310885CF212C312C4E
:10207000B101032C000C880B990B0E949829A30135
:1020800092010E9449286D877E878F87988B20E078
:1020900030E040E452E40E94E42887FF66C020E07C
:1020A00030E0A901C501B4010E9449280E946029BD
:1020B0007A8769876D857E858F8598890E946029DA
:1020C0007C876B87F70160857185A601CE01099633
:1020D0000E945108882309F43FC0F7010084F1856C
:1020E000E02DFE87ED87F7016481758186819781F8
:1020F0000E946029698B7A8B8B8B9C8BF7016081A6
:102100007181828193810E94602900E010E02D8519
:102110003E8549895A8980E090E00E94750769856B
:102120007A85072E000C880B990B0E949829F701DD
:1021300060837183828393836B857C85072E000C7B
:10214000880B990B0E949829F70164837583868315
:10215000978381E090E002C080E090E0FFEF2F1ACB
:102160003F0A892B09F484CFFDC0212C312CB10109
:10217000032C000C880B990B0E949829A50194014F
:102180000E9449286D877E878F87988B20E030E0FA
:1021900048EA52E40E94E42887FF66C06D857E8588
:1021A0008F8598890E9460297A87698720E030E0CE
:1021B000A901C301B2010E9449280E9460297C87BD
:1021C0006B87F70160857185A601CE0109960E9493
:1021D0005108882309F43FC0F7010084F185E02D00
:1021E000FE87ED87F70164817581868197810E9462
:1021F0006029698B7A8B8B8B9C8BF7016081718155
:10220000828193810E94602900E010E02D853E8547
:1022100049895A8980E090E00E94750769857A852E
:10222000072E000C880B990B0E949829F7016083F8
:102230007183828393836B857C85072E000C880BCA
:10224000990B0E949829F70164837583868397838D
:1022500081E090E002C080E090E0FFEF2F1A3F0A9B
:10226000892B09F484CF7EC0212C312CB101032CA1
:10227000000C880B990B0E949829A50194010E94DB
:1022800049286D877E878F87988B20E030E0A901F1
:102290000E94AE2A18160CF065C06D857E858F856C
:1022A00098890E9460297A87698720E030E0A90137
:1022B000C301B2010E9449280E9460297C876B8774
:1022C000F70160857185A601CE0109960E9451082B
:1022D000882309F43FC0F7010084F185E02DFE87D3
:1022E000ED87F70164817581868197810E9460295D
:1022F000698B7A8B8B8B9C8BF701608171818281DA
:1023000093810E94602900E010E02D853E85498977
:102310005A8980E090E00E94750769857A85072ECA
:10232000000C880B990B0E949829F7016083718338
:10233000828393836B857C85072E000C880B990B19
:102340000E949829F701648375838683978381E0CF
:1023500090E002C080E090E0F1E02F1A3108892B74
:1023600009F484CF20E1E21621E0F20621F48D8900
:102370009E890E942D0C66960FB6F894DEBF0FBEA4
:10238000CDBFDF91CF911F910F91FF90EF90DF9024
:10239000CF90BF90AF909F908F907F906F905F9005
:1023A0004F903F902F9008956F927F928F929F92BF
:1023B000AF92BF92CF92DF92EF92FF920F931F9353
:1023C000CF93DF93CDB7DEB728970FB6F894DEBF73
:1023D0000FBECDBF3C015B01FB016781708581852C
:1023E000928520911A0130911B0140911C0150915E
:1023F0001D010E94BB2A6B017C0100911E011091FE
:102400001F01209110013091110140911201509152
:102410001301609114017091150180911601909142
:1024200017010E94D80C29833A834B835C836D8308
:102430007E838F8398876501730100E111E00E941C
:10244000550C21E090E0811120E0022F192F84E04B
:10245000882E912C012B19F400E010E01CC0C5015E
:102460000E942D0C6501730100E111E029813A8180
:102470004B815C816D817E818F8198850E94550C96
:1024800021E090E0811120E0022F192F8111E4CF8B
:10249000C5010E942D0CF1E08F1A9108D9F62896FB
:1024A0000FB6F894DEBF0FBECDBFDF91CF911F9165
:1024B0000F91FF90EF90DF90CF90BF90AF909F90E3
:1024C0008F907F906F900895CF92DF92EF92FF925E
:1024D000CF93DF93EC01C880D980EA80FB8020E0B5
:1024E00030E0A901C701B6010E94E42820E030E0F5
:1024F00048EA52E487FF13C0C701B6010E94492889
:10250000688379838A839B8320E030E048EA52E441
:10251000688579858A859B850E9449281CC0C701EA
:10252000B6010E94AE2A1816D4F420E030E048EA42
:1025300052E4C701B6010E944828688379838A83E0
:102540009B8320E030E048EA52E4688579858A85FB
:102550009B850E944828688779878A879B87CC80DB
:10256000DD80EE80FF8020E030E040E251E4C701F2
:10257000B6010E94E42887FF1AC020E030E048E15D
:1025800052E4C701B6010E9449286C837D838E8383
:102590009F8320E030E048E152E46C857D858E85A4
:1025A0009F850E9449286C877D878E879F87CC8076
:1025B000DD80EE80FF8020E030E040E452E4C7019F
:1025C000B6010E94AE2A1816D4F420E030E048E1AB
:1025D00052E4C701B6010E9448286C837D838E8334
:1025E0009F8320E030E048E152E46C857D858E8554
:1025F0009F850E9448286C877D878E879F87DF9103
:10260000CF91FF90EF90DF90CF9008952F923F925F
:102610004F925F926F927F928F929F92AF92BF92F2
:10262000CF92DF92EF92FF920F931F93CF93DF939E
:10263000CDB7DEB7CE5CD1090FB6F894DEBF0FBEC2
:10264000CDBF2C01C553DF4F79836883CB5CD0406D
:102650003C01212C312C82E1829DF001839DF00D03
:102660001124E40DF51D808980FFD7C0C3010E94AD
:102670003A03AA966CAF7DAF8EAF9FAFAA97C30106
:1026800008960E943A03A6966CAF7DAF8EAF9FAFBF
:10269000A697A20161E0CE018A599F4F0E94940340
:1026A00081110CC0A20161E0CE018E599F4F0E94A2
:1026B0009403811103C0C3010E946412B301CE01CF
:1026C00001960E944F048E010F5F1F4FA12CB12C69
:1026D000A2968FADA29790E0A816B90674F4F801FF
:1026E0006281738140E0808191810E945E22FFEFD0
:1026F000AF1ABF0A0C5F1F4FEBCFC553DF4FE88106
:10270000F981CB5CD040C380D480E580F680F2E1D3
:10271000F29D5001F39DB00C1124A40CB51CC50111
:102720004096C353DF4F99838883CD5CD040F50139
:1027300080898695C353DF4FE881F981CD5CD04015
:102740009181292F279522272795022F082B91FB6E
:10275000112710F9065A1F4FF5012081318142815E
:10276000538164817581868197810E94D80CF5011F
:102770002083318342835383648375838683978365
:10278000C553DF4FE881F981CB5CD040C380D48052
:10279000E580F6804501F8E08F0E911CF5018089F7
:1027A0008695C353DF4FE881F981CD5CD04091819C
:1027B000292F279522272795022F082B91FB1127D8
:1027C00010F9065A1F4FF5012085F401318142812D
:1027D000538164817581868197810E94D80CF501AF
:1027E0002087F40131834283538364837583868316
:1027F0009783B301CE0186599F4F0E944F0481E613
:10280000FE01E659FF4FDE01119601900D928A9567
:10281000E1F7CE0101960E946C03FFEF2F1A3F0AE9
:1028200082E1680E711C96E02916310409F013CF7D
:10283000C253DF4F0FB6F894DEBF0FBECDBFDF919E
:10284000CF911F910F91FF90EF90DF90CF90BF90AD
:10285000AF909F908F907F906F905F904F903F9040
:102860002F9008950F931F93CF93DF93FB01218146
:10287000233030F140E050E065E0649F9001659FB7
:10288000300D1124280F391F89010E541F4FF801F4
:10289000708170FD10C0E901CD54DF4F80E091E000
:1028A0000E943A03688379838A839B83F80180813D
:1028B0008160808305C04F5F5F4F44315105E9F669
:1028C000DF91CF911F910F9108958F929F92AF92B8
:1028D000BF92CF92DF92EF92FF920F931F93CF930D
:1028E000DF93CDB7DEB7A0970FB6F894DEBF0FBE6B
:1028F000CDBF5C014B018091470286FF27C0FB01E1
:10290000C780D084E184F28404EB10E020910001C0
:102910003091010140910201509103016091040145
:102920007091050180910601909107010E94D80CD9
:10293000298F3A8F4B8F5C8F6D8F7E8F8F8F98A3EF
:102940006401750100E011E00E94550C809148027D
:1029500086FF27C0F401C780D084E184F28400E0C0
:1029600010E020910001309101014091020150914D
:10297000030160910401709105018091060190911D
:1029800007010E94D80C298B3A8B4B8B5C8B6D8B8B
:102990007E8B8F8B988F6401750100E011E00E949F
:1029A000550C8091450286FF27C0F401C780D08472
:1029B000E184F2840EE011E02091000130910101E8
:1029C0004091020150910301609104017091050151
:1029D00080910601909107010E94D80C29873A87BF
:1029E0004B875C876D877E878F87988B6401750125
:1029F00000E011E00E94550C8091460286FF27C03E
:102A0000F401C780D084E184F2840AE510E02091CB
:102A10000001309101014091020150910301609148
:102A200004017091050180910601909107010E94B7
:102A3000D80C29833A834B835C836D837E838F8399
:102A400098876401750100E011E00E94550C8091A7
:102A5000490286FF0DC08091490287FD09C0B4017B
:102A6000C5010E9432148091490280688093490216
:102A70008091440286FF0FC08091440287FD0BC005
:102A8000F501EC5DFE4F8381806283838091440277
:102A90008068809344028091430286FF1DC080912C
:102AA000430287FD19C08091BF01982F991F992774
:102AB000991F8091C0018F73880F892B90E0039735
:102AC0005CF090916F0081E0892780936F00809186
:102AD0004302806880934302A0960FB6F894DEBF4D
:102AE0000FBECDBFDF91CF911F910F91FF90EF905F
:102AF000DF90CF90BF90AF909F908F9008954F92AE
:102B00005F926F927F928F929F92AF92BF92CF927D
:102B1000DF92EF92FF920F931F93CF93DF93CDB786
:102B2000DEB7C656D1090FB6F894DEBF0FBECDBFD3
:102B30007C016B0160E071E080E191E00E947B0923
:102B40008823E9F0F6018281887F79F4A601B70134
:102B500080E091E00E94150FF601828197E0980FC6
:102B60009770887F892B828304C0F60181818F5FF3
:102B70008183A601B70180E191E00E94150FB701A2
:102B8000635E7E4F80E091E00E94030A882331F06B
:102B9000F701EC5DFE4F8381806283835701FAEE7B
:102BA000AF1AFEEFBF0AB50180E091E00E94030A70
:102BB0008823D9F0F6018281982F987FB1F487702D
:102BC00080658283F50180818E7F808335962081A8
:102BD000318132974081518132976081718100E06B
:102BE00010E080E090E00E9475075701FCE6AF0E10
:102BF000B11C812C912C37018CED681A8EEF780A6C
:102C000097E0592EB50180E091E00E94030A8823E5
:102C100069F1F60181818F5F8183F3012081822F29
:102C20008770482F50E0453051053CF48F5F982F56
:102C30009770822F887F892B8083589CF001599C44
:102C4000F00D1124EE0DFF1DE459FF4F80818E7FA2
:102C50008083F501258136814381548161817281B0
:102C600000E010E080E090E00E947507B5016D5D26
:102C70007F4F80E091E00E94030A882309F1F6016A
:102C80008281982F987FE1F4895F87708283589CB6
:102C9000F001599CF00D1124EE0DFF1DE157FF4F7F
:102CA00080818E7F8083F50120A531A546A157A1A3
:102CB00064A175A100E010E080E090E00E9475073B
:102CC000FFEF8F1A9F0A87E0A80EB11C95E08916C6
:102CD000910409F097CFA0900801B090090160918C
:102CE00004017091050180910601909107010E94F5
:102CF00060292B013C0160910001709101018091DC
:102D00000201909103010E94602900E010E095010A
:102D1000A201C7010E947507892B51F0F60182813B
:102D2000887F31F4A601B70180E091E00E94150F81
:102D3000A0901801B09019016091140170911501D3
:102D400080911601909117010E9460292B013C018E
:102D50006091100170911101809112019091130105
:102D60000E94602901E010E09501A201CE010196C8
:102D70000E9475073701F3EB6F0E711C812C912CAB
:102D800015E0189D5001199DB00C1124AE0CBF1C0C
:102D900082EBA80EB11CF501808180FF16C0BE0138
:102DA0006F5F7F4FC3010E94F308882371F0A60173
:102DB000B70180E191E00E94150FF50180818E7FBF
:102DC0008083F60181818F5F8183FFEF8F1A9F0AD5
:102DD00085E0680E711C94E18916910491F6A12C8E
:102DE000B12CA7968EAD9FADA797A816B906F8F49B
:102DF000F501EE0FFF1FEE0FFF1F81E090E08C0F3B
:102E00009D1FE80FF91F4081518162817381C701C5
:102E10000E94DE06892B39F0A601B70180E191E01E
:102E20000E94150F04C09FEFA91AB90ADACFCA5938
:102E3000DF4F0FB6F894DEBF0FBECDBFDF91CF914D
:102E40001F910F91FF90EF90DF90CF90BF90AF90C8
:102E50009F908F907F906F905F904F900895CF924A
:102E6000DF92EF92FF920E94562221E04DE451E062
:102E700060E070E080E090E00E943B2421E043E5C8
:102E800051E06AE070E080E090E00E943B2421E0A5
:102E90004DE551E064E170E080E090E00E943B2469
:102EA0000E94432280ECC82E8EE3D82E89EDE82EB6
:102EB00085E0F82E8091430286FD08C00E948C0BAD
:102EC0008FEFC81AD80AE80AF80AF4CF80914302B3
:102ED00087FDF4CF806880934302C601FF90EF9096
:102EE000DF90CF900C946D2C0E94562221E040E69A
:102EF00051E060E070E080E090E00E943B2421E03F
:102F00004BE651E06AE070E080E090E00E943B24F4
:102F100021E045E751E064E170E080E090E00E944C
:102F20003B240E9443228091430286FD03C00E94FD
:102F30008C0BF9CF8091430287FDF9CF8068809395
:102F400043020895CF93DF93EB010E94562221E0C4
:102F500041E851E060E070E080E090E00E943B24B6
:102F600021E043E951E06AE070E080E090E00E94F7
:102F70003B240E9443228091430286FD03C00E94AD
:102F80008C0BF9CF8091430287FDF9CF0E94AF1DD2
:102F900081369105A1F380914302806880934302BA
:102FA0008B8581608B87DF91CF910895CF93DF93DD
:102FB000CDB7DEB72E970FB6F894DEBF0FBECDBFEC
:102FC000FE01389627E0DF011D922A95E9F79E87DA
:102FD0008D8787E0DE01119601900D928A95E1F7C9
:102FE00029813A814B815C816D817E818F8190E066
:102FF0002E960FB6F894DEBF0FBECDBFDF91CF91F6
:1030000008952F923F924F925F927F928F929F925C
:10301000AF92BF92CF92DF92EF92FF920F931F93E6
:10302000CF93DF938C01EB01FB01EC5DFE4F8381BD
:103030008F7D83838081887F808388898E7F888B42
:103040008AA18E7F8AA38CA98E7F8CAB7B0126E41C
:10305000E20EF11CD7018C918E7F8C9352968C914D
:103060008E7F8C9352968C918E7F8C93D8018C910D
:103070008F77813009F08DC080E882838381807EE4
:103080008560838380818770886780838EE98183F0
:10309000C8010E942D0C80E090E0A0E9B1E4888393
:1030A0009983AA83BB8380E090E0A0E7B1E48C839E
:1030B0009D83AE83BF8380E090E0A0E5B1E4888784
:1030C0009987AA87BB8780E090E0A8ECB1E48C8761
:1030D0009D87AE87BF8728892160288B8A8B9B8B31
:1030E000AC8BBD8B40E050E06CE072E44E8B5F8BAC
:1030F000688F798F8A8F9B8FAC8FBD8F40E050E0B7
:1031000064E372E44E8F5F8F68A379A32AA12160E4
:103110002AA34CA35DA36EA37FA340E050E060E22E
:1031200071E448A759A76AA77BA7812C912C20E7B7
:10313000A22E22E4B22E8CA69DA6AEA6BFA648ABB8
:1031400059AB6AAB7BAB2CA921602CAB40E050E0C3
:1031500068E672E44EAB5FAB68AF79AF8AAF9BAF06
:10316000ACAFBDAF80E090E0A0E9B2E4FE01FE9616
:1031700080839183A283B38380E090E0A0EFB1E4E9
:10318000349680839183A283B383F7018081816029
:103190008083D8018C918F77823031F40E94931D07
:1031A000B801CE010E94A2177E01A12CB12C92E1A0
:1031B000792EF70124813581468157816485758593
:1031C000868597850E9448281B012C01D7012D91E7
:1031D0003D914D915C91139718966D917D918D91D4
:1031E0009C911B970E9448289B01AC01C201B10130
:1031F0000E94EE280E94B52820E030E044E353E42A
:103200000E94BB2A2BED3FE049E450E40E94EE28E7
:103210000E94282B7A9C60017B9CD00C1124CC0E40
:10322000DD1E4601B0E18B0E911C0E946729962F8E
:10323000990FF60180898170892B808B661F662724
:10324000661FD40111968C9111978E7F682B70FBAD
:1032500061F911966C93BFEFAB1ABB0AE2E1EE0E77
:10326000F11CF6E0AF16B10409F0A3CFA801BE012E
:1032700080E091E00E94150FA801BE0180E191E07D
:103280000E94150FC12CD12C87E0B82EBC9C800168
:10329000BD9C100D11240C0F1D1F78012CE6E20EB1
:1032A000F11C8CE291E00E94D617D7012C93119665
:1032B0003C93119712964C93129713965C93139725
:1032C00014966C93149715967C93159716968C9379
:1032D00001571F4F84E291E00E94D617F801208326
:1032E000318342835383648375838683FFEFCF1AD0
:1032F000DF0A25E0C216D10449F680E090E035E00F
:10330000389FF001399FF00D1124EC0FFD1FEE5492
:10331000FF4F20812E7F208301968431910581F714
:103320008E01035E1E4F88E291E00E94D617D801FD
:103330002C9311963C93119712964C9312971396D7
:103340005C93139714966C93149715967C9315972A
:1033500016968C93CA5EDE4F80E291E00E94D617EB
:10336000288339834A835B836C837D838E83DF91DB
:10337000CF911F910F91FF90EF90DF90CF90BF9072
:10338000AF909F908F907F905F904F903F902F9045
:103390000C9456229F92AF92BF92CF92DF92EF92FF
:1033A000FF920F931F93CF93DF9300D000D0CDB740
:1033B000DEB77C018B01DB011596ED91FC91169730
:1033C000838181FD03C033E0932E02C025E0922E5D
:1033D0000E94682C64E570E00E94952B9A83898393
:1033E0000E94682C66E270E00E94952B0A969C83EE
:1033F0008B8384E5C82ED12C96E2A92EB12CA7018F
:10340000692DCE0101960E949403811110C00E9483
:10341000682CB6010E94952B9A8389830E94682CA0
:10342000B5010E94952B0A969C838B83E8CFF80107
:1034300065817681A701CE0101960E9451088823FB
:1034400031F341E050E0B701C8010E94770A8823B8
:10345000F1F289819A81AB81BC81F80181839283E9
:10346000A383B4838081816080830F900F900F903D
:103470000F90DF91CF911F910F91FF90EF90DF9010
:10348000CF90BF90AF909F90089520E030E047E04C
:10349000429FB001439F700D1124FC01E60FF71FFE
:1034A000E459FF4F508150FD06C064597F4F680FAB
:1034B000791F0C94CA192F5F3F4F2530310541F712
:1034C0000895EF92FF920F931F93CF93DF93CDB7A1
:1034D000DEB727970FB6F894DEBF0FBECDBFFC0155
:1034E000208120FD36C07B018C0189818160898328
:1034F00080E191E00E943A036A837B838C839D8301
:10350000F801858196819F838E8340E050E0B7016A
:10351000CE0101960E94770A8823D9F0EE81FF81BF
:10352000838181FD02C063E001C065E0A701CE0197
:1035300002960E949403882361F080E191E00E944A
:103540003A03F8016183728383839483808181606D
:10355000808327960FB6F894DEBF0FBECDBFDF91F4
:10356000CF911F910F91FF90EF900895CF92DF922E
:10357000EF92FF920F931F93CF93DF93EC018B0198
:103580008091C00186FF56C0FB012281822F869563
:103590008695869549F0815E982F990F990F990F1E
:1035A000822F8770892B82838091BE012091BF0179
:1035B000922F9F77892BC9F18091BE019091BF0115
:1035C00080FD03C0CE010E94451A8091BE019091FA
:1035D000BF019F7763E070E00E94952B892B91F0EB
:1035E0008091BE019091BF019F7765E070E00E94DD
:1035F000952B892BD1F4BE01CE018A5E9E4F0E948D
:10360000611A13C07E01FFE8EF0EF11C6E0182EB20
:10361000C80ED11CEC14FD0419F3BE01C7010E94B1
:10362000611AE7E0EE0EF11CF5CF8091C0018F7BAF
:103630008093C0018091C00187FF19C0F8016381A8
:1036400074818581968120E030E0A9010E94E42800
:10365000882321F0B801CE010E940613B801CE01E3
:103660000E94D4118091C0018F778093C001DF91B7
:10367000CF911F910F91FF90EF90DF90CF90089521
:10368000EF92FF920F931F93CF93DF93FB010EEB0B
:1036900011E0D8018C91CFEBD1E098819F772CE39A
:1036A000E22EF12CB7010E94952B7F936F938181BD
:1036B0001F928F93828187701F928F9380818F7763
:1036C0001F928F9384EA91E09F938F931F921F9292
:1036D0001F921F920E941203F801808198819F77A8
:1036E000B7010E94952B9F938F9389EB91E09F9355
:1036F0008F931F921F921F9285E48F930E94120353
:103700008DB79EB746960FB6F8949EBF0FBE8DBF7D
:10371000DF91CF911F910F91FF90EF9008958F92BD
:103720009F92AF92BF92CF92DF92EF92FF920F9350
:103730001F93CF93DF93EC01E0900801F090090113
:10374000609104017091050180910601909107013B
:103750000E9460294B015C016091000170910101A0
:1037600080910201909103010E94602901E010E024
:103770009701A40180E090E00E947507E090180195
:10378000F09019016091140170911501809116015A
:10379000909117010E9460294B015C01609110011A
:1037A0007091110180911201909113010E94602982
:1037B0009701A40180E090E00E9475077E018DE6EC
:1037C000E80EF11CC12CD12C87E0B82EBC9CF00176
:1037D000BD9CF00D1124EC0FFD1FE459FF4F8081BB
:1037E00080FF0DC0F70124813581428153816081C2
:1037F000718101E010E080E090E00E947507BC9CC0
:10380000F001BD9CF00D1124EC0FFD1FE157FF4F9F
:10381000808180FF0DC0F70127A130A545A156A1E9
:1038200063A174A101E010E080E090E00E947507C0
:10383000FFEFCF1ADF0A87E0E80EF11CE5E0CE16B5
:10384000D10421F6FE01E35EFE4F808180FF0FC0B0
:103850003596208131813297408151813297608144
:10386000718101E010E080E090E00E947507FE01A8
:10387000EA5EFE4F808180FF0FC035962081318146
:1038800032974081518132976081718101E010E06F
:1038900080E090E00E9475076E01F3EBCF0ED11C23
:1038A000E12CF12C15E01E9DF0011F9DF00D11245F
:1038B000EC0FFD1FEE54FF4F808180FF08C0F60122
:1038C0006281738141E0808191810E945E22FFEFDD
:1038D000EF1AFF0A85E0C80ED11CE4E1EE16F104F0
:1038E00011F7DF91CF911F910F91FF90EF90DF9033
:1038F000CF90BF90AF909F908F9008950F931F939C
:10390000CF93DF938C01EB010E948C0BF801828135
:10391000877021F483858160838749C080916F001F
:1039200080FF04C0B801CE010E94B61A8091D10177
:103930009091D201019662E070E00E94952B9093E5
:10394000D2018093D101892B39F480916F0080FFDF
:1039500003C0CE010E94CE0DFE01EC5DFE4F8081C2
:10396000877090E0059754F0BE01635E7E4FFB01C7
:10397000808180FD03C0CE010E94CA19B801CE012A
:103980000E946514B801CE010E947F15B801CE01D6
:103990000E94401BCE010E948F1BF801838580FD91
:1039A00006C0DF91CF911F910F910C944322DF91BC
:1039B000CF911F910F910895CF93DF93CDB7DEB7CD
:1039C000C453D1400FB6F894DEBF0FBECDBFCC5C60
:1039D000DE4F8881C453D1408E7FCC5CDE4F88831C
:1039E000C453D140C65DDE4F1882CA52D14080E038
:1039F00090E0A0E8BFE3C05DDE4F88839983AA838F
:103A0000BB83C053D1408DEC9CECACE4BEE3C45D01
:103A1000DE4F88839983AA83BB83CC52D14085E053
:103A2000C55DDE4F8883CB52D1401092BE0180919C
:103A3000BF0180788093BF018091BF018F77809311
:103A4000BF018091C001807C8093C0018091C00142
:103A50008F7B8093C0018091C0018F778093C001DC
:103A600080916F00816080936F00C75DDE4F888119
:103A7000C952D14080788160C75DDE4F8883C952CA
:103A8000D140CC5CDE4F8881C453D14080FD2AC038
:103A9000BE016F5F7F4FCE01875D9E4F0E94011870
:103AA000CC5CDE4F8881C453D14080FD10C0C85D1E
:103AB000DE4F8881C852D14085FD09C0BE016F5FCD
:103AC0007F4FCE01875D9E4F0E947E1CE9CFC75D70
:103AD000DE4F8881C952D14091E0980F9F7780785E
:103AE000892BCACFC75DDE4F8881C952D1408F77FD
:103AF00090E003976CF20E947417CC5CDE4F0FB617
:103B0000F894DEBF0FBECDBFDF91CF9108950E9424
:103B1000C60A0E942F170E94DC1CFDCF8091E8008E
:103B200080FFFCCF089581E08093D70080EA8093E6
:103B3000D80082E189BD09B400FEFDCF80E9809301
:103B4000D8001092E0001092D6011092D3018CE0C0
:103B50008093E200789408958091D60108959FB7EC
:103B6000F8948091D601882369F083E08093E9007E
:103B70002BE68091E80085FD09C082FF03C02093F9
:103B8000E800F7CF9FBF8FEF9FEF08958091F1007E
:103B90002091E80025FD03C02BE62093E8009FBF9D
:103BA00090E008952FB7F8948091D601811102C05A
:103BB00080E010C083E08093E9008091F2008111E1
:103BC00009C09091E80092FFF3CF95FDF1CF9BE6FD
:103BD0009093E8002FBF08958091D601882371F05B
:103BE0008FB7F89493E09093E9002BE69091E8006A
:103BF00095FF03C02093E800F9CF8FBF08959091FF
:103C0000D601992371F09FB7F89424E02093E9003E
:103C10002091D401222349F02091E80025FD03C022
:103C20009FBF8FEF08951092D4012091E400275E8A
:103C300034E04091E80045FD12C09FBF9091E40040
:103C4000291304C081E08093D401EBCF9091D60179
:103C5000992339F39FB7F8943093E900EACF809322
:103C6000F1008091E80085FD03C08AE38093E800BD
:103C700085E08093D5019FBF80E008959091D601A3
:103C80009923D1F09FB7F89424E02093E900209184
:103C9000E80025FD02C09FBF0FC08093F100809116
:103CA000E80085FD03C08AE38093E80085E0809307
:103CB000D5019FBF80E008958FEF08950F931F9364
:103CC000CF93DF93DC01CB012091D601222371F049
:103CD0002FB7F89434E03093E9003091D4013323C6
:103CE00049F03091E80035FD03C02FBF8FEF43C18D
:103CF0001092D401C4E0D0E41AE305E0009709F47F
:103D000039C13091E400375E4091E80045FD12C0B2
:103D10002FBF2091E400321304C081E08093D401CE
:103D2000E5CF2091D601222309F32FB7F894C09351
:103D3000E900EACF3091F200ED2FE31B4E2F50E067
:103D40008417950708F4E82F8E1B91094E2F50E039
:103D50004134510508F001C1FA01E35AFF4F0C94B8
:103D6000CB2B3C913093F10011963C913093F100B4
:103D700011963C913093F10011963C913093F100F3
:103D800011963C913093F10011963C913093F100E3
:103D900011963C913093F10011963C913093F100D3
:103DA00011963C913093F10011963C913093F100C3
:103DB00011963C913093F10011963C913093F100B3
:103DC00011963C913093F10011963C913093F100A3
:103DD00011963C913093F10011963C913093F10093
:103DE00011963C913093F10011963C913093F10083
:103DF00011963C913093F10011963C913093F10073
:103E000011963C913093F10011963C913093F10062
:103E100011963C913093F10011963C913093F10052
:103E200011963C913093F10011963C913093F10042
:103E300011963C913093F10011963C913093F10032
:103E400011963C913093F10011963C913093F10022
:103E500011963C913093F10011963C913093F10012
:103E600011963C913093F10011963C913093F10002
:103E700011963C913093F10011963C913093F100F2
:103E800011963C913093F10011963C913093F100E2
:103E900011963C913093F10011963C913093F100D2
:103EA00011963C913093F10011963C913093F100C2
:103EB00011963C913093F10011963C913093F100B2
:103EC00011963C913093F10011963C913093F100A2
:103ED00011963C913093F10011963C913093F10092
:103EE00011963C913093F10011963C913093F10082
:103EF00011963C913093F10011963C913093F10072
:103F000011963C913093F10011963C913093F10061
:103F100011963C913093F10011963C913093F10051
:103F200011963C913093F10011963C913093F10041
:103F300011963C913093F10011963C913093F10031
:103F400011963C913093F10011963C913093F10021
:103F500011963C913093F10011963C913093F10011
:103F600011963091E80035FF1093E8000093D501D9
:103F70002FBFC4CE80E0DF91CF911F910F910895A4
:103F80008FB7F8949091D501992341F094E09093E4
:103F9000E9009AE39093E8001092D5018FBF08954D
:103FA00060913C0170913D0180913E0190913F01F3
:103FB0000895809140010895809141010895809174
:103FC000420108958091D30108959FB7F8942091FC
:103FD000D601222339F022E02093E9002091E80065
:103FE00025FD03C09FBF8FEF089521EA2093F100C4
:103FF00020E22093F1001092F1001092F100109253
:10400000F1001092F10021E02093F1001092F100F4
:104010008093F1008AE38093E8009FBF80E00895D9
:104020001F920F920FB60F9211248F939F9380913E
:10403000E1001092E10083FF11C01092E90091E0CD
:104040009093EB001092EC0092E19093ED0098E0D9
:104050009093F0001092D6011092D30182FF13C00A
:104060008091D601882379F08091D501882359F079
:1040700081508093D501811106C084E08093E900CE
:104080008AE38093E8009F918F910F900FBE0F906D
:104090001F9018951F920F920FB60F921124FF9246
:1040A0000F931F932F933F934F935F936F937F9340
:1040B0008F939F93AF93BF93CF93DF93EF93FF9330
:1040C0001092E9008091E80083FF17C1F090F100A1
:1040D0008091F1000091F1009091F10010E0192B16
:1040E000C091F1009091F100D0E0D92B2091F10026
:1040F0006091F10092EF9093E800863009F049C09A
:104100008AE892E044EB52E0FC01A591B4910A17D1
:104110001B07D9F4FC013296A591B491CA17DB07AD
:10412000A1F4FC01349645915491FC01369684919A
:1041300030E0362B2F3F310519F010F02FEF30E033
:10414000281708F4822F3EEF0CC00796481759072E
:10415000D9F6D3C0490F511D891B3093E80088233D
:10416000A9F09091E800292F2570D9F392FDC8C0DD
:10417000982F813108F090E1FA01292F222351F381
:1041800064916093F10021503196F8CF903149F35A
:10419000B7C0853049F48EEF8093E8000E948E1DF1
:1041A00000680093E300ACC0893059F5F110A5C058
:1041B0000093D6011092D3011092D5018EEF809317
:1041C000E80041E089E493E04093E9009C012F5F1F
:1041D0003F4FFC0154915093EB00552359F0F901E6
:1041E00024912093EC009C012D5F3F4F3196E49188
:1041F000E093ED004F5F453011F0C901E5CF8EE14E
:1042000077C0883051F4F0E8FF1277C00E948E1D0D
:104210008091D6018093F10049C0813281F481EA16
:10422000F8126BC00E948E1DECE3F1E083E491E094
:1042300021912093F1008E179F07D1F737C080326C
:10424000A9F491E2F91259C08091E80082FFFCCFF5
:10425000ECE3F1E083E491E02091F10021938E17EB
:104260009F07D1F78BEF8093E80020C0823241F4A2
:10427000E1E2FE1242C00093D3010E948E1D16C0DF
:10428000811118C00E948E1DF2E8FF120AC0C0936F
:10429000E9008091EB0085FB882780F91092E90006
:1042A00001C080E08093F1001092F1008EEF8093C6
:1042B000E80026C0982F9D7F9130F9F492E0F91222
:1042C0001CC0012BD1F4CF779FEF9C0F9430A8F442
:1042D0009EEF9093E800C093E900833071F089E18C
:1042E0008093EB0081E090E001C0880FCA95EAF767
:1042F0008093EA001092EA0003C081E28093EB0011
:10430000FF91EF91DF91CF91BF91AF919F918F91ED
:104310007F916F915F914F913F912F911F910F91DD
:10432000FF900F900FBE0F901F9018959B01AC014E
:10433000F89460E079E08DE390E00E94A92BDA0127
:10434000C9010197A109B109B695A79597958795D8
:104350009093CD008093CC0082E08093C80088E9E0
:104360008093C90086E08093CA00109219021092CF
:104370001A021092D7011092D80178940895909162
:104380001A029F5F983208F090E02091190292176C
:10439000E1F3E92FF0E0E55EFD4F808390931A0290
:1043A00088EB8093C90008959091D8018091D7013E
:1043B0009817D1F39091D7019F5F903408F090E067
:1043C000E92FF0E0E752FE4F80819093D7010895E6
:1043D0008091D8019091D701891708F4805C891BDE
:1043E00008951F920F920FB60F9211248F939F93EF
:1043F000EF93FF9390911A0280911902981304C0D1
:1044000088E98093C9000FC0809119028F5F8832BC
:1044100008F080E0E82FF0E0E55EFD4F908190939A
:10442000CE0080931902FF91EF919F918F910F9091
:104430000FBE0F901F9018951F920F920FB60F92FC
:1044400011242F938F939F93EF93FF939091CE001E
:104450008091D8018F5F803408F080E02091D701EF
:10446000821739F0E82FF0E0E752FE4F90838093F7
:10447000D801FF91EF919F918F912F910F900FBED7
:104480000F901F901895CF93DF9360E080E00E941B
:10449000BF24CAE4D2E0699181E00E94642484E0F0
:1044A000C234D807C1F7DF91CF910895EAE4F2E072
:1044B000119284E0E234F807D9F70895DC019B01FA
:1044C00084359105F8F420333105E0F4C90133E077
:1044D000959587953A95E1F734E5389FF001399F36
:1044E000F00D1124EA0FFB1FE65BFD4F30812770B2
:1044F00081E090E001C0880F2A95EAF7452B19F07A
:10450000832B8083089580958323FBCF2F923F9246
:104510004F925F926F927F928F929F92AF92BF92D3
:10452000CF92DF92EF92FF920F931F93CF93DF937F
:10453000CDB7DEB72C970FB6F894DEBF0FBECDBF58
:104540008B879C877B016A0159012B853C85241749
:104550003507A1F56B0113C081E0C81AD1080FC05F
:10456000CA14DB0494F0A801B6018B859C850E94D7
:104570005E22EA14FB0484F73FEFC31AD30AEA145D
:10458000FB0474F7AC14BD0474F72C960FB6F894C2
:10459000DEBF0FBECDBFDF91CF911F910F91FF9076
:1045A000EF90DF90CF90BF90AF909F908F907F90D3
:1045B0006F905F904F903F902F9008956A157B0504
:1045C00001F5AB84BC8414C021E0A21AB10810C06C
:1045D000AC14BD04D4F2A801B701C5010E945E224B
:1045E000AB85BC85AC15BD057CF7BFEFAB1ABB0A2C
:1045F0008B859C858C159D055CF7CA14DB045CF7E4
:10460000C4CFAB85BC854A175B0754F48F2D750169
:10461000A62EB82E9B858C855C874B87C92ED82EFD
:1046200036012B853C85621A730A45018E189F0856
:10463000C401092C000CAA0BBB0B89839A83AB83A2
:10464000BC83BC01CD010E9498291B012C01C30130
:10465000072C000CAA0BBB0B89839A83AB83BC830A
:10466000BC01CD010E9498299B01AC0129823A82AC
:104670004B825C8269817A818B819C810E94EE28C9
:10468000462F572FBC014D835E836F83788720E0D0
:1046900030E0A9016D817E818F8198850E94AE2ACC
:1046A00087FF09C08D819E81AF81B885B0588D8309
:1046B0009E83AF83B887512C412C312C212C892D1E
:1046C000881F8827881FA82FB0E0BA87A9871614EB
:1046D00017040CF068C02B853C85C216D3060CF479
:1046E00054CFA801B7018B859C850E945E222D8145
:1046F0003E814F81588559824A823B822C82698152
:104700007A818B819C810E944928562E472E382E13
:10471000292E20E030E040E05FE369837A838B83D9
:104720009C8369817A818B819C810E94AE2A87FD5E
:1047300006C01814190464F4AE14BF0464F416140B
:1047400017045CF58B859C8501969C878B87BFCF72
:10475000EA14FB04A4F3A801B7018B859C850E9491
:104760005E2281E090E01814190414F090E080E0DB
:1047700029853A85821B930BE80EF91E20E030E074
:1047800040E85FE359824A823B822C8269817A81C8
:104790008B819C810E944828B8CFAB85BC8511973E
:1047A000BC87AB8794CF8B859C858C159D050CF0C1
:1047B00098CFEBCE4F925F926F927F928F929F92A3
:1047C000AF92BF92CF92DF92EF92FF920F931F931F
:1047D000CF93DF933B0159014052550B65E0649F35
:1047E0009001659F300D1124A9014D5A5C4F7A014B
:1047F000EC012C0155E0450E511C88248394912C2A
:10480000F701C490A114B10409F4C09410E000E0D1
:10481000D12CA401002E02C0440F551F0A94E2F7C8
:104820004C215D21002E02C0559547950A94E2F770
:10483000B301600F711FCE010E945E220F5F1F4FF8
:104840000830110531F7FFEFEF1AFF0A2196C41562
:10485000D505B1F6DF91CF911F910F91FF90EF90A9
:10486000DF90CF90BF90AF909F908F907F906F9090
:104870005F904F900895CF92DF92EF92FF920F9347
:104880001F93CF93DF93F62EE72E8A01D22EC32EED
:10489000C82FD0E0F801ED0FF11D4081411109C092
:1048A000DF91CF911F910F91FF90EF90DF90CF900C
:1048B00008952D2D3C2D6F2D7E2D8C2F90E00E9484
:1048C000DA23CB5FDF5FE6CF95B19F7D40E2849F27
:1048D00090011124922B95B95F9887E090E070E0E9
:1048E0008F989B01082E02C0359527950A94E2F710
:1048F00020FF06C02E9A8F9A019790F75F9A08952D
:104900002E98F9CFCF93C82F579A249A259A269A92
:10491000879A2C985F9A2C9A61E280E00E94642426
:104920006C2F606880E00E94642464E080E00E9454
:10493000642463E180E00E9464246CE080E00E94D3
:10494000642460E280E00E9464246CE080E00E94C5
:10495000642460E480E00E94642460E880E0CF91F9
:104960000C946424CF93DF93C8EFD1E060E081E042
:104970000E9464242197D1F7DF91CF910895CF93BE
:10498000C82F606480E00E9464246C2F606880E01F
:10499000CF910C946424A0E1B0E0E1EDF4E20C943A
:1049A000D12B7C011B016A01FC01178216828381D5
:1049B00081FF44C39E012F5F3F4F3901F70193816F
:1049C000F10193FD859193FF81911F01882309F4E3
:1049D00031C3853239F493FD859193FF81911F0195
:1049E000853239F4B70190E00E94662D56016501C9
:1049F000E5CF10E0512C912CFFE1F915D8F08B3266
:104A000079F038F4803279F08332A1F4F92DF06135
:104A10002EC08D3261F0803369F4292D21602DC0C4
:104A2000392D3260932E892D8460982E2AC0E92D6D
:104A3000E86015C097FC2DC020ED280F2A3088F4BF
:104A400096FE06C03AE0139F200D1124122F19C0C4
:104A50008AE0589E200D1124522EE92DE0629E2EF0
:104A600010C08E3231F496FCE5C2F92DF0649F2E11
:104A700008C08C3621F4292D2068922E02C0883679
:104A800041F4F10193FD859193FF81911F01811103
:104A9000B3CF9BEB980F933020F4992D9061805EFB
:104AA00007C09BE9980F933008F066C1992D9F7E4F
:104AB00096FF16E09F73992E853619F49064992E0F
:104AC00008C0863621F4392F3068932E02C01111A8
:104AD000115097FE07C01C3350F444244394410EF8
:104AE00027E00BC0183038F027E017E005C027E0BA
:104AF0009CE3492E02C0212F412C560184E0A80ED0
:104B0000B11CF6016081718182819381042DA30122
:104B10000E94782C6C01F981FC87F0FF02C0F3FF42
:104B200006C091FC06C092FE06C000E205C00DE280
:104B300003C00BE201C000E08C858C7019F00111FC
:104B40005AC29BC297FE10C04C0CFC85F4FF04C0F7
:104B50008A81813309F44A94141474F528E02415E9
:104B600078F588E0482E2CC096FC2AC0812F90E072
:104B70008C159D059CF03CEFC3163FEFD30674F0F7
:104B8000892D8068982E0AC0E2E0F0E0EC0FFD1F4E
:104B9000E10FF11D8081803319F411501111F4CF10
:104BA00097FE0EC044244394410E812F90E0C81616
:104BB000D9062CF41C1904C04424439401C010E00D
:104BC00097FE06C01C141D0434F4C601019605C0EE
:104BD00085E090E002C081E090E001110196112390
:104BE00031F0212F30E02F5F3F4F820F931F252D93
:104BF00030E08217930714F4581A01C0512C892D04
:104C0000897049F4552039F0B70180E290E00E94A4
:104C1000662D5A94F7CF002329F0B701802F90E03A
:104C20000E94662D93FC09C0552039F0B70180E33E
:104C300090E00E94662D5A94F7CF97FE4CC0460133
:104C4000D7FE02C0812C912CC60188199909F30165
:104C5000E80FF91FFE87ED87960124193109388B7B
:104C60002F87012F10E01195019511093FEF831651
:104C7000930629F4B7018EE290E00E94662DC814D5
:104C8000D9044CF08F8598898815990524F4ED8511
:104C9000FE85818101C080E3F1E08F1A91082D85A6
:104CA0003E852F5F3F4F3E872D87801691062CF063
:104CB000B70190E00E94662DD9CFC814D90441F401
:104CC0009A81963320F4953319F43C8534FF81E3BF
:104CD000B70190E04EC08A81813319F09C859F7E98
:104CE0009C87B70190E00E94662D111105C094FCCD
:104CF00018C085E690E017C0B7018EE290E00E94F0
:104D0000662D1E5F82E001E0080FF301E80FF11D40
:104D10008081B70190E00E94662D802F0113F3CFB0
:104D2000E6CF85E490E0B7010E94662DD7FC06C06F
:104D3000C114D10441F4EC85E4FF05C0D194C194C1
:104D4000D1088DE201C08BE2B70190E00E94662D90
:104D500080E32AE0C216D1042CF08F5FFAE0CF1A6C
:104D6000D108F7CFB70190E00E94662DB701C601C8
:104D7000C0960E94662D54C1833631F0833779F096
:104D8000833509F056C020C0560132E0A30EB11C95
:104D9000F6018081898301E010E0630112C05601B1
:104DA000F2E0AF0EB11CF601C080D18096FE03C0C8
:104DB000612F70E002C06FEF7FEFC6010E945B2D94
:104DC0008C01F92DFF7714C0560122E0A20EB11C10
:104DD000F601C080D18096FE03C0612F70E002C052
:104DE0006FEF7FEFC6010E94502D8C01F92DF06806
:104DF0009F2EF3FD1AC0852D90E008171907A8F41F
:104E0000B70180E290E00E94662D5A94F4CFF6013B
:104E100097FC859197FE81916F01B70190E00E9408
:104E2000662D51105A94015011090115110579F799
:104E3000F7C0843611F0893661F5560197FE09C036
:104E400024E0A20EB11CF601608171818281938100
:104E50000AC0F2E0AF0EB11CF60160817181072E2D
:104E6000000C880B990BF92DFF769F2E97FF09C038
:104E700090958095709561957F4F8F4F9F4FF0680B
:104E80009F2E2AE030E0A3010E94FE2DC82EC618F6
:104E90003FC0092D853721F40F7E2AE030E01DC088
:104EA000097F8F3691F018F4883559F0C3C08037E8
:104EB00019F0883711F0BEC0006104FF09C004601A
:104EC00007C094FE08C0066006C028E030E005C0B8
:104ED00020E130E002C020E132E0560107FF09C0C6
:104EE00084E0A80EB11CF6016081718182819381FA
:104EF00008C0F2E0AF0EB11CF6016081718180E064
:104F000090E0A3010E94FE2DC82EC6180F77902EA8
:104F100096FE0BC0092D0E7FC11650F494FE0AC0F8
:104F200092FC08C0092D0E7E05C0DC2C092D03C0A3
:104F3000DC2C01C0D12E04FF0DC0FE01EC0DF11DD3
:104F40008081803311F4097E09C002FF06C0D3942A
:104F5000D39404C0802F867809F0D39403FD11C048
:104F600000FF06C01C2DD51480F4150D1D190DC0B1
:104F7000D51458F4B70180E290E00E94662DD394D6
:104F8000F7CFD51410F45D1801C0512C04FF10C0E8
:104F9000B70180E390E00E94662D02FF17C001FD7B
:104FA00003C088E790E002C088E590E0B7010CC03C
:104FB000802F867859F001FF02C08BE201C080E2A9
:104FC00007FD8DE2B70190E00E94662DC11638F40E
:104FD000B70180E390E00E94662D1150F7CFCA948C
:104FE000F301EC0DF11D8081B70190E00E94662D68
:104FF000C110F5CF15C0F4E0F51560F584E0581A3E
:1050000093FE1FC0011127C02C8523FF2AC008E88A
:1050100011E0392D3071932EF8018491811124C053
:10502000552009F4E4CCB70180E290E00E94662D9F
:105030005A94F6CFF7018681978126C08FEF9FEFB4
:1050400023C0B70180E290E00E94662D5A9451106F
:10505000F8CFD8CF512CB701802F90E00E94662D59
:10506000D3CF0CE811E0D5CF91108052B70190E07A
:105070000E94662D0F5F1F4FCFCF23E0251510F440
:1050800083E0BDCF512CC0CF6096E2E10C94ED2BB4
:105090005058BB27AA270E9460280C94602A0E94BF
:1050A000272A38F00E942E2A20F039F49F3F19F465
:1050B00026F40C94FD290EF4E095E7FB0C94F729F7
:1050C000E92F0E94852A58F3BA17620773078407ED
:1050D000950720F079F4A6F50C94A72A0EF4E09534
:1050E0000B2EBA2FA02D0B01B90190010C01CA01A2
:1050F000A0011124FF27591B99F0593F50F4503E4D
:1051000068F11A16F040A22F232F342F4427585F3E
:10511000F3CF469537952795A795F0405395C9F756
:105120007EF41F16BA0B620B730B840BBAF091500E
:10513000A1F0FF0FBB1F661F771F881FC2F70EC0AD
:10514000BA0F621F731F841F48F487957795679580
:10515000B795F7959E3F08F0B0CF9395880F08F06C
:105160009927EE0F979587950895DF93DD27B92F3F
:10517000BF7740E85FE31616170648075B0718F489
:10518000D92F0E94B32A9F938F937F936F930E948E
:10519000542BECE3F1E00E94002A0E94602A2F9138
:1051A0003F914F915F910E94CE2ADD2351F090589C
:1051B000A2EA2AED3FE049EC5FE3D0785D270E9448
:1051C0006028DF910C94602A0E94D32908F481E0C2
:1051D00008950E94372AE3950C94712A0E940229AF
:1051E0000C94602A0E942E2A58F00E94272A40F030
:1051F00029F45F3F29F00C94F72951110C94A82A47
:105200000C94FD290E94852A68F39923B1F3552354
:1052100091F3951B550BBB27AA27621773078407C9
:1052200038F09F5F5F4F220F331F441FAA1FA9F35F
:1052300035D00E2E3AF0E0E832D091505040E6954D
:10524000001CCAF72BD0FE2F29D0660F771F881FAE
:10525000BB1F261737074807AB07B0E809F0BB0BA1
:10526000802DBF01FF2793585F4F3AF09E3F5105B5
:1052700078F00C94F7290C94A82A5F3FE4F3983E49
:10528000D4F3869577956795B795F7959F5FC9F79E
:10529000880F911D9695879597F90895E1E0660F1F
:1052A000771F881FBB1F621773078407BA0720F098
:1052B000621B730B840BBA0BEE1F88F7E095089501
:1052C0000E9467296894B1110C94A82A08950E943D
:1052D0008D2A88F09F5798F0B92F9927B751B0F0D1
:1052E000E1F0660F771F881F991F1AF0BA95C9F76A
:1052F00014C0B13091F00E94A72AB1E008950C9437
:10530000A72A672F782F8827B85F39F0B93FCCF3E9
:10531000869577956795B395D9F73EF490958095E6
:10532000709561957F4F8F4F9F4F0895E89409C006
:1053300097FB3EF490958095709561957F4F8F4FC8
:105340009F4F9923A9F0F92F96E9BB279395F695DE
:10535000879577956795B795F111F8CFFAF4BB0F5C
:1053600011F460FF1BC06F5F7F4F8F4F9F4F16C0C0
:10537000882311F096E911C0772321F09EE8872F4A
:10538000762F05C0662371F096E8862F70E060E006
:105390002AF09A95660F771F881FDAF7880F96957F
:1053A000879597F90895990F0008550FAA0BE0E823
:1053B000FEEF16161706E807F907C0F012161306D7
:1053C000E407F50798F0621B730B840B950B39F417
:1053D0000A2661F0232B242B252B21F408950A267D
:1053E00009F4A140A6958FEF811D811D089597F9BD
:1053F0009F6780E870E060E008959FEF80EC08957B
:10540000DF93CF931F930F93FF92EF92DF927B0175
:105410008C01689406C0DA2EEF010E94CE2AFE01AC
:10542000E894A5912591359145915591A6F3EF0109
:105430000E946028FE019701A801DA9469F7DF90C5
:10544000EF90FF900F911F91CF91DF91089500246D
:105450000A941616170618060906089500240A94D9
:10546000121613061406050608950C94FD290E94D1
:105470008D2AD8F3E894E0E0BB279F57F0F02AED9F
:105480003FE049EC06C0EE0FBB0F661F771F881F79
:1054900028F0B23A62077307840728F0B25A620B09
:1054A000730B840BE3959A9572F7803830F49A95D4
:1054B000BB0F661F771F881FD2F790480C94752B7F
:1054C000092E0394000C11F4882352F0BB0F40F412
:1054D000BF2B11F460FF04C06F5F7F4F8F4F9F4F52
:1054E0000895EF93E0FF07C0A2EA2AED3FE049EC00
:1054F0005FEB0E9460280E94602A0F90039401FCD9
:105500009058E9E6F1E00C94812B57FD9058440F38
:10551000551F59F05F3F71F04795880F97FB991F12
:1055200061F09F3F79F087950895121613061406CF
:10553000551FF2CF4695F1DF08C01616170618065C
:10554000991FF1CF86957105610508940895E89437
:10555000BB2766277727CB0197F908950E94D329A7
:1055600008F48FEF08959B01AC0160E070E080E8E3
:105570009FE30C94EE280E94CE2A0C94602A0E948D
:10558000272A38F00E942E2A20F0952311F00C943F
:10559000F7290C94FD2911240C94A82A0E94852A2D
:1055A00070F3959FC1F3950F50E0551F629FF00176
:1055B000729FBB27F00DB11D639FAA27F00DB11D8F
:1055C000AA1F649F6627B00DA11D661F829F222718
:1055D000B00DA11D621F739FB00DA11D621F839F9F
:1055E000A00D611D221F749F3327A00D611D231F75
:1055F000849F600D211D822F762F6A2F11249F57C3
:1056000050409AF0F1F088234AF0EE0FFF1FBB1FC5
:10561000661F771F881F91505040A9F79E3F510584
:1056200080F00C94F7290C94A82A5F3FE4F3983E8D
:10563000D4F3869577956795B795F795E7959F5F2E
:10564000C1F7FE2B880F911D9695879597F90895C0
:105650000E948D2AE8F09E37E8F09639B8F49E381B
:1056600048F4672F782F8827985FF9CF869577952C
:10567000679593959539D0F3B62FB1706B0F711D67
:10568000811D20F487957795679593950C94582BF9
:105690000C94732B0C94A82A9F930E94372A0F9086
:1056A00007FCEE5F0C94712A9B01AC010C94BB2AA1
:1056B000882371F4772321F09850872B762F07C029
:1056C000662311F499270DC09051862B70E060E09D
:1056D0002AF09A95660F771F881FDAF7880F96953C
:1056E000879597F908959F3F31F0915020F4879561
:1056F00077956795B795880F911D9695879597F93A
:1057000008959F938F937F936F93FF93EF939B01E4
:10571000AC010E94BB2AEF91FF910E94002A2F91B9
:105720003F914F915F910C94BB2A97FB072E16F483
:10573000009407D077FD09D00E94082C07FC05D003
:105740003EF4909581959F4F0895709561957F4F98
:105750000895A1E21A2EAA1BBB1BFD010DC0AA1FB2
:10576000BB1FEE1FFF1FA217B307E407F50720F0CA
:10577000A21BB30BE40BF50B661F771F881F991F45
:105780001A9469F760957095809590959B01AC018E
:10579000BD01CF010895EE0FFF1F0590F491E02D9C
:1057A00009942F923F924F925F926F927F928F92C5
:1057B0009F92AF92BF92CF92DF92EF92FF920F93A0
:1057C0001F93CF93DF93CDB7DEB7CA1BDB0B0FB6AA
:1057D000F894DEBF0FBECDBF09942A883988488867
:1057E0005F846E847D848C849B84AA84B984C884FD
:1057F000DF80EE80FD800C811B81AA81B981CE0FF4
:10580000D11D0FB6F894DEBF0FBECDBFED010895D8
:10581000AA1BBB1B51E107C0AA1FBB1FA617B707D6
:1058200010F0A61BB70B881F991F5A95A9F78095F2
:105830009095BC01CD0108958F929F92AF92BF9237
:10584000CF92DF92EF92FF92CF93DF93EC016881CA
:1058500079818A819B81611571058105910521F40A
:1058600064E279ED8BE597E02DE133EF41E050E024
:105870000E945C2E49015A019B01AC01A7EAB1E4E8
:105880000E947B2E6B017C01ACEEB4EFA50194016C
:105890000E94892EDC01CB018C0D9D1DAE1DBF1D0C
:1058A000B7FF03C00197A109B04888839983AA83F1
:1058B000BB839F77DF91CF91FF90EF90DF90CF90E8
:1058C000BF90AF909F908F9008950E941C2C0895D8
:1058D00083E491E00E941C2C0895A0E0B0E0809346
:1058E000430190934401A0934501B093460108956C
:1058F000283008F027E03327DA01990F311D87FDA2
:10590000916000966105710539F432602E5F3D9318
:1059100030E32A95E1F708959F3F30F08038710514
:10592000610509F03C5F3C5F3D93913008F0806871
:10593000911DDF93CF931F930F93FF92EF92192F37
:10594000987F9695E92F96959695E90FFF27E65152
:10595000FE4F99273327EE24FF24A701E701059086
:105960000894079428F4360FE71EF81E491F511DAE
:10597000660F771F881F991F0694A1F7059007945B
:1059800028F4E70EF81E491F561FC11D770F881F08
:10599000991F661F0694A1F70590079428F4F80E46
:1059A000491F561FC71FD11D880F991F661F771FDC
:1059B0000694A1F70590079420F4490F561FC71FBE
:1059C000D81F990F661F771F881F0694A9F7849127
:1059D0001095177041F0D695C79557954795F79450
:1059E000E7941A95C1F7E0E9F1E0689415901591F4
:1059F00035916591959105907FE27395E118F10AD3
:105A0000430B560BC90BD009C0F7E10CF11E431F25
:105A1000561FC91FD01D7EF4703311F48A95E6CF4E
:105A2000E894015030F0080F0AF40027021708F438
:105A3000202F2395022F7A3328F079E37D932A953E
:105A4000E9F710C07D932A9589F606949795679596
:105A5000379517951794E118F10A430B560BC90BAC
:105A6000D00998F023957E9173957A3308F070E30E
:105A70007C932013B8F77E9170617D9330F083950D
:105A800071E37D9370E32A95E1F71124EF90FF9085
:105A90000F911F91CF91DF91992787FD90950895E0
:105AA000FC010590615070400110D8F780959095E9
:105AB0008E0F9F1F0895FC016150704001900110EE
:105AC000D8F7809590958E0F9F1F08950F931F9381
:105AD000CF93DF93FB01238121FD03C08FEF9FEF65
